{
	"address": "0xa118964CDFcfa024b36E1ECA6D279783f4767f08",
	"abi": [
		{
			"inputs": [],
			"stateMutability": "nonpayable",
			"type": "constructor"
		},
		{
			"inputs": [],
			"name": "CheckpointUnorderedInsertion",
			"type": "error"
		},
		{
			"inputs": [
				{
					"internalType": "uint256",
					"name": "daoId",
					"type": "uint256"
				}
			],
			"name": "DAONotFound",
			"type": "error"
		},
		{
			"inputs": [
				{
					"internalType": "uint256",
					"name": "daoId",
					"type": "uint256"
				}
			],
			"name": "DAO_NOT_FOUND",
			"type": "error"
		},
		{
			"inputs": [],
			"name": "DOUBLE_VOTE",
			"type": "error"
		},
		{
			"inputs": [],
			"name": "FailedCall",
			"type": "error"
		},
		{
			"inputs": [
				{
					"internalType": "address",
					"name": "voter",
					"type": "address"
				}
			],
			"name": "GovernorAlreadyCastVote",
			"type": "error"
		},
		{
			"inputs": [
				{
					"internalType": "uint256",
					"name": "proposalId",
					"type": "uint256"
				}
			],
			"name": "GovernorAlreadyQueuedProposal",
			"type": "error"
		},
		{
			"inputs": [],
			"name": "GovernorDisabledDeposit",
			"type": "error"
		},
		{
			"inputs": [
				{
					"internalType": "address",
					"name": "proposer",
					"type": "address"
				},
				{
					"internalType": "uint256",
					"name": "votes",
					"type": "uint256"
				},
				{
					"internalType": "uint256",
					"name": "threshold",
					"type": "uint256"
				}
			],
			"name": "GovernorInsufficientProposerVotes",
			"type": "error"
		},
		{
			"inputs": [
				{
					"internalType": "uint256",
					"name": "targets",
					"type": "uint256"
				},
				{
					"internalType": "uint256",
					"name": "calldatas",
					"type": "uint256"
				},
				{
					"internalType": "uint256",
					"name": "values",
					"type": "uint256"
				}
			],
			"name": "GovernorInvalidProposalLength",
			"type": "error"
		},
		{
			"inputs": [
				{
					"internalType": "uint256",
					"name": "quorumNumerator",
					"type": "uint256"
				},
				{
					"internalType": "uint256",
					"name": "quorumDenominator",
					"type": "uint256"
				}
			],
			"name": "GovernorInvalidQuorumFraction",
			"type": "error"
		},
		{
			"inputs": [
				{
					"internalType": "address",
					"name": "voter",
					"type": "address"
				}
			],
			"name": "GovernorInvalidSignature",
			"type": "error"
		},
		{
			"inputs": [],
			"name": "GovernorInvalidVoteParams",
			"type": "error"
		},
		{
			"inputs": [],
			"name": "GovernorInvalidVoteType",
			"type": "error"
		},
		{
			"inputs": [
				{
					"internalType": "uint256",
					"name": "votingPeriod",
					"type": "uint256"
				}
			],
			"name": "GovernorInvalidVotingPeriod",
			"type": "error"
		},
		{
			"inputs": [
				{
					"internalType": "uint256",
					"name": "proposalId",
					"type": "uint256"
				}
			],
			"name": "GovernorNonexistentProposal",
			"type": "error"
		},
		{
			"inputs": [
				{
					"internalType": "uint256",
					"name": "proposalId",
					"type": "uint256"
				}
			],
			"name": "GovernorNotQueuedProposal",
			"type": "error"
		},
		{
			"inputs": [
				{
					"internalType": "address",
					"name": "account",
					"type": "address"
				}
			],
			"name": "GovernorOnlyExecutor",
			"type": "error"
		},
		{
			"inputs": [],
			"name": "GovernorQueueNotImplemented",
			"type": "error"
		},
		{
			"inputs": [
				{
					"internalType": "address",
					"name": "proposer",
					"type": "address"
				}
			],
			"name": "GovernorRestrictedProposer",
			"type": "error"
		},
		{
			"inputs": [
				{
					"internalType": "uint256",
					"name": "proposalId",
					"type": "uint256"
				},
				{
					"internalType": "address",
					"name": "account",
					"type": "address"
				}
			],
			"name": "GovernorUnableToCancel",
			"type": "error"
		},
		{
			"inputs": [
				{
					"internalType": "uint256",
					"name": "proposalId",
					"type": "uint256"
				},
				{
					"internalType": "enum IGovernor.ProposalState",
					"name": "current",
					"type": "uint8"
				},
				{
					"internalType": "bytes32",
					"name": "expectedStates",
					"type": "bytes32"
				}
			],
			"name": "GovernorUnexpectedProposalState",
			"type": "error"
		},
		{
			"inputs": [],
			"name": "INSUFFICIENT_ALLOWANCE",
			"type": "error"
		},
		{
			"inputs": [],
			"name": "INSUFFICIENT_FUNDS",
			"type": "error"
		},
		{
			"inputs": [],
			"name": "INVALID_NULLIFIER",
			"type": "error"
		},
		{
			"inputs": [],
			"name": "INVALID_PROPOSAL_ID",
			"type": "error"
		},
		{
			"inputs": [],
			"name": "INVALID_VOTE_TYPE",
			"type": "error"
		},
		{
			"inputs": [
				{
					"internalType": "address",
					"name": "account",
					"type": "address"
				},
				{
					"internalType": "uint256",
					"name": "currentNonce",
					"type": "uint256"
				}
			],
			"name": "InvalidAccountNonce",
			"type": "error"
		},
		{
			"inputs": [],
			"name": "InvalidArrayLength",
			"type": "error"
		},
		{
			"inputs": [],
			"name": "InvalidInitialization",
			"type": "error"
		},
		{
			"inputs": [],
			"name": "InvalidParameters",
			"type": "error"
		},
		{
			"inputs": [],
			"name": "MISMATCH",
			"type": "error"
		},
		{
			"inputs": [],
			"name": "NotInitializing",
			"type": "error"
		},
		{
			"inputs": [
				{
					"internalType": "uint8",
					"name": "bits",
					"type": "uint8"
				},
				{
					"internalType": "uint256",
					"name": "value",
					"type": "uint256"
				}
			],
			"name": "SafeCastOverflowedUintDowncast",
			"type": "error"
		},
		{
			"inputs": [],
			"name": "UNAUTHORIZED",
			"type": "error"
		},
		{
			"inputs": [
				{
					"internalType": "bytes32",
					"name": "requestId",
					"type": "bytes32"
				}
			],
			"name": "UNEXPECTED_REQUEST_ID",
			"type": "error"
		},
		{
			"inputs": [],
			"name": "UnauthorizedCaller",
			"type": "error"
		},
		{
			"inputs": [],
			"name": "VOTING_CLOSED",
			"type": "error"
		},
		{
			"inputs": [],
			"name": "ZK_PROOF_FAILED",
			"type": "error"
		},
		{
			"anonymous": false,
			"inputs": [],
			"name": "EIP712DomainChanged",
			"type": "event"
		},
		{
			"anonymous": false,
			"inputs": [
				{
					"indexed": false,
					"internalType": "uint64",
					"name": "version",
					"type": "uint64"
				}
			],
			"name": "Initialized",
			"type": "event"
		},
		{
			"anonymous": false,
			"inputs": [
				{
					"indexed": false,
					"internalType": "uint256",
					"name": "proposalId",
					"type": "uint256"
				}
			],
			"name": "ProposalCanceled",
			"type": "event"
		},
		{
			"anonymous": false,
			"inputs": [
				{
					"indexed": false,
					"internalType": "uint256",
					"name": "proposalId",
					"type": "uint256"
				},
				{
					"indexed": false,
					"internalType": "address",
					"name": "proposer",
					"type": "address"
				},
				{
					"indexed": false,
					"internalType": "address[]",
					"name": "targets",
					"type": "address[]"
				},
				{
					"indexed": false,
					"internalType": "uint256[]",
					"name": "values",
					"type": "uint256[]"
				},
				{
					"indexed": false,
					"internalType": "string[]",
					"name": "signatures",
					"type": "string[]"
				},
				{
					"indexed": false,
					"internalType": "bytes[]",
					"name": "calldatas",
					"type": "bytes[]"
				},
				{
					"indexed": false,
					"internalType": "uint256",
					"name": "voteStart",
					"type": "uint256"
				},
				{
					"indexed": false,
					"internalType": "uint256",
					"name": "voteEnd",
					"type": "uint256"
				},
				{
					"indexed": false,
					"internalType": "string",
					"name": "description",
					"type": "string"
				}
			],
			"name": "ProposalCreated",
			"type": "event"
		},
		{
			"anonymous": false,
			"inputs": [
				{
					"indexed": false,
					"internalType": "uint256",
					"name": "proposalId",
					"type": "uint256"
				}
			],
			"name": "ProposalExecuted",
			"type": "event"
		},
		{
			"anonymous": false,
			"inputs": [
				{
					"indexed": false,
					"internalType": "uint256",
					"name": "proposalId",
					"type": "uint256"
				},
				{
					"indexed": false,
					"internalType": "uint256",
					"name": "etaSeconds",
					"type": "uint256"
				}
			],
			"name": "ProposalQueued",
			"type": "event"
		},
		{
			"anonymous": false,
			"inputs": [
				{
					"indexed": false,
					"internalType": "uint256",
					"name": "oldProposalThreshold",
					"type": "uint256"
				},
				{
					"indexed": false,
					"internalType": "uint256",
					"name": "newProposalThreshold",
					"type": "uint256"
				}
			],
			"name": "ProposalThresholdSet",
			"type": "event"
		},
		{
			"anonymous": false,
			"inputs": [
				{
					"indexed": false,
					"internalType": "uint256",
					"name": "oldQuorumNumerator",
					"type": "uint256"
				},
				{
					"indexed": false,
					"internalType": "uint256",
					"name": "newQuorumNumerator",
					"type": "uint256"
				}
			],
			"name": "QuorumNumeratorUpdated",
			"type": "event"
		},
		{
			"anonymous": false,
			"inputs": [
				{
					"indexed": false,
					"internalType": "address",
					"name": "oldTimelock",
					"type": "address"
				},
				{
					"indexed": false,
					"internalType": "address",
					"name": "newTimelock",
					"type": "address"
				}
			],
			"name": "TimelockChange",
			"type": "event"
		},
		{
			"anonymous": false,
			"inputs": [
				{
					"indexed": true,
					"internalType": "bytes32",
					"name": "messageId",
					"type": "bytes32"
				},
				{
					"indexed": true,
					"internalType": "uint64",
					"name": "destinationChainSelector",
					"type": "uint64"
				},
				{
					"indexed": false,
					"internalType": "address",
					"name": "receiver",
					"type": "address"
				},
				{
					"indexed": false,
					"internalType": "address",
					"name": "token",
					"type": "address"
				},
				{
					"indexed": false,
					"internalType": "uint256",
					"name": "tokenAmount",
					"type": "uint256"
				},
				{
					"indexed": false,
					"internalType": "address",
					"name": "feeToken",
					"type": "address"
				},
				{
					"indexed": false,
					"internalType": "uint256",
					"name": "fees",
					"type": "uint256"
				}
			],
			"name": "TokensTransferred",
			"type": "event"
		},
		{
			"anonymous": false,
			"inputs": [
				{
					"indexed": true,
					"internalType": "address",
					"name": "voter",
					"type": "address"
				},
				{
					"indexed": false,
					"internalType": "uint256",
					"name": "proposalId",
					"type": "uint256"
				},
				{
					"indexed": false,
					"internalType": "uint8",
					"name": "support",
					"type": "uint8"
				},
				{
					"indexed": false,
					"internalType": "uint256",
					"name": "weight",
					"type": "uint256"
				},
				{
					"indexed": false,
					"internalType": "string",
					"name": "reason",
					"type": "string"
				}
			],
			"name": "VoteCast",
			"type": "event"
		},
		{
			"anonymous": false,
			"inputs": [
				{
					"indexed": true,
					"internalType": "address",
					"name": "voter",
					"type": "address"
				},
				{
					"indexed": false,
					"internalType": "uint256",
					"name": "proposalId",
					"type": "uint256"
				},
				{
					"indexed": false,
					"internalType": "uint8",
					"name": "support",
					"type": "uint8"
				},
				{
					"indexed": false,
					"internalType": "uint256",
					"name": "weight",
					"type": "uint256"
				},
				{
					"indexed": false,
					"internalType": "string",
					"name": "reason",
					"type": "string"
				},
				{
					"indexed": false,
					"internalType": "bytes",
					"name": "params",
					"type": "bytes"
				}
			],
			"name": "VoteCastWithParams",
			"type": "event"
		},
		{
			"anonymous": false,
			"inputs": [
				{
					"indexed": false,
					"internalType": "uint256",
					"name": "oldVotingDelay",
					"type": "uint256"
				},
				{
					"indexed": false,
					"internalType": "uint256",
					"name": "newVotingDelay",
					"type": "uint256"
				}
			],
			"name": "VotingDelaySet",
			"type": "event"
		},
		{
			"anonymous": false,
			"inputs": [
				{
					"indexed": false,
					"internalType": "uint256",
					"name": "oldVotingPeriod",
					"type": "uint256"
				},
				{
					"indexed": false,
					"internalType": "uint256",
					"name": "newVotingPeriod",
					"type": "uint256"
				}
			],
			"name": "VotingPeriodSet",
			"type": "event"
		},
		{
			"anonymous": false,
			"inputs": [
				{
					"indexed": true,
					"internalType": "uint256",
					"name": "proposalId",
					"type": "uint256"
				},
				{
					"indexed": false,
					"internalType": "uint8",
					"name": "choice",
					"type": "uint8"
				},
				{
					"indexed": false,
					"internalType": "uint256",
					"name": "weight",
					"type": "uint256"
				},
				{
					"indexed": false,
					"internalType": "bytes32",
					"name": "nullifier",
					"type": "bytes32"
				}
			],
			"name": "ZKVoteCast",
			"type": "event"
		},
		{
			"inputs": [],
			"name": "BALLOT_TYPEHASH",
			"outputs": [
				{
					"internalType": "bytes32",
					"name": "",
					"type": "bytes32"
				}
			],
			"stateMutability": "view",
			"type": "function"
		},
		{
			"inputs": [],
			"name": "CLOCK_MODE",
			"outputs": [
				{
					"internalType": "string",
					"name": "",
					"type": "string"
				}
			],
			"stateMutability": "view",
			"type": "function"
		},
		{
			"inputs": [],
			"name": "COUNTING_MODE",
			"outputs": [
				{
					"internalType": "string",
					"name": "",
					"type": "string"
				}
			],
			"stateMutability": "pure",
			"type": "function"
		},
		{
			"inputs": [],
			"name": "EXTENDED_BALLOT_TYPEHASH",
			"outputs": [
				{
					"internalType": "bytes32",
					"name": "",
					"type": "bytes32"
				}
			],
			"stateMutability": "view",
			"type": "function"
		},
		{
			"inputs": [
				{
					"internalType": "address[]",
					"name": "targets",
					"type": "address[]"
				},
				{
					"internalType": "uint256[]",
					"name": "values",
					"type": "uint256[]"
				},
				{
					"internalType": "bytes[]",
					"name": "calldatas",
					"type": "bytes[]"
				},
				{
					"internalType": "bytes32",
					"name": "descriptionHash",
					"type": "bytes32"
				}
			],
			"name": "cancel",
			"outputs": [
				{
					"internalType": "uint256",
					"name": "",
					"type": "uint256"
				}
			],
			"stateMutability": "nonpayable",
			"type": "function"
		},
		{
			"inputs": [
				{
					"internalType": "uint256",
					"name": "proposalId",
					"type": "uint256"
				},
				{
					"internalType": "uint8",
					"name": "support",
					"type": "uint8"
				}
			],
			"name": "castVote",
			"outputs": [
				{
					"internalType": "uint256",
					"name": "",
					"type": "uint256"
				}
			],
			"stateMutability": "nonpayable",
			"type": "function"
		},
		{
			"inputs": [
				{
					"internalType": "uint256",
					"name": "proposalId",
					"type": "uint256"
				},
				{
					"internalType": "uint8",
					"name": "support",
					"type": "uint8"
				},
				{
					"internalType": "address",
					"name": "voter",
					"type": "address"
				},
				{
					"internalType": "bytes",
					"name": "signature",
					"type": "bytes"
				}
			],
			"name": "castVoteBySig",
			"outputs": [
				{
					"internalType": "uint256",
					"name": "",
					"type": "uint256"
				}
			],
			"stateMutability": "nonpayable",
			"type": "function"
		},
		{
			"inputs": [
				{
					"internalType": "uint256",
					"name": "proposalId",
					"type": "uint256"
				},
				{
					"internalType": "uint8",
					"name": "support",
					"type": "uint8"
				},
				{
					"internalType": "string",
					"name": "reason",
					"type": "string"
				}
			],
			"name": "castVoteWithReason",
			"outputs": [
				{
					"internalType": "uint256",
					"name": "",
					"type": "uint256"
				}
			],
			"stateMutability": "nonpayable",
			"type": "function"
		},
		{
			"inputs": [
				{
					"internalType": "uint256",
					"name": "proposalId",
					"type": "uint256"
				},
				{
					"internalType": "uint8",
					"name": "support",
					"type": "uint8"
				},
				{
					"internalType": "string",
					"name": "reason",
					"type": "string"
				},
				{
					"internalType": "bytes",
					"name": "params",
					"type": "bytes"
				}
			],
			"name": "castVoteWithReasonAndParams",
			"outputs": [
				{
					"internalType": "uint256",
					"name": "",
					"type": "uint256"
				}
			],
			"stateMutability": "nonpayable",
			"type": "function"
		},
		{
			"inputs": [
				{
					"internalType": "uint256",
					"name": "proposalId",
					"type": "uint256"
				},
				{
					"internalType": "uint8",
					"name": "support",
					"type": "uint8"
				},
				{
					"internalType": "address",
					"name": "voter",
					"type": "address"
				},
				{
					"internalType": "string",
					"name": "reason",
					"type": "string"
				},
				{
					"internalType": "bytes",
					"name": "params",
					"type": "bytes"
				},
				{
					"internalType": "bytes",
					"name": "signature",
					"type": "bytes"
				}
			],
			"name": "castVoteWithReasonAndParamsBySig",
			"outputs": [
				{
					"internalType": "uint256",
					"name": "",
					"type": "uint256"
				}
			],
			"stateMutability": "nonpayable",
			"type": "function"
		},
		{
			"inputs": [
				{
					"internalType": "uint256",
					"name": "_proposalId",
					"type": "uint256"
				},
				{
					"internalType": "bytes",
					"name": "_proof",
					"type": "bytes"
				},
				{
					"internalType": "bytes32[]",
					"name": "_inputs",
					"type": "bytes32[]"
				}
			],
			"name": "castZKVote",
			"outputs": [],
			"stateMutability": "nonpayable",
			"type": "function"
		},
		{
			"inputs": [],
			"name": "clock",
			"outputs": [
				{
					"internalType": "uint48",
					"name": "",
					"type": "uint48"
				}
			],
			"stateMutability": "view",
			"type": "function"
		},
		{
			"inputs": [],
			"name": "eip712Domain",
			"outputs": [
				{
					"internalType": "bytes1",
					"name": "fields",
					"type": "bytes1"
				},
				{
					"internalType": "string",
					"name": "name",
					"type": "string"
				},
				{
					"internalType": "string",
					"name": "version",
					"type": "string"
				},
				{
					"internalType": "uint256",
					"name": "chainId",
					"type": "uint256"
				},
				{
					"internalType": "address",
					"name": "verifyingContract",
					"type": "address"
				},
				{
					"internalType": "bytes32",
					"name": "salt",
					"type": "bytes32"
				},
				{
					"internalType": "uint256[]",
					"name": "extensions",
					"type": "uint256[]"
				}
			],
			"stateMutability": "view",
			"type": "function"
		},
		{
			"inputs": [
				{
					"internalType": "address[]",
					"name": "targets",
					"type": "address[]"
				},
				{
					"internalType": "uint256[]",
					"name": "values",
					"type": "uint256[]"
				},
				{
					"internalType": "bytes[]",
					"name": "calldatas",
					"type": "bytes[]"
				},
				{
					"internalType": "bytes32",
					"name": "descriptionHash",
					"type": "bytes32"
				}
			],
			"name": "execute",
			"outputs": [
				{
					"internalType": "uint256",
					"name": "",
					"type": "uint256"
				}
			],
			"stateMutability": "payable",
			"type": "function"
		},
		{
			"inputs": [
				{
					"internalType": "uint256",
					"name": "_id",
					"type": "uint256"
				}
			],
			"name": "getCid",
			"outputs": [
				{
					"internalType": "string",
					"name": "",
					"type": "string"
				}
			],
			"stateMutability": "view",
			"type": "function"
		},
		{
			"inputs": [],
			"name": "getDescription",
			"outputs": [
				{
					"internalType": "string",
					"name": "",
					"type": "string"
				}
			],
			"stateMutability": "view",
			"type": "function"
		},
		{
			"inputs": [],
			"name": "getId",
			"outputs": [
				{
					"internalType": "uint256",
					"name": "",
					"type": "uint256"
				}
			],
			"stateMutability": "view",
			"type": "function"
		},
		{
			"inputs": [],
			"name": "getLogo",
			"outputs": [
				{
					"internalType": "string",
					"name": "",
					"type": "string"
				}
			],
			"stateMutability": "view",
			"type": "function"
		},
		{
			"inputs": [
				{
					"internalType": "uint256",
					"name": "_id",
					"type": "uint256"
				},
				{
					"internalType": "uint256",
					"name": "nullifier",
					"type": "uint256"
				}
			],
			"name": "getNullifierUsed",
			"outputs": [
				{
					"internalType": "bool",
					"name": "",
					"type": "bool"
				}
			],
			"stateMutability": "view",
			"type": "function"
		},
		{
			"inputs": [
				{
					"internalType": "uint256",
					"name": "_id",
					"type": "uint256"
				},
				{
					"internalType": "address",
					"name": "account",
					"type": "address"
				}
			],
			"name": "getNullifierUsedByAddress",
			"outputs": [
				{
					"internalType": "bool",
					"name": "",
					"type": "bool"
				}
			],
			"stateMutability": "view",
			"type": "function"
		},
		{
			"inputs": [
				{
					"internalType": "uint256",
					"name": "_id",
					"type": "uint256"
				}
			],
			"name": "getProposal",
			"outputs": [
				{
					"components": [
						{
							"internalType": "uint256",
							"name": "id",
							"type": "uint256"
						},
						{
							"internalType": "uint256",
							"name": "proposalNumber",
							"type": "uint256"
						},
						{
							"internalType": "uint256",
							"name": "createdAt",
							"type": "uint256"
						},
						{
							"internalType": "address",
							"name": "proposer",
							"type": "address"
						},
						{
							"internalType": "string",
							"name": "description",
							"type": "string"
						}
					],
					"internalType": "struct Governor.ProposalStorage",
					"name": "",
					"type": "tuple"
				}
			],
			"stateMutability": "view",
			"type": "function"
		},
		{
			"inputs": [],
			"name": "getProposalCounter",
			"outputs": [
				{
					"internalType": "uint256",
					"name": "",
					"type": "uint256"
				}
			],
			"stateMutability": "view",
			"type": "function"
		},
		{
			"inputs": [
				{
					"internalType": "address[]",
					"name": "targets",
					"type": "address[]"
				},
				{
					"internalType": "uint256[]",
					"name": "values",
					"type": "uint256[]"
				},
				{
					"internalType": "bytes[]",
					"name": "calldatas",
					"type": "bytes[]"
				},
				{
					"internalType": "bytes32",
					"name": "descriptionHash",
					"type": "bytes32"
				}
			],
			"name": "getProposalId",
			"outputs": [
				{
					"internalType": "uint256",
					"name": "",
					"type": "uint256"
				}
			],
			"stateMutability": "view",
			"type": "function"
		},
		{
			"inputs": [],
			"name": "getVerifier",
			"outputs": [
				{
					"internalType": "contract IVerifier",
					"name": "",
					"type": "address"
				}
			],
			"stateMutability": "view",
			"type": "function"
		},
		{
			"inputs": [
				{
					"internalType": "address",
					"name": "account",
					"type": "address"
				},
				{
					"internalType": "uint256",
					"name": "timepoint",
					"type": "uint256"
				}
			],
			"name": "getVotes",
			"outputs": [
				{
					"internalType": "uint256",
					"name": "",
					"type": "uint256"
				}
			],
			"stateMutability": "view",
			"type": "function"
		},
		{
			"inputs": [
				{
					"internalType": "address",
					"name": "account",
					"type": "address"
				},
				{
					"internalType": "uint256",
					"name": "timepoint",
					"type": "uint256"
				},
				{
					"internalType": "bytes",
					"name": "params",
					"type": "bytes"
				}
			],
			"name": "getVotesWithParams",
			"outputs": [
				{
					"internalType": "uint256",
					"name": "",
					"type": "uint256"
				}
			],
			"stateMutability": "view",
			"type": "function"
		},
		{
			"inputs": [],
			"name": "getZKDAO",
			"outputs": [
				{
					"internalType": "contract IZKDAO",
					"name": "",
					"type": "address"
				}
			],
			"stateMutability": "view",
			"type": "function"
		},
		{
			"inputs": [
				{
					"internalType": "uint256",
					"name": "_id",
					"type": "uint256"
				}
			],
			"name": "getZKVote",
			"outputs": [
				{
					"internalType": "uint256",
					"name": "againstVotes",
					"type": "uint256"
				},
				{
					"internalType": "uint256",
					"name": "forVotes",
					"type": "uint256"
				},
				{
					"internalType": "uint256",
					"name": "abstainVotes",
					"type": "uint256"
				}
			],
			"stateMutability": "view",
			"type": "function"
		},
		{
			"inputs": [
				{
					"internalType": "uint256",
					"name": "proposalId",
					"type": "uint256"
				},
				{
					"internalType": "address",
					"name": "account",
					"type": "address"
				}
			],
			"name": "hasVoted",
			"outputs": [
				{
					"internalType": "bool",
					"name": "",
					"type": "bool"
				}
			],
			"stateMutability": "view",
			"type": "function"
		},
		{
			"inputs": [
				{
					"internalType": "address[]",
					"name": "targets",
					"type": "address[]"
				},
				{
					"internalType": "uint256[]",
					"name": "values",
					"type": "uint256[]"
				},
				{
					"internalType": "bytes[]",
					"name": "calldatas",
					"type": "bytes[]"
				},
				{
					"internalType": "bytes32",
					"name": "descriptionHash",
					"type": "bytes32"
				}
			],
			"name": "hashProposal",
			"outputs": [
				{
					"internalType": "uint256",
					"name": "",
					"type": "uint256"
				}
			],
			"stateMutability": "pure",
			"type": "function"
		},
		{
			"inputs": [
				{
					"components": [
						{
							"internalType": "string",
							"name": "name",
							"type": "string"
						},
						{
							"internalType": "contract IVotes",
							"name": "token",
							"type": "address"
						},
						{
							"internalType": "contract TimelockControllerUpgradeable",
							"name": "timelock",
							"type": "address"
						},
						{
							"internalType": "uint48",
							"name": "votingDelay",
							"type": "uint48"
						},
						{
							"internalType": "uint32",
							"name": "votingPeriod",
							"type": "uint32"
						},
						{
							"internalType": "uint256",
							"name": "proposalThreshold",
							"type": "uint256"
						},
						{
							"internalType": "uint256",
							"name": "votesQuorumFraction",
							"type": "uint256"
						},
						{
							"internalType": "uint256",
							"name": "id",
							"type": "uint256"
						},
						{
							"internalType": "string",
							"name": "description",
							"type": "string"
						},
						{
							"internalType": "string",
							"name": "logo",
							"type": "string"
						}
					],
					"internalType": "struct Governor.GovernorInitParams",
					"name": "params",
					"type": "tuple"
				},
				{
					"internalType": "contract IVerifier",
					"name": "_verifier",
					"type": "address"
				},
				{
					"internalType": "address",
					"name": "_linkToken",
					"type": "address"
				}
			],
			"name": "initialize",
			"outputs": [],
			"stateMutability": "nonpayable",
			"type": "function"
		},
		{
			"inputs": [
				{
					"internalType": "uint256",
					"name": "_id",
					"type": "uint256"
				}
			],
			"name": "isWaitingMerkle",
			"outputs": [
				{
					"internalType": "bool",
					"name": "",
					"type": "bool"
				}
			],
			"stateMutability": "view",
			"type": "function"
		},
		{
			"inputs": [],
			"name": "name",
			"outputs": [
				{
					"internalType": "string",
					"name": "",
					"type": "string"
				}
			],
			"stateMutability": "view",
			"type": "function"
		},
		{
			"inputs": [
				{
					"internalType": "address",
					"name": "owner",
					"type": "address"
				}
			],
			"name": "nonces",
			"outputs": [
				{
					"internalType": "uint256",
					"name": "",
					"type": "uint256"
				}
			],
			"stateMutability": "view",
			"type": "function"
		},
		{
			"inputs": [
				{
					"internalType": "address",
					"name": "",
					"type": "address"
				},
				{
					"internalType": "address",
					"name": "",
					"type": "address"
				},
				{
					"internalType": "uint256[]",
					"name": "",
					"type": "uint256[]"
				},
				{
					"internalType": "uint256[]",
					"name": "",
					"type": "uint256[]"
				},
				{
					"internalType": "bytes",
					"name": "",
					"type": "bytes"
				}
			],
			"name": "onERC1155BatchReceived",
			"outputs": [
				{
					"internalType": "bytes4",
					"name": "",
					"type": "bytes4"
				}
			],
			"stateMutability": "nonpayable",
			"type": "function"
		},
		{
			"inputs": [
				{
					"internalType": "address",
					"name": "",
					"type": "address"
				},
				{
					"internalType": "address",
					"name": "",
					"type": "address"
				},
				{
					"internalType": "uint256",
					"name": "",
					"type": "uint256"
				},
				{
					"internalType": "uint256",
					"name": "",
					"type": "uint256"
				},
				{
					"internalType": "bytes",
					"name": "",
					"type": "bytes"
				}
			],
			"name": "onERC1155Received",
			"outputs": [
				{
					"internalType": "bytes4",
					"name": "",
					"type": "bytes4"
				}
			],
			"stateMutability": "nonpayable",
			"type": "function"
		},
		{
			"inputs": [
				{
					"internalType": "address",
					"name": "",
					"type": "address"
				},
				{
					"internalType": "address",
					"name": "",
					"type": "address"
				},
				{
					"internalType": "uint256",
					"name": "",
					"type": "uint256"
				},
				{
					"internalType": "bytes",
					"name": "",
					"type": "bytes"
				}
			],
			"name": "onERC721Received",
			"outputs": [
				{
					"internalType": "bytes4",
					"name": "",
					"type": "bytes4"
				}
			],
			"stateMutability": "nonpayable",
			"type": "function"
		},
		{
			"inputs": [
				{
					"internalType": "uint256",
					"name": "proposalId",
					"type": "uint256"
				}
			],
			"name": "proposalDeadline",
			"outputs": [
				{
					"internalType": "uint256",
					"name": "",
					"type": "uint256"
				}
			],
			"stateMutability": "view",
			"type": "function"
		},
		{
			"inputs": [
				{
					"internalType": "uint256",
					"name": "proposalId",
					"type": "uint256"
				}
			],
			"name": "proposalEta",
			"outputs": [
				{
					"internalType": "uint256",
					"name": "",
					"type": "uint256"
				}
			],
			"stateMutability": "view",
			"type": "function"
		},
		{
			"inputs": [
				{
					"internalType": "uint256",
					"name": "proposalId",
					"type": "uint256"
				}
			],
			"name": "proposalNeedsQueuing",
			"outputs": [
				{
					"internalType": "bool",
					"name": "",
					"type": "bool"
				}
			],
			"stateMutability": "view",
			"type": "function"
		},
		{
			"inputs": [
				{
					"internalType": "uint256",
					"name": "proposalId",
					"type": "uint256"
				}
			],
			"name": "proposalProposer",
			"outputs": [
				{
					"internalType": "address",
					"name": "",
					"type": "address"
				}
			],
			"stateMutability": "view",
			"type": "function"
		},
		{
			"inputs": [
				{
					"internalType": "uint256",
					"name": "proposalId",
					"type": "uint256"
				}
			],
			"name": "proposalSnapshot",
			"outputs": [
				{
					"internalType": "uint256",
					"name": "",
					"type": "uint256"
				}
			],
			"stateMutability": "view",
			"type": "function"
		},
		{
			"inputs": [],
			"name": "proposalThreshold",
			"outputs": [
				{
					"internalType": "uint256",
					"name": "",
					"type": "uint256"
				}
			],
			"stateMutability": "view",
			"type": "function"
		},
		{
			"inputs": [
				{
					"internalType": "uint256",
					"name": "proposalId",
					"type": "uint256"
				}
			],
			"name": "proposalVotes",
			"outputs": [
				{
					"internalType": "uint256",
					"name": "againstVotes",
					"type": "uint256"
				},
				{
					"internalType": "uint256",
					"name": "forVotes",
					"type": "uint256"
				},
				{
					"internalType": "uint256",
					"name": "abstainVotes",
					"type": "uint256"
				}
			],
			"stateMutability": "view",
			"type": "function"
		},
		{
			"inputs": [
				{
					"internalType": "address[]",
					"name": "targets",
					"type": "address[]"
				},
				{
					"internalType": "uint256[]",
					"name": "values",
					"type": "uint256[]"
				},
				{
					"internalType": "bytes[]",
					"name": "calldatas",
					"type": "bytes[]"
				},
				{
					"internalType": "string",
					"name": "_description",
					"type": "string"
				}
			],
			"name": "propose",
			"outputs": [
				{
					"internalType": "uint256",
					"name": "",
					"type": "uint256"
				}
			],
			"stateMutability": "nonpayable",
			"type": "function"
		},
		{
			"inputs": [
				{
					"internalType": "address[]",
					"name": "targets",
					"type": "address[]"
				},
				{
					"internalType": "uint256[]",
					"name": "values",
					"type": "uint256[]"
				},
				{
					"internalType": "bytes[]",
					"name": "calldatas",
					"type": "bytes[]"
				},
				{
					"internalType": "bytes32",
					"name": "descriptionHash",
					"type": "bytes32"
				}
			],
			"name": "queue",
			"outputs": [
				{
					"internalType": "uint256",
					"name": "",
					"type": "uint256"
				}
			],
			"stateMutability": "nonpayable",
			"type": "function"
		},
		{
			"inputs": [
				{
					"internalType": "uint256",
					"name": "timepoint",
					"type": "uint256"
				}
			],
			"name": "quorum",
			"outputs": [
				{
					"internalType": "uint256",
					"name": "",
					"type": "uint256"
				}
			],
			"stateMutability": "view",
			"type": "function"
		},
		{
			"inputs": [],
			"name": "quorumDenominator",
			"outputs": [
				{
					"internalType": "uint256",
					"name": "",
					"type": "uint256"
				}
			],
			"stateMutability": "view",
			"type": "function"
		},
		{
			"inputs": [
				{
					"internalType": "uint256",
					"name": "timepoint",
					"type": "uint256"
				}
			],
			"name": "quorumNumerator",
			"outputs": [
				{
					"internalType": "uint256",
					"name": "",
					"type": "uint256"
				}
			],
			"stateMutability": "view",
			"type": "function"
		},
		{
			"inputs": [],
			"name": "quorumNumerator",
			"outputs": [
				{
					"internalType": "uint256",
					"name": "",
					"type": "uint256"
				}
			],
			"stateMutability": "view",
			"type": "function"
		},
		{
			"inputs": [
				{
					"internalType": "address",
					"name": "target",
					"type": "address"
				},
				{
					"internalType": "uint256",
					"name": "value",
					"type": "uint256"
				},
				{
					"internalType": "bytes",
					"name": "data",
					"type": "bytes"
				}
			],
			"name": "relay",
			"outputs": [],
			"stateMutability": "payable",
			"type": "function"
		},
		{
			"inputs": [
				{
					"internalType": "uint256",
					"name": "newProposalThreshold",
					"type": "uint256"
				}
			],
			"name": "setProposalThreshold",
			"outputs": [],
			"stateMutability": "nonpayable",
			"type": "function"
		},
		{
			"inputs": [
				{
					"internalType": "uint256",
					"name": "_proposalId",
					"type": "uint256"
				},
				{
					"internalType": "string",
					"name": "_cid",
					"type": "string"
				}
			],
			"name": "setRoot",
			"outputs": [],
			"stateMutability": "nonpayable",
			"type": "function"
		},
		{
			"inputs": [
				{
					"internalType": "uint48",
					"name": "newVotingDelay",
					"type": "uint48"
				}
			],
			"name": "setVotingDelay",
			"outputs": [],
			"stateMutability": "nonpayable",
			"type": "function"
		},
		{
			"inputs": [
				{
					"internalType": "uint32",
					"name": "newVotingPeriod",
					"type": "uint32"
				}
			],
			"name": "setVotingPeriod",
			"outputs": [],
			"stateMutability": "nonpayable",
			"type": "function"
		},
		{
			"inputs": [
				{
					"internalType": "uint256",
					"name": "proposalId",
					"type": "uint256"
				}
			],
			"name": "state",
			"outputs": [
				{
					"internalType": "enum IGovernor.ProposalState",
					"name": "",
					"type": "uint8"
				}
			],
			"stateMutability": "view",
			"type": "function"
		},
		{
			"inputs": [
				{
					"internalType": "bytes4",
					"name": "interfaceId",
					"type": "bytes4"
				}
			],
			"name": "supportsInterface",
			"outputs": [
				{
					"internalType": "bool",
					"name": "",
					"type": "bool"
				}
			],
			"stateMutability": "view",
			"type": "function"
		},
		{
			"inputs": [
				{
					"internalType": "uint256",
					"name": "_id",
					"type": "uint256"
				}
			],
			"name": "timeLeft",
			"outputs": [
				{
					"internalType": "uint256",
					"name": "",
					"type": "uint256"
				}
			],
			"stateMutability": "view",
			"type": "function"
		},
		{
			"inputs": [],
			"name": "timelock",
			"outputs": [
				{
					"internalType": "address",
					"name": "",
					"type": "address"
				}
			],
			"stateMutability": "view",
			"type": "function"
		},
		{
			"inputs": [],
			"name": "token",
			"outputs": [
				{
					"internalType": "contract IERC5805",
					"name": "",
					"type": "address"
				}
			],
			"stateMutability": "view",
			"type": "function"
		},
		{
			"inputs": [
				{
					"internalType": "address",
					"name": "_receiver",
					"type": "address"
				},
				{
					"internalType": "address",
					"name": "_token",
					"type": "address"
				},
				{
					"internalType": "uint256",
					"name": "_amount",
					"type": "uint256"
				}
			],
			"name": "transferCrosschainTreasury",
			"outputs": [
				{
					"internalType": "bytes32",
					"name": "",
					"type": "bytes32"
				}
			],
			"stateMutability": "nonpayable",
			"type": "function"
		},
		{
			"inputs": [
				{
					"internalType": "uint256",
					"name": "newQuorumNumerator",
					"type": "uint256"
				}
			],
			"name": "updateQuorumNumerator",
			"outputs": [],
			"stateMutability": "nonpayable",
			"type": "function"
		},
		{
			"inputs": [
				{
					"internalType": "contract TimelockControllerUpgradeable",
					"name": "newTimelock",
					"type": "address"
				}
			],
			"name": "updateTimelock",
			"outputs": [],
			"stateMutability": "nonpayable",
			"type": "function"
		},
		{
			"inputs": [],
			"name": "version",
			"outputs": [
				{
					"internalType": "string",
					"name": "",
					"type": "string"
				}
			],
			"stateMutability": "view",
			"type": "function"
		},
		{
			"inputs": [],
			"name": "votingDelay",
			"outputs": [
				{
					"internalType": "uint256",
					"name": "",
					"type": "uint256"
				}
			],
			"stateMutability": "view",
			"type": "function"
		},
		{
			"inputs": [],
			"name": "votingPeriod",
			"outputs": [
				{
					"internalType": "uint256",
					"name": "",
					"type": "uint256"
				}
			],
			"stateMutability": "view",
			"type": "function"
		},
		{
			"stateMutability": "payable",
			"type": "receive"
		}
	],
	"numDeployments": 6,
	"solcInputHash": "60b0d40accb152e3816fed52aab69c8e",
	"bytecode": "0x6080604052348015600f57600080fd5b506016601a565b60ca565b7ff0c57e16840df040f15088dc2f81fe391c3923bec73e23a9662efc9c229c6a00805468010000000000000000900460ff161560695760405163f92ee8a960e01b815260040160405180910390fd5b80546001600160401b039081161460c75780546001600160401b0319166001600160401b0390811782556040519081527fc7f505b2f371ae2175ee4913f4499e1f2633a7b5936321eed1cdaeb6115181d29060200160405180910390a15b50565b615ea7806100d96000396000f3fe60806040526004361061035d5760003560e01c80637ecebe00116101bd578063c28bc2fa116100f8578063e6bf10031161009b578063e6bf100314610b38578063e9c3619914610b58578063eb9019d414610b78578063ece40cc114610b98578063f23a6e6114610bb8578063f8ce560a14610bd8578063fc0c546a14610bf8578063fcca735414610c0d578063febdecb714610c2d57600080fd5b8063c28bc2fa146109e3578063c59057e4146109f6578063c7f758a814610a16578063cef54abb14610a43578063d33219b414610a89578063dd4e2ba514610a9e578063deaaa7cc14610ae4578063e540d01d14610b1857600080fd5b8063a890c91011610160578063a890c910146108d4578063a8f8a668146108f4578063a9a9529414610914578063ab58fb8e14610934578063b483060d14610954578063b58131b01461098e578063bc197c81146109a3578063c01f9e37146109c357600080fd5b80637ecebe00146107e257806384b0196e146108025780638d5b40671461082a5780638ff262e31461083f57806391ddadf41461085f57806397c3d3341461088b5780639a802a6d1461089f578063a7713a70146108bf57600080fd5b806343859632116102985780635b8d0e0d1161023b5780635b8d0e0d146106cf5780635d1ca631146106ef5780635f398a141461070457806360c4247f14610724578063665a3c1814610744578063684f83ef1461076457806379051887146107825780637b3c71d3146107a25780637d5e81e2146107c257600080fd5b806343859632146105cc578063452115d6146105ec57806346657fe91461060c57806347cb7a681461062a5780634bf5d7e91461064a578063544ffc9c1461065f57806354fd4d501461069a57806356781388146106af57600080fd5b80631a092541116103005780631a092541146104ce5780632656227d146104e35780632d63f693146104f65780632fe3e261146105165780633216e1f61461054a5780633932abb11461056a5780633beaa6ab1461057f5780633e4f49e61461059f57600080fd5b806301ffc9a71461039957806302a251a3146103ce57806306f3f9e6146103f157806306fdde03146104115780630b6700d614610433578063143489d014610448578063150b7a0214610475578063160cbed7146104ae57600080fd5b36610394573061036b610c68565b6001600160a01b03161461039257604051637485328f60e11b815260040160405180910390fd5b005b600080fd5b3480156103a557600080fd5b506103b96103b43660046148d9565b610c77565b60405190151581526020015b60405180910390f35b3480156103da57600080fd5b506103e3610ce4565b6040519081526020016103c5565b3480156103fd57600080fd5b5061039261040c366004614903565b610d06565b34801561041d57600080fd5b50610426610d1a565b6040516103c5919061496c565b34801561043f57600080fd5b50610426610dbb565b34801561045457600080fd5b50610468610463366004614903565b610e4d565b6040516103c5919061497f565b34801561048157600080fd5b50610495610490366004614a6e565b610e76565b6040516001600160e01b031990911681526020016103c5565b3480156104ba57600080fd5b506103e36104c9366004614c4d565b610eb9565b3480156104da57600080fd5b50610426610f98565b6103e36104f1366004614c4d565b610fa7565b34801561050257600080fd5b506103e3610511366004614903565b611128565b34801561052257600080fd5b506103e37f3e83946653575f9a39005e1545185629e92736b7528ab20ca3816f315424a81181565b34801561055657600080fd5b50610392610565366004614ce6565b611157565b34801561057657600080fd5b506103e361119f565b34801561058b57600080fd5b5061042661059a366004614903565b6111bc565b3480156105ab57600080fd5b506105bf6105ba366004614903565b61125e565b6040516103c59190614d64565b3480156105d857600080fd5b506103b96105e7366004614d72565b611269565b3480156105f857600080fd5b506103e3610607366004614c4d565b6112a3565b34801561061857600080fd5b506003546001600160a01b0316610468565b34801561063657600080fd5b506103e3610645366004614903565b61130a565b34801561065657600080fd5b5061042661135b565b34801561066b57600080fd5b5061067f61067a366004614903565b611404565b604080519384526020840192909252908201526060016103c5565b3480156106a657600080fd5b5061042661143f565b3480156106bb57600080fd5b506103e36106ca366004614db3565b61145a565b3480156106db57600080fd5b506103e36106ea366004614e27565b611483565b3480156106fb57600080fd5b506001546103e3565b34801561071057600080fd5b506103e361071f366004614eeb565b6115bb565b34801561073057600080fd5b506103e361073f366004614903565b611612565b34801561075057600080fd5b5061039261075f366004614f72565b611629565b34801561077057600080fd5b506004546001600160a01b0316610468565b34801561078e57600080fd5b5061039261079d366004615033565b611826565b3480156107ae57600080fd5b506103e36107bd366004615050565b611837565b3480156107ce57600080fd5b506103e36107dd3660046150a9565b611889565b3480156107ee57600080fd5b506103e36107fd36600461514d565b611a67565b34801561080e57600080fd5b50610817611a92565b6040516103c597969594939291906151a6565b34801561083657600080fd5b506000546103e3565b34801561084b57600080fd5b506103e361085a366004615216565b611b3b565b34801561086b57600080fd5b50610874611be6565b60405165ffffffffffff90911681526020016103c5565b34801561089757600080fd5b5060646103e3565b3480156108ab57600080fd5b506103e36108ba366004615267565b611c55565b3480156108cb57600080fd5b506103e3611c62565b3480156108e057600080fd5b506103926108ef36600461514d565b611c87565b34801561090057600080fd5b506103e361090f366004614c4d565b611c98565b34801561092057600080fd5b506103b961092f366004614903565b611ca6565b34801561094057600080fd5b506103e361094f366004614903565b611caf565b34801561096057600080fd5b5061067f61096f366004614903565b6000908152600860205260409020805460018201546002909201549092565b34801561099a57600080fd5b506103e3611cde565b3480156109af57600080fd5b506104956109be3660046152bf565b611ce8565b3480156109cf57600080fd5b506103e36109de366004614903565b611d2c565b6103926109f136600461535d565b611d80565b348015610a0257600080fd5b506103e3610a11366004614c4d565b611e00565b348015610a2257600080fd5b50610a36610a31366004614903565b611e3a565b6040516103c591906153a0565b348015610a4f57600080fd5b506103b9610a5e366004614d72565b6000918252600b602090815260408084206001600160a01b0393909316845291905290205460ff1690565b348015610a9557600080fd5b50610468611f5f565b348015610aaa57600080fd5b506040805180820190915260208082527f737570706f72743d627261766f2671756f72756d3d666f722c6162737461696e90820152610426565b348015610af057600080fd5b506103e37ff2aad550cf55f045cb27e9c559f9889fdfb6e6cdaa032301d6ea397784ae51d781565b348015610b2457600080fd5b50610392610b333660046153eb565b611f7a565b348015610b4457600080fd5b506103b9610b53366004614903565b611f8b565b348015610b6457600080fd5b506103e3610b73366004615411565b611fd1565b348015610b8457600080fd5b506103e3610b93366004615452565b6123e4565b348015610ba457600080fd5b50610392610bb3366004614903565b612405565b348015610bc457600080fd5b50610495610bd336600461547e565b612416565b348015610be457600080fd5b506103e3610bf3366004614903565b61245a565b348015610c0457600080fd5b506104686124e5565b348015610c1957600080fd5b50610392610c283660046154da565b6124f0565b348015610c3957600080fd5b506103b9610c48366004615543565b6000918252600a6020908152604080842092845291905290205460ff1690565b6000610c72611f5f565b905090565b60006001600160e01b031982166366defe7760e11b1480610ca857506001600160e01b031982166332a2ad4360e11b145b80610cc357506001600160e01b03198216630271189760e51b145b80610cde57506301ffc9a760e01b6001600160e01b03198316145b92915050565b600080610cef612722565b60010154600160301b900463ffffffff1692915050565b610d0e612745565b610d17816127cd565b50565b60606000610d2661286f565b9050806000018054610d3790615565565b80601f0160208091040260200160405190810160405280929190818152602001828054610d6390615565565b8015610db05780601f10610d8557610100808354040283529160200191610db0565b820191906000526020600020905b815481529060010190602001808311610d9357829003601f168201915b505050505091505090565b606060068054610dca90615565565b80601f0160208091040260200160405190810160405280929190818152602001828054610df690615565565b8015610e435780601f10610e1857610100808354040283529160200191610e43565b820191906000526020600020905b815481529060010190602001808311610e2657829003601f168201915b5050505050905090565b600080610e5861286f565b6000938452600101602052505060409020546001600160a01b031690565b600030610e81610c68565b6001600160a01b031614610ea857604051637485328f60e11b815260040160405180910390fd5b50630a85bd0160e11b949350505050565b600080610ec461286f565b90506000610ed487878787611c98565b9050610ee981610ee46004612893565b6128b6565b506000610ef982898989896128f5565b905065ffffffffffff811615610f7457600082815260018481016020908152604092839020909101805465ffffffffffff191665ffffffffffff85169081179091558251858152918201527f9a2e42fd6722813d69113e7d0079d3d940171428df7373df9c7f7617cfda2892910160405180910390a1610f8d565b604051634844252360e11b815260040160405180910390fd5b509695505050505050565b606060058054610dca90615565565b600080610fb261286f565b90506000610fc287878787611c98565b9050610fe281610fd26005612893565b610fdc6004612893565b176128b6565b5060008181526001830160205260409020805460ff60f01b1916600160f01b1790553061100d610c68565b6001600160a01b0316146110995760005b875181101561109757306001600160a01b03168882815181106110435761104361559f565b60200260200101516001600160a01b03160361108f5761108f86828151811061106e5761106e61559f565b6020026020010151805190602001208460020161290490919063ffffffff16565b60010161101e565b505b6110a68188888888612966565b306110af610c68565b6001600160a01b0316141580156110dd575060028201546001600160801b03808216600160801b9092041614155b156110ea57600060028301555b6040518181527f712ae1383f79ac853f8d882153778e0260ef8f03b504e2866e0593e04d2b291f906020015b60405180910390a19695505050505050565b60008061113361286f565b600093845260010160205250506040902054600160a01b900465ffffffffffff1690565b6004546001600160a01b031633146111825760405163075fd2b160e01b815260040160405180910390fd5b600082815260096020526040902061119a8282615611565b505050565b6000806111aa612722565b6001015465ffffffffffff1692915050565b60008181526009602052604090208054606091906111d990615565565b80601f016020809104026020016040519081016040528092919081815260200182805461120590615565565b80156112525780601f1061122757610100808354040283529160200191611252565b820191906000526020600020905b81548152906001019060200180831161123557829003601f168201915b50505050509050919050565b6000610cde8261297a565b600080611274612ac9565b6000858152602091825260408082206001600160a01b0387168352600301909252205460ff1691505092915050565b6000806112b286868686611c98565b9050336112bf8282612aed565b6112f357604051638fe5d8a960e01b8152600481018390526001600160a01b03821660248201526044015b60405180910390fd5b6112ff87878787612b37565b979650505050505050565b60008060016113188461125e565b600781111561132957611329614d2c565b03610cde5742611337610ce4565b61134085611128565b61134a91906156df565b61135491906156f2565b9392505050565b60606113656124e5565b6001600160a01b0316634bf5d7e96040518163ffffffff1660e01b8152600401600060405180830381865afa9250505080156113c357506040513d6000823e601f3d908101601f191682016040526113c09190810190615705565b60015b6113ff575060408051808201909152601d81527f6d6f64653d626c6f636b6e756d6265722666726f6d3d64656661756c74000000602082015290565b919050565b600080600080611412612ac9565b600086815260209190915260409020805460018201546002909201549095509093509150505b9193909250565b6040805180820190915260018152603160f81b602082015290565b60008033905061147b84828560405180602001604052806000815250612b45565b949350505050565b600080611548876115427f3e83946653575f9a39005e1545185629e92736b7528ab20ca3816f315424a8118c8c8c6114ba8e612b68565b8d8d6040516114ca929190615772565b60405180910390208c805190602001206040516020016115279796959493929190968752602087019590955260ff9390931660408601526001600160a01b03919091166060850152608084015260a083015260c082015260e00190565b60405160208183030381529060405280519060200120612b9b565b85612bc8565b90508061156a57866040516394ab6c0760e01b81526004016112ea919061497f565b6115ae89888a89898080601f0160208091040260200160405190810160405280939291908181526020018383808284376000920191909152508b9250612c3c915050565b9998505050505050505050565b60008033905061160587828888888080601f0160208091040260200160405190810160405280939291908181526020018383808284376000920191909152508a9250612c3c915050565b9150505b95945050505050565b60008061161d612d1e565b90506113548184612d42565b60016116348661125e565b600781111561164557611645614d2c565b146116635760405163815bbb2960e01b815260040160405180910390fd5b600354604051633a94343960e21b81526001600160a01b039091169063ea50d0e490611699908790879087908790600401615782565b602060405180830381865afa1580156116b6573d6000803e3d6000fd5b505050506040513d601f19601f820116820180604052508101906116da91906157e6565b6116f7576040516325b006f960e21b815260040160405180910390fd5b60008282600081811061170c5761170c61559f565b9050602002013560001c905060008383600181811061172d5761172d61559f565b9050602002013560001c905060008484600281811061174e5761174e61559f565b60008b8152600b602090815260408083203384528252909120549102929092013592505060ff161561179357604051631b1796cb60e01b815260040160405180910390fd5b6117b0886000838560405180602001604052806000815250612d91565b50877f18c4c3b353f05da04c02f7d2097af38c1a07f786422406df1ad2bdf7f0c540138284888860008181106117e8576117e861559f565b905060200201356040516118149392919060ff9390931683526020830191909152604082015260600190565b60405180910390a25050505050505050565b61182e612745565b610d1781612e92565b60008033905061187f86828787878080601f016020809104026020016040519081016040528093929190818152602001838380828437600092019190915250612b4592505050565b9695505050505050565b6000336118968184612f08565b6118b5578060405163d9b3955760e01b81526004016112ea919061497f565b60006118bf611cde565b9050801561192c5760006118ee8360016118d7611be6565b6118e19190615808565b65ffffffffffff166123e4565b90508181101561192a57604051636121770b60e11b81526001600160a01b038416600482015260248101829052604481018390526064016112ea565b505b600061193b8888888887612f8e565b600080549192508061194c83615826565b90915550506040805160a081018252828152600080546020808401828152428587019081526001600160a01b038a811660608801908152608088018e8152958752600790945296909420855181559051600182015592516002840155516003830180546001600160a01b0319169190951617909355915190919060048201906119d59082615611565b5090505060006119e482611128565b6004546001549192506001600160a01b03169063da51c3ac90848443611a086124e5565b6040518663ffffffff1660e01b8152600401611a2895949392919061583f565b600060405180830381600087803b158015611a4257600080fd5b505af1158015611a56573d6000803e3d6000fd5b50939b9a5050505050505050505050565b600080611a726131af565b6001600160a01b0390931660009081526020939093525050604090205490565b6000606080600080600060606000611aa86131d3565b8054909150158015611abc57506001810154155b611b005760405162461bcd60e51b81526020600482015260156024820152741152540dcc4c8e88155b9a5b9a5d1a585b1a5e9959605a1b60448201526064016112ea565b611b086131f7565b611b10613214565b60408051600080825260208201909252600f60f81b9c939b5091995046985030975095509350915050565b600080611ba9846115427ff2aad550cf55f045cb27e9c559f9889fdfb6e6cdaa032301d6ea397784ae51d7898989611b728b612b68565b60408051602081019690965285019390935260ff90911660608401526001600160a01b0316608083015260a082015260c001611527565b905080611bcb57836040516394ab6c0760e01b81526004016112ea919061497f565b61187f86858760405180602001604052806000815250612b45565b6000611bf06124e5565b6001600160a01b03166391ddadf46040518163ffffffff1660e01b8152600401602060405180830381865afa925050508015611c49575060408051601f3d908101601f19168201909252611c469181019061586b565b60015b6113ff57610c72613231565b600061147b84848461323c565b600080611c6d612d1e565b9050611c78816132b4565b6001600160d01b031691505090565b611c8f612745565b610d17816132fb565b600061160985858585611e00565b60006001610cde565b600080611cba61286f565b6000938452600190810160205260409093209092015465ffffffffffff1692915050565b6000610c7261336c565b600030611cf3610c68565b6001600160a01b031614611d1a57604051637485328f60e11b815260040160405180910390fd5b5063bc197c8160e01b95945050505050565b600080611d3761286f565b6000848152600182016020526040902054909150611d7190600160d01b810463ffffffff1690600160a01b900465ffffffffffff16615888565b65ffffffffffff169392505050565b611d88612745565b600080856001600160a01b0316858585604051611da6929190615772565b60006040518083038185875af1925050503d8060008114611de3576040519150601f19603f3d011682016040523d82523d6000602084013e611de8565b606091505b5091509150611df7828261337e565b50505050505050565b600084848484604051602001611e19949392919061593d565b60408051601f19818403018152919052805160209091012095945050505050565b611e756040518060a0016040528060008152602001600081526020016000815260200160006001600160a01b03168152602001606081525090565b600082815260076020908152604091829020825160a0810184528154815260018201549281019290925260028101549282019290925260038201546001600160a01b03166060820152600482018054919291608084019190611ed690615565565b80601f0160208091040260200160405190810160405280929190818152602001828054611f0290615565565b8015611f4f5780601f10611f2457610100808354040283529160200191611f4f565b820191906000526020600020905b815481529060010190602001808311611f3257829003601f168201915b5050505050815250509050919050565b600080611f6a61339a565b546001600160a01b031692915050565b611f82612745565b610d17816133be565b600080611f978361297a565b6007811115611fa857611fa8614d2c565b148015610cde575060008281526009602052604090208054611fc990615565565b159392505050565b60048054604051633556380160e11b81526001600160a01b038681169382019390935284831660248201526044810184905260009283921690636aac700290606401602060405180830381865afa158015612030573d6000803e3d6000fd5b505050506040513d601f19601f820116820180604052508101906120549190615988565b6002546040516370a0823160e01b815291925082916001600160a01b03909116906370a082319061208990309060040161497f565b602060405180830381865afa1580156120a6573d6000803e3d6000fd5b505050506040513d601f19601f820116820180604052508101906120ca9190615988565b10156120e957604051631cf2628760e31b815260040160405180910390fd5b6002546004805460405163a9059cbb60e01b81526001600160a01b039384169363a9059cbb9361211f93909116918691016159a1565b6020604051808303816000875af115801561213e573d6000803e3d6000fd5b505050506040513d601f19601f8201168201806040525081019061216291906157e6565b506040516370a0823160e01b815283906001600160a01b038616906370a082319061219190309060040161497f565b602060405180830381865afa1580156121ae573d6000803e3d6000fd5b505050506040513d601f19601f820116820180604052508101906121d29190615988565b10156121f157604051631cf2628760e31b815260040160405180910390fd5b6004805460405163a9059cbb60e01b81526001600160a01b038088169363a9059cbb93612223939216918891016159a1565b6020604051808303816000875af1158015612242573d6000803e3d6000fd5b505050506040513d601f19601f8201168201806040525081019061226691906157e6565b5060048054604051636eb1769f60e11b815285926001600160a01b038881169363dd62ed3e9361229c93309390921691016159ba565b602060405180830381865afa1580156122b9573d6000803e3d6000fd5b505050506040513d601f19601f820116820180604052508101906122dd9190615988565b101561235c576004805460405163095ea7b360e01b81526001600160a01b038088169363095ea7b3936123179392169160001991016159a1565b6020604051808303816000875af1158015612336573d6000803e3d6000fd5b505050506040513d601f19601f8201168201806040525081019061235a91906157e6565b505b60048054604051631a3b149d60e01b81526001600160a01b038881169382019390935286831660248201526044810186905260648101849052911690631a3b149d906084016020604051808303816000875af11580156123c0573d6000803e3d6000fd5b505050506040513d601f19601f820116820180604052508101906116099190615988565b6000611354838361240060408051602081019091526000815290565b61323c565b61240d612745565b610d1781613468565b600030612421610c68565b6001600160a01b03161461244857604051637485328f60e11b815260040160405180910390fd5b5063f23a6e6160e01b95945050505050565b6000610cde6124676124e5565b6001600160a01b0316638e539e8c846040518263ffffffff1660e01b815260040161249491815260200190565b602060405180830381865afa1580156124b1573d6000803e3d6000fd5b505050506040513d601f19601f820116820180604052508101906124d59190615988565b6124de84611612565b60646134b3565b600080611f6a613568565b60006124fa61358c565b805490915060ff600160401b82041615906001600160401b03166000811580156125215750825b90506000826001600160401b0316600114801561253d5750303b155b90508115801561254b575080155b156125695760405163f92ee8a960e01b815260040160405180910390fd5b845467ffffffffffffffff19166001178555831561259357845460ff60401b1916600160401b1785555b6125da6125a089806159d4565b8080601f0160208091040260200160405190810160405280939291908181526020018383808284376000920191909152506135b592505050565b6126076125ed60808a0160608b01615033565b6125fd60a08b0160808c016153eb565b8a60a001356135d7565b61260f6135ea565b61262761262260408a0160208b0161514d565b6135f4565b6126348860c00135613605565b61264c61264760608a0160408b0161514d565b613616565b60e0880135600155600380546001600160a01b0389166001600160a01b031991821617909155600480549091163317905561268b6101008901896159d4565b600591612699919083615a1a565b506126a86101208901896159d4565b6006916126b6919083615a1a565b50600280546001600160a01b0319166001600160a01b038816179055831561271857845460ff60401b19168555604051600181527fc7f505b2f371ae2175ee4913f4499e1f2633a7b5936321eed1cdaeb6115181d29060200160405180910390a15b5050505050505050565b7ed7616c8fe29c6c2fbe1d0c5bc8f2faa4c35b43746e70b24b4d532752affd0090565b600061274f61286f565b90503361275a610c68565b6001600160a01b03161461278357336040516347096e4760e01b81526004016112ea919061497f565b3061278c610c68565b6001600160a01b031614610d1757600080366040516127ac929190615772565b604051809103902090505b806127c483600201613627565b036127b7575050565b60006127d7612d1e565b90506064808311156128065760405163243e544560e01b815260048101849052602481018290526044016112ea565b6000612810611c62565b905061282e61281d611be6565b6128268661368d565b8591906136c5565b505060408051828152602081018690527f0553476bf02ef2726e8ce5ced78d63e26e602e4a2257b1f559418e24b4633997910160405180910390a150505050565b7f7c712897014dbe49c045ef1299aa2d5f9e67e48eea4403efa21f1e0f3ac0cb0090565b60008160078111156128a7576128a7614d2c565b600160ff919091161b92915050565b6000806128c28461125e565b90506000836128d083612893565b1603611354578381846040516331b75e4d60e01b81526004016112ea93929190615ad3565b600061187f86868686866136e0565b81546001600160801b03600160801b820481169181166001830190911603612930576129306041613881565b6001600160801b03808216600090815260018086016020526040909120939093558354919092018216600160801b029116179055565b6129738585858585613893565b5050505050565b60008061298561339a565b905060006129928461392a565b905060058160078111156129a8576129a8614d2c565b146129b4579392505050565b6000848152600183016020526040908190205483549151632c258a9f60e11b81526004810182905290916001600160a01b03169063584b153e90602401602060405180830381865afa158015612a0e573d6000803e3d6000fd5b505050506040513d601f19601f82011682018060405250810190612a3291906157e6565b15612a4257506005949350505050565b8254604051632ab0f52960e01b8152600481018390526001600160a01b0390911690632ab0f52990602401602060405180830381865afa158015612a8a573d6000803e3d6000fd5b505050506040513d601f19601f82011682018060405250810190612aae91906157e6565b15612abe57506007949350505050565b506002949350505050565b7fa1cefa0f43667ef127a258e673c94202a79b656e62899531c4376d87a7f3980090565b600080612af98461125e565b6007811115612b0a57612b0a614d2c565b1480156113545750612b1b83610e4d565b6001600160a01b0316826001600160a01b031614905092915050565b600061160985858585613a5d565b600061160985858585612b6360408051602081019091526000815290565b612c3c565b600080612b736131af565b6001600160a01b03909316600090815260209390935250506040902080546001810190915590565b6000610cde612ba8613b0c565b8360405161190160f01b8152600281019290925260228201526042902090565b6000836001600160a01b03163b600003612c2a57600080612be98585613b16565b5090925090506000816003811115612c0357612c03614d2c565b148015612c215750856001600160a01b0316826001600160a01b0316145b92505050611354565b612c35848484613b63565b9050611354565b6000612c4c86610ee46001612893565b506000612c6286612c5c89611128565b8561323c565b90506000612c738888888588612d91565b90508351600003612cca57866001600160a01b03167fb8e138887d0aa13bab447e82de9d5c1777041ecd21ca36ba824ff1e6c07ddda489888489604051612cbd9493929190615af5565b60405180910390a2611605565b866001600160a01b03167fe2babfbac5889a709b63bb7f598b324e08bc5a4fb9ec647fb3cbc9ec07eb87128988848989604051612d0b959493929190615b1d565b60405180910390a2979650505050505050565b7fe770710421fd2cad75ad828c61aa98f2d77d423a440b67872d0f65554148e00090565b6000806000612d5085613c3e565b9250925050838265ffffffffffff161115612d7d57612d78612d7185613c9a565b8690613ccd565b612d7f565b805b6001600160d01b031695945050505050565b60006001600160a01b038516612e8557600086815260086020526040902060ff8516612dd65783816000016000828254612dcb91906156df565b90915550612e7c9050565b60001960ff861601612df65783816001016000828254612dcb91906156df565b60011960ff861601612e165783816002016000828254612dcb91906156df565b60405162461bcd60e51b815260206004820152603560248201527f476f7665726e6f72566f74696e6753696d706c653a20696e76616c69642076616044820152746c756520666f7220656e756d20566f74655479706560581b60648201526084016112ea565b83915050611609565b61187f8686868686613d74565b6000612e9c612722565b60018101546040805165ffffffffffff928316815291851660208301529192507fc565b045403dc03c2eea82b81a0465edad9e2e7fc4d97e11421c209da93d7a93910160405180910390a1600101805465ffffffffffff191665ffffffffffff92909216919091179055565b80516000906034811015612f20576001915050610cde565b60131981840101516001600160b01b03198116692370726f706f7365723d60b01b14612f5157600192505050610cde565b600080612f6286602a860386613e7d565b915091508115806112ff5750866001600160a01b0316816001600160a01b031614979650505050505050565b600080612f9961286f565b9050612fae8787878780519060200120611c98565b915085518751141580612fc357508451875114155b80612fcd57508651155b1561300257865185518751604051630447b05d60e41b81526004810193909352602483019190915260448201526064016112ea565b6000828152600182016020526040902054600160a01b900465ffffffffffff161561304f57816130318361125e565b6040516331b75e4d60e01b81526112ea929190600090600401615ad3565b600061305961119f565b613061611be6565b65ffffffffffff1661307391906156df565b9050600061307f610ce4565b6000858152600185016020526040902080546001600160a01b0319166001600160a01b0388161781559091506130b483613c9a565b815465ffffffffffff91909116600160a01b0265ffffffffffff60a01b199091161781556130e182613f2c565b815463ffffffff91909116600160d01b0263ffffffff60d01b1990911617815589517f7d84a6263ae0d98d3329bd7b46bb4e8d6f98cd35a7adb45c274c8b7fd5ebd5e090869088908d908d906001600160401b03811115613144576131446149a8565b60405190808252806020026020018201604052801561317757816020015b60608152602001906001900390816131625790505b508d896131848a826156df565b8f60405161319a99989796959493929190615b63565b60405180910390a15050505095945050505050565b7f5ab42ced628888259c08ac98db1eb0cf702fc1501344311d8b100cd1bfe4bb0090565b7fa16a46d94261c7517cc8ff89f61c0ce93598e3c849801011dee649a6a557d10090565b606060006132036131d3565b9050806002018054610d3790615565565b606060006132206131d3565b9050806003018054610d3790615565565b6000610c7243613c9a565b60006132466124e5565b6001600160a01b0316633a46b1a885856040518363ffffffff1660e01b81526004016132739291906159a1565b602060405180830381865afa158015613290573d6000803e3d6000fd5b505050506040513d601f19601f8201168201806040525081019061147b9190615988565b805460009080156132f2576132dc836132ce6001846156f2565b600091825260209091200190565b54600160301b90046001600160d01b0316611354565b60009392505050565b600061330561339a565b80546040519192507f08f74ea46ef7894f65eabfb5e6e695de773a000b47c529ab559178069b22640191613344916001600160a01b03169085906159ba565b60405180910390a180546001600160a01b0319166001600160a01b0392909216919091179055565b600080613377612722565b5492915050565b6060826133935761338e82613f5d565b610cde565b5080610cde565b7f0d5829787b8befdbc6044ef7457d8a95c2a04bc99235349f1a212c063e59d40090565b60006133c8612722565b90508163ffffffff166000036133f45760405163f1cfbf0560e01b8152600060048201526024016112ea565b60018101546040805163ffffffff600160301b9093048316815291841660208301527f7e3f7f0708a84de9203036abaa450dccc85ad5ff52f78c170f3edb55cf5e8828910160405180910390a1600101805463ffffffff909216600160301b0263ffffffff60301b19909216919091179055565b6000613472612722565b805460408051918252602082018590529192507fccb45da8d5717e6c4544694297c4ba5cf151d455c9bb0ed4fc7a38411bc05461910160405180910390a155565b60008060006134c28686613f86565b91509150816000036134e7578381816134dd576134dd615c40565b0492505050611354565b8184116134fe576134fe6003851502601118613881565b6000848688096000868103871696879004966002600389028118808a02820302808a02820302808a02820302808a02820302808a02820302808a02909103029181900381900460010185841190960395909502919093039390930492909217029150509392505050565b7f3ba4977254e415696610a40ebf2258dbfa0ec6a2ff64e84bfe715ff16977cc0090565b6000807ff0c57e16840df040f15088dc2f81fe391c3923bec73e23a9662efc9c229c6a00610cde565b6135bd613fa4565b6135ce816135c961143f565b613fc9565b610d178161400a565b6135df613fa4565b61119a838383614029565b6135f2613fa4565b565b6135fc613fa4565b610d178161404c565b61360d613fa4565b610d1781614080565b61361e613fa4565b610d1781614088565b80546000906001600160801b0380821691600160801b9004168103613650576136506031613881565b6001600160801b038181166000908152600185810160205260408220805492905585546001600160801b0319169301909116919091179092555090565b60006001600160d01b038211156136c1576040516306dfcc6560e41b815260d06004820152602481018390526044016112ea565b5090565b6000806136d3858585614090565b915091505b935093915050565b6000806136eb61339a565b905060008160000160009054906101000a90046001600160a01b03166001600160a01b031663f27a0c926040518163ffffffff1660e01b8152600401602060405180830381865afa158015613744573d6000803e3d6000fd5b505050506040513d601f19601f820116820180604052508101906137689190615988565b90506000613775856141e4565b835460405163b1c5f42760e01b81529192506001600160a01b03169063b1c5f427906137ae908b908b908b906000908890600401615c56565b602060405180830381865afa1580156137cb573d6000803e3d6000fd5b505050506040513d601f19601f820116820180604052508101906137ef9190615988565b60008a815260018501602052604080822092909255845491516308f2a0bb60e41b81526001600160a01b0390921691638f2a0bb09161383b918c918c918c919088908a90600401615ca4565b600060405180830381600087803b15801561385557600080fd5b505af1158015613869573d6000803e3d6000fd5b505050506115ae824261387c91906156df565b613c9a565b634e487b71600052806020526024601cfd5b600061389d61339a565b80549091506001600160a01b031663e38335e53487878760006138bf896141e4565b6040518763ffffffff1660e01b81526004016138df959493929190615c56565b6000604051808303818588803b1580156138f857600080fd5b505af115801561390c573d6000803e3d6000fd5b50505060009788525050600101602052505060408320929092555050565b60008061393561286f565b6000848152600182016020526040902080549192509060ff600160f01b8204811691600160f81b90041681156139715750600795945050505050565b80156139835750600295945050505050565b600061398e87611128565b9050806000036139b457604051636ad0607560e01b8152600481018890526024016112ea565b60006139be611be6565b65ffffffffffff1690508082106139dd57506000979650505050505050565b60006139e889611d2c565b9050818110613a005750600198975050505050505050565b613a09896141f6565b1580613a1b5750613a198961428c565b155b15613a2f5750600398975050505050505050565b613a3889611caf565b600003613a4e5750600498975050505050505050565b50600598975050505050505050565b600080613a6861339a565b90506000613a78878787876142d7565b60008181526001840160205260409020549091508015610f8d57825460405163c4d252f560e01b8152600481018390526001600160a01b039091169063c4d252f590602401600060405180830381600087803b158015613ad757600080fd5b505af1158015613aeb573d6000803e3d6000fd5b50505060008381526001850160205260408120555050915050949350505050565b6000610c72614396565b60008060008351604103613b505760208401516040850151606086015160001a613b42888285856143fa565b955095509550505050613b5c565b50508151600091506002905b9250925092565b6000806000856001600160a01b03168585604051602401613b85929190615cfc565b60408051601f198184030181529181526020820180516001600160e01b0316630b135d3f60e11b17905251613bba9190615d15565b600060405180830381855afa9150503d8060008114613bf5576040519150601f19603f3d011682016040523d82523d6000602084013e613bfa565b606091505b5091509150818015613c0e57506020815110155b801561187f57508051630b135d3f60e11b90613c339083016020908101908401615988565b149695505050505050565b805460009081908190808203613c5f57600080600093509350935050611438565b6000613c70866132ce6001856156f2565b546001955065ffffffffffff81169450600160301b90046001600160d01b03169250611438915050565b600065ffffffffffff8211156136c1576040516306dfcc6560e41b815260306004820152602481018390526044016112ea565b815460009081816005811115613d2c576000613ce8846144bf565b613cf290856156f2565b60008881526020902090915081015465ffffffffffff9081169087161015613d1c57809150613d2a565b613d278160016156df565b92505b505b6000613d3a87878585614613565b90508015613d6757613d51876132ce6001846156f2565b54600160301b90046001600160d01b03166112ff565b5060009695505050505050565b600080613d7f612ac9565b6000888152602082815260408083206001600160a01b038b16845260038101909252909120549192509060ff1615613dcc57866040516371c6af4960e01b81526004016112ea919061497f565b6001600160a01b03871660009081526003820160205260409020805460ff1916600117905560ff8616613e185784816000016000828254613e0d91906156df565b90915550613e719050565b60001960ff871601613e385784816001016000828254613e0d91906156df565b60011960ff871601613e585784816002016000828254613e0d91906156df565b6040516303599be160e11b815260040160405180910390fd5b50929695505050505050565b6000808451831180613e8e57508284115b15613e9e575060009050806136d8565b6000613eab8560016156df565b84118015613ed3575061060f60f31b613ec78787016020015190565b6001600160f01b031916145b90506000613ee48215156002615d31565b613eef9060286156df565b905080613efc87876156f2565b03613f1e57600080613f0f898989614675565b90965094506136d89350505050565b6000809350935050506136d8565b600063ffffffff8211156136c1576040516306dfcc6560e41b815260206004820152602481018390526044016112ea565b805115613f6d5780518082602001fd5b60405163d6bda27560e01b815260040160405180910390fd5b60008060001983850993909202808410938190039390930393915050565b613fac61473b565b6135f257604051631afcd79f60e31b815260040160405180910390fd5b613fd1613fa4565b6000613fdb6131d3565b905060028101613feb8482615611565b5060038101613ffa8382615611565b5060008082556001909101555050565b614012613fa4565b600061401c61286f565b90508061119a8382615611565b614031613fa4565b61403a83612e92565b614043826133be565b61119a81613468565b614054613fa4565b600061405e613568565b80546001600160a01b0319166001600160a01b03939093169290921790915550565b610d0e613fa4565b611c8f613fa4565b8254600090819080156141895760006140ae876132ce6001856156f2565b805490915065ffffffffffff80821691600160301b90046001600160d01b03169088168211156140f157604051632520601d60e01b815260040160405180910390fd5b8765ffffffffffff168265ffffffffffff160361412a57825465ffffffffffff16600160301b6001600160d01b0389160217835561417b565b6040805180820190915265ffffffffffff808a1682526001600160d01b03808a1660208085019182528d54600181018f5560008f81529190912094519151909216600160301b029216919091179101555b94508593506136d892505050565b50506040805180820190915265ffffffffffff80851682526001600160d01b0380851660208085019182528854600181018a5560008a815291822095519251909316600160301b0291909316179201919091559050816136d8565b6001600160601b03193060601b161890565b60008061420283614755565b6000848152600860205260408120600181015460028201549394509092909161422b82846156df565b90508060000361424057509295945050505050565b600061424e610bf389611128565b9050600080600061425e8b611404565b91945092509050838561427183856156df565b61427b91906156df565b10159b9a5050505050505050505050565b600080600061429a84611404565b50600086815260086020526040902080546001820154939550919350916142c182866156df565b6142cb82866156df565b11979650505050505050565b6000806142e261286f565b905060006142f287878787611c98565b9050614340816143026007612893565b61430c6006612893565b6143166002612893565b6001614323600782615d48565b61432e906002615e40565b61433891906156f2565b1818186128b6565b5060008181526001830160205260409081902080546001600160f81b0316600160f81b179055517f789cf55be980739dad1d0699b93b58e806b51c9d96619bfa8fe0a28abaa7b30c906111169083815260200190565b60007f8b73c3c69bb8fe3d512ecc4cf759cc79239f7b179b0ffacaa9a75d522b39400f6143c161479d565b6143c9614804565b46306040516020016143df95949392919061583f565b60405160208183030381529060405280519060200120905090565b600080806fa2a8918ca85bafe22016d0b997e4df60600160ff1b0384111561442b57506000915060039050826144b5565b604080516000808252602082018084528a905260ff891692820192909252606081018790526080810186905260019060a0016020604051602081039080840390855afa15801561447f573d6000803e3d6000fd5b5050604051601f1901519150506001600160a01b0381166144ab575060009250600191508290506144b5565b9250600091508190505b9450945094915050565b6000600182116144cd575090565b816001600160801b82106144e65760809190911c9060401b5b600160401b82106144fc5760409190911c9060201b5b64010000000082106145135760209190911c9060101b5b6201000082106145285760109190911c9060081b5b610100821061453c5760089190911c9060041b5b6010821061454f5760049190911c9060021b5b6004821061455b5760011b5b600302600190811c9081858161457357614573615c40565b048201901c9050600181858161458b5761458b615c40565b048201901c905060018185816145a3576145a3615c40565b048201901c905060018185816145bb576145bb615c40565b048201901c905060018185816145d3576145d3615c40565b048201901c905060018185816145eb576145eb615c40565b048201901c905061460a81858161460457614604615c40565b04821190565b90039392505050565b60005b8183101561466d57600061462a8484614845565b60008781526020902090915065ffffffffffff86169082015465ffffffffffff16111561465957809250614667565b6146648160016156df565b93505b50614616565b509392505050565b60008084816146858660016156df565b851180156146ad575061060f60f31b6146a18388016020015190565b6001600160f01b031916145b905060006146be8215156002615d31565b90506000806146cd838a6156df565b90505b8781101561472a5760006146ef6146ea8784016020015190565b614860565b9050600f8160ff16111561470f57600080975097505050505050506136d8565b61471a601084615d31565b60ff9091160191506001016146d0565b506001999098509650505050505050565b600061474561358c565b54600160401b900460ff16919050565b600080614760612ac9565b600084815260208290526040902060028101546001820154929350909161478791906156df565b614793610bf386611128565b1115949350505050565b6000806147a86131d3565b905060006147b46131f7565b8051909150156147cc57805160209091012092915050565b815480156147db579392505050565b7fc5d2460186f7233c927e7db2dcc703c0e500b653ca82273b7bfad8045d85a470935050505090565b60008061480f6131d3565b9050600061481b613214565b80519091501561483357805160209091012092915050565b600182015480156147db579392505050565b60006148546002848418615e4f565b611354908484166156df565b600060f882901c602f8111801561487a5750603a8160ff16105b1561488857602f1901610cde565b60608160ff1611801561489e575060678160ff16105b156148ac5760561901610cde565b60408160ff161180156148c2575060478160ff16105b156148d05760361901610cde565b5060ff92915050565b6000602082840312156148eb57600080fd5b81356001600160e01b03198116811461135457600080fd5b60006020828403121561491557600080fd5b5035919050565b60005b8381101561493757818101518382015260200161491f565b50506000910152565b6000815180845261495881602086016020860161491c565b601f01601f19169290920160200192915050565b6020815260006113546020830184614940565b6001600160a01b0391909116815260200190565b6001600160a01b0381168114610d1757600080fd5b634e487b7160e01b600052604160045260246000fd5b604051601f8201601f191681016001600160401b03811182821017156149e6576149e66149a8565b604052919050565b60006001600160401b03821115614a0757614a076149a8565b50601f01601f191660200190565b600082601f830112614a2657600080fd5b8135602083016000614a3f614a3a846149ee565b6149be565b9050828152858383011115614a5357600080fd5b82826020830137600092810160200192909252509392505050565b60008060008060808587031215614a8457600080fd5b8435614a8f81614993565b93506020850135614a9f81614993565b92506040850135915060608501356001600160401b03811115614ac157600080fd5b614acd87828801614a15565b91505092959194509250565b60006001600160401b03821115614af257614af26149a8565b5060051b60200190565b600082601f830112614b0d57600080fd5b8135614b1b614a3a82614ad9565b8082825260208201915060208360051b860101925085831115614b3d57600080fd5b602085015b83811015614b63578035614b5581614993565b835260209283019201614b42565b5095945050505050565b600082601f830112614b7e57600080fd5b8135614b8c614a3a82614ad9565b8082825260208201915060208360051b860101925085831115614bae57600080fd5b602085015b83811015614b63578035835260209283019201614bb3565b600082601f830112614bdc57600080fd5b8135614bea614a3a82614ad9565b8082825260208201915060208360051b860101925085831115614c0c57600080fd5b602085015b83811015614b635780356001600160401b03811115614c2f57600080fd5b614c3e886020838a0101614a15565b84525060209283019201614c11565b60008060008060808587031215614c6357600080fd5b84356001600160401b03811115614c7957600080fd5b614c8587828801614afc565b94505060208501356001600160401b03811115614ca157600080fd5b614cad87828801614b6d565b93505060408501356001600160401b03811115614cc957600080fd5b614cd587828801614bcb565b949793965093946060013593505050565b60008060408385031215614cf957600080fd5b8235915060208301356001600160401b03811115614d1657600080fd5b614d2285828601614a15565b9150509250929050565b634e487b7160e01b600052602160045260246000fd5b60088110614d6057634e487b7160e01b600052602160045260246000fd5b9052565b60208101610cde8284614d42565b60008060408385031215614d8557600080fd5b823591506020830135614d9781614993565b809150509250929050565b803560ff811681146113ff57600080fd5b60008060408385031215614dc657600080fd5b82359150614dd660208401614da2565b90509250929050565b60008083601f840112614df157600080fd5b5081356001600160401b03811115614e0857600080fd5b602083019150836020828501011115614e2057600080fd5b9250929050565b600080600080600080600060c0888a031215614e4257600080fd5b87359650614e5260208901614da2565b95506040880135614e6281614993565b945060608801356001600160401b03811115614e7d57600080fd5b614e898a828b01614ddf565b90955093505060808801356001600160401b03811115614ea857600080fd5b614eb48a828b01614a15565b92505060a08801356001600160401b03811115614ed057600080fd5b614edc8a828b01614a15565b91505092959891949750929550565b600080600080600060808688031215614f0357600080fd5b85359450614f1360208701614da2565b935060408601356001600160401b03811115614f2e57600080fd5b614f3a88828901614ddf565b90945092505060608601356001600160401b03811115614f5957600080fd5b614f6588828901614a15565b9150509295509295909350565b600080600080600060608688031215614f8a57600080fd5b8535945060208601356001600160401b03811115614fa757600080fd5b614fb388828901614ddf565b90955093505060408601356001600160401b03811115614fd257600080fd5b8601601f81018813614fe357600080fd5b80356001600160401b03811115614ff957600080fd5b8860208260051b840101111561500e57600080fd5b959894975092955050506020019190565b65ffffffffffff81168114610d1757600080fd5b60006020828403121561504557600080fd5b81356113548161501f565b6000806000806060858703121561506657600080fd5b8435935061507660208601614da2565b925060408501356001600160401b0381111561509157600080fd5b61509d87828801614ddf565b95989497509550505050565b600080600080608085870312156150bf57600080fd5b84356001600160401b038111156150d557600080fd5b6150e187828801614afc565b94505060208501356001600160401b038111156150fd57600080fd5b61510987828801614b6d565b93505060408501356001600160401b0381111561512557600080fd5b61513187828801614bcb565b92505060608501356001600160401b03811115614ac157600080fd5b60006020828403121561515f57600080fd5b813561135481614993565b600081518084526020840193506020830160005b8281101561519c57815186526020958601959091019060010161517e565b5093949350505050565b60ff60f81b8816815260e0602082015260006151c560e0830189614940565b82810360408401526151d78189614940565b606084018890526001600160a01b038716608085015260a0840186905283810360c08501529050615208818561516a565b9a9950505050505050505050565b6000806000806080858703121561522c57600080fd5b8435935061523c60208601614da2565b9250604085013561524c81614993565b915060608501356001600160401b03811115614ac157600080fd5b60008060006060848603121561527c57600080fd5b833561528781614993565b92506020840135915060408401356001600160401b038111156152a957600080fd5b6152b586828701614a15565b9150509250925092565b600080600080600060a086880312156152d757600080fd5b85356152e281614993565b945060208601356152f281614993565b935060408601356001600160401b0381111561530d57600080fd5b61531988828901614b6d565b93505060608601356001600160401b0381111561533557600080fd5b61534188828901614b6d565b92505060808601356001600160401b03811115614f5957600080fd5b6000806000806060858703121561537357600080fd5b843561537e81614993565b93506020850135925060408501356001600160401b0381111561509157600080fd5b6020815281516020820152602082015160408201526040820151606082015260018060a01b0360608301511660808201526000608083015160a08084015261147b60c0840182614940565b6000602082840312156153fd57600080fd5b813563ffffffff8116811461135457600080fd5b60008060006060848603121561542657600080fd5b833561543181614993565b9250602084013561544181614993565b929592945050506040919091013590565b6000806040838503121561546557600080fd5b823561547081614993565b946020939093013593505050565b600080600080600060a0868803121561549657600080fd5b85356154a181614993565b945060208601356154b181614993565b9350604086013592506060860135915060808601356001600160401b03811115614f5957600080fd5b6000806000606084860312156154ef57600080fd5b83356001600160401b0381111561550557600080fd5b8401610140818703121561551857600080fd5b9250602084013561552881614993565b9150604084013561553881614993565b809150509250925092565b6000806040838503121561555657600080fd5b50508035926020909101359150565b600181811c9082168061557957607f821691505b60208210810361559957634e487b7160e01b600052602260045260246000fd5b50919050565b634e487b7160e01b600052603260045260246000fd5b601f82111561119a57806000526020600020601f840160051c810160208510156155dc5750805b601f840160051c820191505b8181101561297357600081556001016155e8565b600019600383901b1c191660019190911b1790565b81516001600160401b0381111561562a5761562a6149a8565b61563e816156388454615565565b846155b5565b6020601f82116001811461566c576000831561565a5750848201515b61566484826155fc565b855550612973565b600084815260208120601f198516915b8281101561569c578785015182556020948501946001909201910161567c565b50848210156156ba5786840151600019600387901b60f8161c191681555b50505050600190811b01905550565b634e487b7160e01b600052601160045260246000fd5b80820180821115610cde57610cde6156c9565b81810381811115610cde57610cde6156c9565b60006020828403121561571757600080fd5b81516001600160401b0381111561572d57600080fd5b8201601f8101841361573e57600080fd5b805161574c614a3a826149ee565b81815285602083850101111561576157600080fd5b61160982602083016020860161491c565b8183823760009101908152919050565b6040815283604082015283856060830137600060608583018101829052601f19601f8701168301838103820160208501529081018490526001600160fb1b038411156157cd57600080fd5b8360051b80866080840137016080019695505050505050565b6000602082840312156157f857600080fd5b8151801515811461135457600080fd5b65ffffffffffff8281168282160390811115610cde57610cde6156c9565b600060018201615838576158386156c9565b5060010190565b9485526020850193909352604084019190915260608301526001600160a01b0316608082015260a00190565b60006020828403121561587d57600080fd5b81516113548161501f565b65ffffffffffff8181168382160190811115610cde57610cde6156c9565b600081518084526020840193506020830160005b8281101561519c5781516001600160a01b03168652602095860195909101906001016158ba565b600082825180855260208501945060208160051b8301016020850160005b8381101561593157601f1985840301885261591b838351614940565b60209889019890935091909101906001016158ff565b50909695505050505050565b60808152600061595060808301876158a6565b8281036020840152615962818761516a565b9050828103604084015261597681866158e1565b91505082606083015295945050505050565b60006020828403121561599a57600080fd5b5051919050565b6001600160a01b03929092168252602082015260400190565b6001600160a01b0392831681529116602082015260400190565b6000808335601e198436030181126159eb57600080fd5b8301803591506001600160401b03821115615a0557600080fd5b602001915036819003821315614e2057600080fd5b6001600160401b03831115615a3157615a316149a8565b615a4583615a3f8354615565565b836155b5565b6000601f841160018114615a735760008515615a615750838201355b615a6b86826155fc565b845550612973565b600083815260209020601f19861690835b82811015615aa45786850135825560209485019460019092019101615a84565b5086821015615ac15760001960f88860031b161c19848701351681555b505060018560011b0183555050505050565b83815260608101615ae76020830185614d42565b826040830152949350505050565b84815260ff8416602082015282604082015260806060820152600061187f6080830184614940565b85815260ff8516602082015283604082015260a060608201526000615b4560a0830185614940565b8281036080840152615b578185614940565b98975050505050505050565b8981526001600160a01b038916602082015261012060408201819052600090615b8e9083018a6158a6565b8281036060840152615ba0818a61516a565b9050828103608084015280885180835260208301915060208160051b84010160208b0160005b83811015615bf857601f19868403018552615be2838351614940565b6020958601959093509190910190600101615bc6565b505085810360a0870152615c0c818b6158e1565b93505050508560c08401528460e0840152828103610100840152615c308185614940565b9c9b505050505050505050505050565b634e487b7160e01b600052601260045260246000fd5b60a081526000615c6960a08301886158a6565b8281036020840152615c7b818861516a565b90508281036040840152615c8f81876158e1565b60608401959095525050608001529392505050565b60c081526000615cb760c08301896158a6565b8281036020840152615cc9818961516a565b90508281036040840152615cdd81886158e1565b60608401969096525050608081019290925260a0909101529392505050565b82815260406020820152600061147b6040830184614940565b60008251615d2781846020870161491c565b9190910192915050565b8082028115828204841417610cde57610cde6156c9565b60ff8181168382160190811115610cde57610cde6156c9565b6001815b60018411156136d857808504811115615d8057615d806156c9565b6001841615615d8e57908102905b60019390931c928002615d65565b600082615dab57506001610cde565b81615db857506000610cde565b8160018114615dce5760028114615dd857615df4565b6001915050610cde565b60ff841115615de957615de96156c9565b50506001821b610cde565b5060208310610133831016604e8410600b8410161715615e17575081810a610cde565b615e246000198484615d61565b8060001904821115615e3857615e386156c9565b029392505050565b600061135460ff841683615d9c565b600082615e6c57634e487b7160e01b600052601260045260246000fd5b50049056fea2646970667358221220cd65b2af1d7d7afdac2c4b4cd88541482e3712d03e1ba27da361dcda2e3195d764736f6c634300081c0033",
	"devdoc": {
		"errors": {
			"CheckpointUnorderedInsertion()": [
				{
					"details": "A value was attempted to be inserted on a past checkpoint."
				}
			],
			"FailedCall()": [
				{
					"details": "A call to an address target failed. The target may have reverted."
				}
			],
			"GovernorAlreadyCastVote(address)": [
				{
					"details": "The vote was already cast."
				}
			],
			"GovernorAlreadyQueuedProposal(uint256)": [
				{
					"details": "The proposal has already been queued."
				}
			],
			"GovernorDisabledDeposit()": [
				{
					"details": "Token deposits are disabled in this contract."
				}
			],
			"GovernorInsufficientProposerVotes(address,uint256,uint256)": [
				{
					"details": "The `proposer` does not have the required votes to create a proposal."
				}
			],
			"GovernorInvalidProposalLength(uint256,uint256,uint256)": [
				{
					"details": "Empty proposal or a mismatch between the parameters length for a proposal call."
				}
			],
			"GovernorInvalidQuorumFraction(uint256,uint256)": [
				{
					"details": "The quorum set is not a valid fraction."
				}
			],
			"GovernorInvalidSignature(address)": [
				{
					"details": "The provided signature is not valid for the expected `voter`. If the `voter` is a contract, the signature is not valid using {IERC1271-isValidSignature}."
				}
			],
			"GovernorInvalidVoteParams()": [
				{
					"details": "The provided params buffer is not supported by the counting module."
				}
			],
			"GovernorInvalidVoteType()": [
				{
					"details": "The vote type used is not valid for the corresponding counting module."
				}
			],
			"GovernorInvalidVotingPeriod(uint256)": [
				{
					"details": "The voting period set is not a valid period."
				}
			],
			"GovernorNonexistentProposal(uint256)": [
				{
					"details": "The `proposalId` doesn't exist."
				}
			],
			"GovernorNotQueuedProposal(uint256)": [
				{
					"details": "The proposal hasn't been queued yet."
				}
			],
			"GovernorOnlyExecutor(address)": [
				{
					"details": "The `account` is not the governance executor."
				}
			],
			"GovernorQueueNotImplemented()": [
				{
					"details": "Queue operation is not implemented for this governor. Execute should be called directly."
				}
			],
			"GovernorRestrictedProposer(address)": [
				{
					"details": "The `proposer` is not allowed to create a proposal."
				}
			],
			"GovernorUnableToCancel(uint256,address)": [
				{
					"details": "The given `account` is unable to cancel the proposal with given `proposalId`."
				}
			],
			"GovernorUnexpectedProposalState(uint256,uint8,bytes32)": [
				{
					"details": "The current state of a proposal is not the required for performing an operation. The `expectedStates` is a bitmap with the bits enabled for each ProposalState enum position counting from right to left. NOTE: If `expectedState` is `bytes32(0)`, the proposal is expected to not be in any state (i.e. not exist). This is the case when a proposal that is expected to be unset is already initiated (the proposal is duplicated). See {Governor-_encodeStateBitmap}."
				}
			],
			"InvalidAccountNonce(address,uint256)": [
				{
					"details": "The nonce used for an `account` is not the expected current nonce."
				}
			],
			"InvalidInitialization()": [
				{
					"details": "The contract is already initialized."
				}
			],
			"NotInitializing()": [
				{
					"details": "The contract is not initializing."
				}
			],
			"SafeCastOverflowedUintDowncast(uint8,uint256)": [
				{
					"details": "Value doesn't fit in an uint of `bits` size."
				}
			]
		},
		"events": {
			"EIP712DomainChanged()": {
				"details": "MAY be emitted to signal that the domain could have changed."
			},
			"Initialized(uint64)": {
				"details": "Triggered when the contract has been initialized or reinitialized."
			},
			"ProposalCanceled(uint256)": {
				"details": "Emitted when a proposal is canceled."
			},
			"ProposalCreated(uint256,address,address[],uint256[],string[],bytes[],uint256,uint256,string)": {
				"details": "Emitted when a proposal is created."
			},
			"ProposalExecuted(uint256)": {
				"details": "Emitted when a proposal is executed."
			},
			"ProposalQueued(uint256,uint256)": {
				"details": "Emitted when a proposal is queued."
			},
			"TimelockChange(address,address)": {
				"details": "Emitted when the timelock controller used for proposal execution is modified."
			},
			"VoteCast(address,uint256,uint8,uint256,string)": {
				"details": "Emitted when a vote is cast without params. Note: `support` values should be seen as buckets. Their interpretation depends on the voting module used."
			},
			"VoteCastWithParams(address,uint256,uint8,uint256,string,bytes)": {
				"details": "Emitted when a vote is cast with params. Note: `support` values should be seen as buckets. Their interpretation depends on the voting module used. `params` are additional encoded parameters. Their interpretation  also depends on the voting module used."
			}
		},
		"kind": "dev",
		"methods": {
			"CLOCK_MODE()": {
				"details": "Machine-readable description of the clock as specified in ERC-6372."
			},
			"COUNTING_MODE()": {
				"details": "See {IGovernor-COUNTING_MODE}."
			},
			"cancel(address[],uint256[],bytes[],bytes32)": {
				"details": "See {IGovernor-cancel}."
			},
			"castVote(uint256,uint8)": {
				"details": "See {IGovernor-castVote}."
			},
			"castVoteBySig(uint256,uint8,address,bytes)": {
				"details": "See {IGovernor-castVoteBySig}."
			},
			"castVoteWithReason(uint256,uint8,string)": {
				"details": "See {IGovernor-castVoteWithReason}."
			},
			"castVoteWithReasonAndParams(uint256,uint8,string,bytes)": {
				"details": "See {IGovernor-castVoteWithReasonAndParams}."
			},
			"castVoteWithReasonAndParamsBySig(uint256,uint8,address,string,bytes,bytes)": {
				"details": "See {IGovernor-castVoteWithReasonAndParamsBySig}."
			},
			"clock()": {
				"details": "Clock (as specified in ERC-6372) is set to match the token's clock. Fallback to block numbers if the token does not implement ERC-6372."
			},
			"eip712Domain()": {
				"details": "returns the fields and values that describe the domain separator used by this contract for EIP-712 signature."
			},
			"execute(address[],uint256[],bytes[],bytes32)": {
				"details": "See {IGovernor-execute}."
			},
			"getProposalId(address[],uint256[],bytes[],bytes32)": {
				"details": "See {IGovernor-getProposalId}."
			},
			"getVotes(address,uint256)": {
				"details": "See {IGovernor-getVotes}."
			},
			"getVotesWithParams(address,uint256,bytes)": {
				"details": "See {IGovernor-getVotesWithParams}."
			},
			"hasVoted(uint256,address)": {
				"details": "See {IGovernor-hasVoted}."
			},
			"hashProposal(address[],uint256[],bytes[],bytes32)": {
				"details": "See {IGovernor-hashProposal}. The proposal id is produced by hashing the ABI encoded `targets` array, the `values` array, the `calldatas` array and the descriptionHash (bytes32 which itself is the keccak256 hash of the description string). This proposal id can be produced from the proposal data which is part of the {ProposalCreated} event. It can even be computed in advance, before the proposal is submitted. Note that the chainId and the governor address are not part of the proposal id computation. Consequently, the same proposal (with same operation and same description) will have the same id if submitted on multiple governors across multiple networks. This also means that in order to execute the same operation twice (on the same governor) the proposer will have to change the description in order to avoid proposal id conflicts."
			},
			"name()": {
				"details": "See {IGovernor-name}."
			},
			"nonces(address)": {
				"details": "Returns the next unused nonce for an address."
			},
			"onERC1155BatchReceived(address,address,uint256[],uint256[],bytes)": {
				"details": "See {IERC1155Receiver-onERC1155BatchReceived}. Receiving tokens is disabled if the governance executor is other than the governor itself (eg. when using with a timelock)."
			},
			"onERC1155Received(address,address,uint256,uint256,bytes)": {
				"details": "See {IERC1155Receiver-onERC1155Received}. Receiving tokens is disabled if the governance executor is other than the governor itself (eg. when using with a timelock)."
			},
			"onERC721Received(address,address,uint256,bytes)": {
				"details": "See {IERC721Receiver-onERC721Received}. Receiving tokens is disabled if the governance executor is other than the governor itself (eg. when using with a timelock)."
			},
			"proposalDeadline(uint256)": {
				"details": "See {IGovernor-proposalDeadline}."
			},
			"proposalEta(uint256)": {
				"details": "See {IGovernor-proposalEta}."
			},
			"proposalProposer(uint256)": {
				"details": "See {IGovernor-proposalProposer}."
			},
			"proposalSnapshot(uint256)": {
				"details": "See {IGovernor-proposalSnapshot}."
			},
			"proposalVotes(uint256)": {
				"details": "Accessor to the internal vote counts."
			},
			"queue(address[],uint256[],bytes[],bytes32)": {
				"details": "See {IGovernor-queue}."
			},
			"quorum(uint256)": {
				"details": "Returns the quorum for a timepoint, in terms of number of votes: `supply * numerator / denominator`."
			},
			"quorumDenominator()": {
				"details": "Returns the quorum denominator. Defaults to 100, but may be overridden."
			},
			"quorumNumerator()": {
				"details": "Returns the current quorum numerator. See {quorumDenominator}."
			},
			"quorumNumerator(uint256)": {
				"details": "Returns the quorum numerator at a specific timepoint. See {quorumDenominator}."
			},
			"relay(address,uint256,bytes)": {
				"details": "Relays a transaction or function call to an arbitrary target. In cases where the governance executor is some contract other than the governor itself, like when using a timelock, this function can be invoked in a governance proposal to recover tokens or Ether that was sent to the governor contract by mistake. Note that if the executor is simply the governor itself, use of `relay` is redundant."
			},
			"setProposalThreshold(uint256)": {
				"details": "Update the proposal threshold. This operation can only be performed through a governance proposal. Emits a {ProposalThresholdSet} event."
			},
			"setVotingDelay(uint48)": {
				"details": "Update the voting delay. This operation can only be performed through a governance proposal. Emits a {VotingDelaySet} event."
			},
			"setVotingPeriod(uint32)": {
				"details": "Update the voting period. This operation can only be performed through a governance proposal. Emits a {VotingPeriodSet} event."
			},
			"supportsInterface(bytes4)": {
				"details": "See {IERC165-supportsInterface}."
			},
			"timelock()": {
				"details": "Public accessor to check the address of the timelock"
			},
			"token()": {
				"details": "The token that voting power is sourced from."
			},
			"updateQuorumNumerator(uint256)": {
				"details": "Changes the quorum numerator. Emits a {QuorumNumeratorUpdated} event. Requirements: - Must be called through a governance proposal. - New numerator must be smaller or equal to the denominator."
			},
			"updateTimelock(address)": {
				"details": "Public endpoint to update the underlying timelock instance. Restricted to the timelock itself, so updates must be proposed, scheduled, and executed through governance proposals. CAUTION: It is not recommended to change the timelock while there are other queued governance proposals."
			},
			"version()": {
				"details": "See {IGovernor-version}."
			},
			"votingDelay()": {
				"details": "See {IGovernor-votingDelay}."
			},
			"votingPeriod()": {
				"details": "See {IGovernor-votingPeriod}."
			}
		},
		"version": 1
	},
	"userdoc": {
		"errors": {
			"DAO_NOT_FOUND(uint256)": [
				{
					"notice": "====================== ======= ZK DAO ======= ======================"
				}
			],
			"INSUFFICIENT_ALLOWANCE()": [
				{
					"notice": "====================== ====== Generic ======= ======================"
				}
			],
			"INVALID_VOTE_TYPE()": [
				{
					"notice": "====================== ====== Governor ====== ======================"
				}
			]
		},
		"events": {
			"ZKVoteCast(uint256,uint8,uint256,bytes32)": {
				"notice": "====================== ======= Events ======= ======================"
			}
		},
		"kind": "user",
		"methods": {
			"castZKVote(uint256,bytes,bytes32[])": {
				"notice": "================================= == External / Public Functions == ================================="
			},
			"constructor": {
				"notice": "========================= ====== Constructor ====== ========================="
			},
			"getProposalCounter()": {
				"notice": "========================== ===== View Functions ===== =========================="
			},
			"initialize((string,address,address,uint48,uint32,uint256,uint256,uint256,string,string),address,address)": {
				"notice": "========================= ====== Initializer ====== ========================="
			}
		},
		"version": 1
	},
	"storageLayout": {
		"storage": [
			{
				"astId": 30637,
				"contract": "contracts/governance/Governor.sol:Governor",
				"label": "proposalCounter",
				"offset": 0,
				"slot": "0",
				"type": "t_uint256"
			},
			{
				"astId": 30639,
				"contract": "contracts/governance/Governor.sol:Governor",
				"label": "id",
				"offset": 0,
				"slot": "1",
				"type": "t_uint256"
			},
			{
				"astId": 30641,
				"contract": "contracts/governance/Governor.sol:Governor",
				"label": "linkToken",
				"offset": 0,
				"slot": "2",
				"type": "t_address"
			},
			{
				"astId": 30644,
				"contract": "contracts/governance/Governor.sol:Governor",
				"label": "verifier",
				"offset": 0,
				"slot": "3",
				"type": "t_contract(IVerifier)25966"
			},
			{
				"astId": 30647,
				"contract": "contracts/governance/Governor.sol:Governor",
				"label": "zkDao",
				"offset": 0,
				"slot": "4",
				"type": "t_contract(IZKDAO)29233"
			},
			{
				"astId": 30649,
				"contract": "contracts/governance/Governor.sol:Governor",
				"label": "description",
				"offset": 0,
				"slot": "5",
				"type": "t_string_storage"
			},
			{
				"astId": 30651,
				"contract": "contracts/governance/Governor.sol:Governor",
				"label": "logo",
				"offset": 0,
				"slot": "6",
				"type": "t_string_storage"
			},
			{
				"astId": 30656,
				"contract": "contracts/governance/Governor.sol:Governor",
				"label": "proposals",
				"offset": 0,
				"slot": "7",
				"type": "t_mapping(t_uint256,t_struct(ProposalStorage)30607_storage)"
			},
			{
				"astId": 30661,
				"contract": "contracts/governance/Governor.sol:Governor",
				"label": "zkVotes",
				"offset": 0,
				"slot": "8",
				"type": "t_mapping(t_uint256,t_struct(ZKProposalVote)30596_storage)"
			},
			{
				"astId": 30665,
				"contract": "contracts/governance/Governor.sol:Governor",
				"label": "cids",
				"offset": 0,
				"slot": "9",
				"type": "t_mapping(t_uint256,t_string_storage)"
			},
			{
				"astId": 30671,
				"contract": "contracts/governance/Governor.sol:Governor",
				"label": "nullifierUsed",
				"offset": 0,
				"slot": "10",
				"type": "t_mapping(t_uint256,t_mapping(t_uint256,t_bool))"
			},
			{
				"astId": 30677,
				"contract": "contracts/governance/Governor.sol:Governor",
				"label": "nullifierUsedByAddress",
				"offset": 0,
				"slot": "11",
				"type": "t_mapping(t_uint256,t_mapping(t_address,t_bool))"
			}
		],
		"types": {
			"t_address": {
				"encoding": "inplace",
				"label": "address",
				"numberOfBytes": "20"
			},
			"t_bool": {
				"encoding": "inplace",
				"label": "bool",
				"numberOfBytes": "1"
			},
			"t_contract(IVerifier)25966": {
				"encoding": "inplace",
				"label": "contract IVerifier",
				"numberOfBytes": "20"
			},
			"t_contract(IZKDAO)29233": {
				"encoding": "inplace",
				"label": "contract IZKDAO",
				"numberOfBytes": "20"
			},
			"t_mapping(t_address,t_bool)": {
				"encoding": "mapping",
				"key": "t_address",
				"label": "mapping(address => bool)",
				"numberOfBytes": "32",
				"value": "t_bool"
			},
			"t_mapping(t_uint256,t_bool)": {
				"encoding": "mapping",
				"key": "t_uint256",
				"label": "mapping(uint256 => bool)",
				"numberOfBytes": "32",
				"value": "t_bool"
			},
			"t_mapping(t_uint256,t_mapping(t_address,t_bool))": {
				"encoding": "mapping",
				"key": "t_uint256",
				"label": "mapping(uint256 => mapping(address => bool))",
				"numberOfBytes": "32",
				"value": "t_mapping(t_address,t_bool)"
			},
			"t_mapping(t_uint256,t_mapping(t_uint256,t_bool))": {
				"encoding": "mapping",
				"key": "t_uint256",
				"label": "mapping(uint256 => mapping(uint256 => bool))",
				"numberOfBytes": "32",
				"value": "t_mapping(t_uint256,t_bool)"
			},
			"t_mapping(t_uint256,t_string_storage)": {
				"encoding": "mapping",
				"key": "t_uint256",
				"label": "mapping(uint256 => string)",
				"numberOfBytes": "32",
				"value": "t_string_storage"
			},
			"t_mapping(t_uint256,t_struct(ProposalStorage)30607_storage)": {
				"encoding": "mapping",
				"key": "t_uint256",
				"label": "mapping(uint256 => struct Governor.ProposalStorage)",
				"numberOfBytes": "32",
				"value": "t_struct(ProposalStorage)30607_storage"
			},
			"t_mapping(t_uint256,t_struct(ZKProposalVote)30596_storage)": {
				"encoding": "mapping",
				"key": "t_uint256",
				"label": "mapping(uint256 => struct Governor.ZKProposalVote)",
				"numberOfBytes": "32",
				"value": "t_struct(ZKProposalVote)30596_storage"
			},
			"t_string_storage": {
				"encoding": "bytes",
				"label": "string",
				"numberOfBytes": "32"
			},
			"t_struct(ProposalStorage)30607_storage": {
				"encoding": "inplace",
				"label": "struct Governor.ProposalStorage",
				"members": [
					{
						"astId": 30598,
						"contract": "contracts/governance/Governor.sol:Governor",
						"label": "id",
						"offset": 0,
						"slot": "0",
						"type": "t_uint256"
					},
					{
						"astId": 30600,
						"contract": "contracts/governance/Governor.sol:Governor",
						"label": "proposalNumber",
						"offset": 0,
						"slot": "1",
						"type": "t_uint256"
					},
					{
						"astId": 30602,
						"contract": "contracts/governance/Governor.sol:Governor",
						"label": "createdAt",
						"offset": 0,
						"slot": "2",
						"type": "t_uint256"
					},
					{
						"astId": 30604,
						"contract": "contracts/governance/Governor.sol:Governor",
						"label": "proposer",
						"offset": 0,
						"slot": "3",
						"type": "t_address"
					},
					{
						"astId": 30606,
						"contract": "contracts/governance/Governor.sol:Governor",
						"label": "description",
						"offset": 0,
						"slot": "4",
						"type": "t_string_storage"
					}
				],
				"numberOfBytes": "160"
			},
			"t_struct(ZKProposalVote)30596_storage": {
				"encoding": "inplace",
				"label": "struct Governor.ZKProposalVote",
				"members": [
					{
						"astId": 30591,
						"contract": "contracts/governance/Governor.sol:Governor",
						"label": "againstVotes",
						"offset": 0,
						"slot": "0",
						"type": "t_uint256"
					},
					{
						"astId": 30593,
						"contract": "contracts/governance/Governor.sol:Governor",
						"label": "forVotes",
						"offset": 0,
						"slot": "1",
						"type": "t_uint256"
					},
					{
						"astId": 30595,
						"contract": "contracts/governance/Governor.sol:Governor",
						"label": "abstainVotes",
						"offset": 0,
						"slot": "2",
						"type": "t_uint256"
					}
				],
				"numberOfBytes": "96"
			},
			"t_uint256": {
				"encoding": "inplace",
				"label": "uint256",
				"numberOfBytes": "32"
			}
		}
	}
}