{
  "address": "0x93aa0D8927cb8c98F70AdD3C3658a8c61442b344",
  "abi": [
    {
      "inputs": [],
      "stateMutability": "nonpayable",
      "type": "constructor"
    },
    {
      "inputs": [],
      "name": "CheckpointUnorderedInsertion",
      "type": "error"
    },
    {
      "inputs": [
        {
          "internalType": "uint256",
          "name": "daoId",
          "type": "uint256"
        }
      ],
      "name": "DAONotFound",
      "type": "error"
    },
    {
      "inputs": [
        {
          "internalType": "uint256",
          "name": "daoId",
          "type": "uint256"
        }
      ],
      "name": "DAO_NOT_FOUND",
      "type": "error"
    },
    {
      "inputs": [],
      "name": "DOUBLE_VOTE",
      "type": "error"
    },
    {
      "inputs": [],
      "name": "ECDSAInvalidSignature",
      "type": "error"
    },
    {
      "inputs": [
        {
          "internalType": "uint256",
          "name": "length",
          "type": "uint256"
        }
      ],
      "name": "ECDSAInvalidSignatureLength",
      "type": "error"
    },
    {
      "inputs": [
        {
          "internalType": "bytes32",
          "name": "s",
          "type": "bytes32"
        }
      ],
      "name": "ECDSAInvalidSignatureS",
      "type": "error"
    },
    {
      "inputs": [
        {
          "internalType": "uint256",
          "name": "increasedSupply",
          "type": "uint256"
        },
        {
          "internalType": "uint256",
          "name": "cap",
          "type": "uint256"
        }
      ],
      "name": "ERC20ExceededSafeSupply",
      "type": "error"
    },
    {
      "inputs": [
        {
          "internalType": "address",
          "name": "spender",
          "type": "address"
        },
        {
          "internalType": "uint256",
          "name": "allowance",
          "type": "uint256"
        },
        {
          "internalType": "uint256",
          "name": "needed",
          "type": "uint256"
        }
      ],
      "name": "ERC20InsufficientAllowance",
      "type": "error"
    },
    {
      "inputs": [
        {
          "internalType": "address",
          "name": "sender",
          "type": "address"
        },
        {
          "internalType": "uint256",
          "name": "balance",
          "type": "uint256"
        },
        {
          "internalType": "uint256",
          "name": "needed",
          "type": "uint256"
        }
      ],
      "name": "ERC20InsufficientBalance",
      "type": "error"
    },
    {
      "inputs": [
        {
          "internalType": "address",
          "name": "approver",
          "type": "address"
        }
      ],
      "name": "ERC20InvalidApprover",
      "type": "error"
    },
    {
      "inputs": [
        {
          "internalType": "address",
          "name": "receiver",
          "type": "address"
        }
      ],
      "name": "ERC20InvalidReceiver",
      "type": "error"
    },
    {
      "inputs": [
        {
          "internalType": "address",
          "name": "sender",
          "type": "address"
        }
      ],
      "name": "ERC20InvalidSender",
      "type": "error"
    },
    {
      "inputs": [
        {
          "internalType": "address",
          "name": "spender",
          "type": "address"
        }
      ],
      "name": "ERC20InvalidSpender",
      "type": "error"
    },
    {
      "inputs": [
        {
          "internalType": "uint256",
          "name": "deadline",
          "type": "uint256"
        }
      ],
      "name": "ERC2612ExpiredSignature",
      "type": "error"
    },
    {
      "inputs": [
        {
          "internalType": "address",
          "name": "signer",
          "type": "address"
        },
        {
          "internalType": "address",
          "name": "owner",
          "type": "address"
        }
      ],
      "name": "ERC2612InvalidSigner",
      "type": "error"
    },
    {
      "inputs": [
        {
          "internalType": "uint256",
          "name": "timepoint",
          "type": "uint256"
        },
        {
          "internalType": "uint48",
          "name": "clock",
          "type": "uint48"
        }
      ],
      "name": "ERC5805FutureLookup",
      "type": "error"
    },
    {
      "inputs": [],
      "name": "ERC6372InconsistentClock",
      "type": "error"
    },
    {
      "inputs": [],
      "name": "INSUFFICIENT_ALLOWANCE",
      "type": "error"
    },
    {
      "inputs": [],
      "name": "INSUFFICIENT_FUNDS",
      "type": "error"
    },
    {
      "inputs": [],
      "name": "INVALID_NULLIFIER",
      "type": "error"
    },
    {
      "inputs": [],
      "name": "INVALID_PROPOSAL_ID",
      "type": "error"
    },
    {
      "inputs": [],
      "name": "INVALID_VOTE_TYPE",
      "type": "error"
    },
    {
      "inputs": [
        {
          "internalType": "address",
          "name": "account",
          "type": "address"
        },
        {
          "internalType": "uint256",
          "name": "currentNonce",
          "type": "uint256"
        }
      ],
      "name": "InvalidAccountNonce",
      "type": "error"
    },
    {
      "inputs": [],
      "name": "InvalidArrayLength",
      "type": "error"
    },
    {
      "inputs": [],
      "name": "InvalidInitialization",
      "type": "error"
    },
    {
      "inputs": [],
      "name": "InvalidParameters",
      "type": "error"
    },
    {
      "inputs": [],
      "name": "MISMATCH",
      "type": "error"
    },
    {
      "inputs": [],
      "name": "NotInitializing",
      "type": "error"
    },
    {
      "inputs": [
        {
          "internalType": "address",
          "name": "owner",
          "type": "address"
        }
      ],
      "name": "OwnableInvalidOwner",
      "type": "error"
    },
    {
      "inputs": [
        {
          "internalType": "address",
          "name": "account",
          "type": "address"
        }
      ],
      "name": "OwnableUnauthorizedAccount",
      "type": "error"
    },
    {
      "inputs": [
        {
          "internalType": "uint8",
          "name": "bits",
          "type": "uint8"
        },
        {
          "internalType": "uint256",
          "name": "value",
          "type": "uint256"
        }
      ],
      "name": "SafeCastOverflowedUintDowncast",
      "type": "error"
    },
    {
      "inputs": [],
      "name": "UNAUTHORIZED",
      "type": "error"
    },
    {
      "inputs": [
        {
          "internalType": "bytes32",
          "name": "requestId",
          "type": "bytes32"
        }
      ],
      "name": "UNEXPECTED_REQUEST_ID",
      "type": "error"
    },
    {
      "inputs": [],
      "name": "UnauthorizedCaller",
      "type": "error"
    },
    {
      "inputs": [],
      "name": "VOTING_CLOSED",
      "type": "error"
    },
    {
      "inputs": [
        {
          "internalType": "uint256",
          "name": "expiry",
          "type": "uint256"
        }
      ],
      "name": "VotesExpiredSignature",
      "type": "error"
    },
    {
      "inputs": [],
      "name": "ZK_PROOF_FAILED",
      "type": "error"
    },
    {
      "anonymous": false,
      "inputs": [
        {
          "indexed": true,
          "internalType": "address",
          "name": "owner",
          "type": "address"
        },
        {
          "indexed": true,
          "internalType": "address",
          "name": "spender",
          "type": "address"
        },
        {
          "indexed": false,
          "internalType": "uint256",
          "name": "value",
          "type": "uint256"
        }
      ],
      "name": "Approval",
      "type": "event"
    },
    {
      "anonymous": false,
      "inputs": [
        {
          "indexed": false,
          "internalType": "address[]",
          "name": "recipients",
          "type": "address[]"
        },
        {
          "indexed": false,
          "internalType": "uint256[]",
          "name": "amounts",
          "type": "uint256[]"
        }
      ],
      "name": "BatchMinted",
      "type": "event"
    },
    {
      "anonymous": false,
      "inputs": [
        {
          "indexed": true,
          "internalType": "address",
          "name": "delegator",
          "type": "address"
        },
        {
          "indexed": true,
          "internalType": "address",
          "name": "fromDelegate",
          "type": "address"
        },
        {
          "indexed": true,
          "internalType": "address",
          "name": "toDelegate",
          "type": "address"
        }
      ],
      "name": "DelegateChanged",
      "type": "event"
    },
    {
      "anonymous": false,
      "inputs": [
        {
          "indexed": true,
          "internalType": "address",
          "name": "delegate",
          "type": "address"
        },
        {
          "indexed": false,
          "internalType": "uint256",
          "name": "previousVotes",
          "type": "uint256"
        },
        {
          "indexed": false,
          "internalType": "uint256",
          "name": "newVotes",
          "type": "uint256"
        }
      ],
      "name": "DelegateVotesChanged",
      "type": "event"
    },
    {
      "anonymous": false,
      "inputs": [],
      "name": "EIP712DomainChanged",
      "type": "event"
    },
    {
      "anonymous": false,
      "inputs": [
        {
          "indexed": false,
          "internalType": "uint64",
          "name": "version",
          "type": "uint64"
        }
      ],
      "name": "Initialized",
      "type": "event"
    },
    {
      "anonymous": false,
      "inputs": [
        {
          "indexed": true,
          "internalType": "address",
          "name": "previousOwner",
          "type": "address"
        },
        {
          "indexed": true,
          "internalType": "address",
          "name": "newOwner",
          "type": "address"
        }
      ],
      "name": "OwnershipTransferred",
      "type": "event"
    },
    {
      "anonymous": false,
      "inputs": [
        {
          "indexed": true,
          "internalType": "address",
          "name": "from",
          "type": "address"
        },
        {
          "indexed": true,
          "internalType": "address",
          "name": "to",
          "type": "address"
        },
        {
          "indexed": false,
          "internalType": "uint256",
          "name": "value",
          "type": "uint256"
        }
      ],
      "name": "Transfer",
      "type": "event"
    },
    {
      "inputs": [],
      "name": "CLOCK_MODE",
      "outputs": [
        {
          "internalType": "string",
          "name": "",
          "type": "string"
        }
      ],
      "stateMutability": "pure",
      "type": "function"
    },
    {
      "inputs": [],
      "name": "DOMAIN_SEPARATOR",
      "outputs": [
        {
          "internalType": "bytes32",
          "name": "",
          "type": "bytes32"
        }
      ],
      "stateMutability": "view",
      "type": "function"
    },
    {
      "inputs": [
        {
          "internalType": "address",
          "name": "owner",
          "type": "address"
        },
        {
          "internalType": "address",
          "name": "spender",
          "type": "address"
        }
      ],
      "name": "allowance",
      "outputs": [
        {
          "internalType": "uint256",
          "name": "",
          "type": "uint256"
        }
      ],
      "stateMutability": "view",
      "type": "function"
    },
    {
      "inputs": [
        {
          "internalType": "address",
          "name": "spender",
          "type": "address"
        },
        {
          "internalType": "uint256",
          "name": "value",
          "type": "uint256"
        }
      ],
      "name": "approve",
      "outputs": [
        {
          "internalType": "bool",
          "name": "",
          "type": "bool"
        }
      ],
      "stateMutability": "nonpayable",
      "type": "function"
    },
    {
      "inputs": [
        {
          "internalType": "address",
          "name": "account",
          "type": "address"
        }
      ],
      "name": "balanceOf",
      "outputs": [
        {
          "internalType": "uint256",
          "name": "",
          "type": "uint256"
        }
      ],
      "stateMutability": "view",
      "type": "function"
    },
    {
      "inputs": [
        {
          "internalType": "address",
          "name": "account",
          "type": "address"
        },
        {
          "internalType": "uint32",
          "name": "pos",
          "type": "uint32"
        }
      ],
      "name": "checkpoints",
      "outputs": [
        {
          "components": [
            {
              "internalType": "uint48",
              "name": "_key",
              "type": "uint48"
            },
            {
              "internalType": "uint208",
              "name": "_value",
              "type": "uint208"
            }
          ],
          "internalType": "struct Checkpoints.Checkpoint208",
          "name": "",
          "type": "tuple"
        }
      ],
      "stateMutability": "view",
      "type": "function"
    },
    {
      "inputs": [],
      "name": "clock",
      "outputs": [
        {
          "internalType": "uint48",
          "name": "",
          "type": "uint48"
        }
      ],
      "stateMutability": "view",
      "type": "function"
    },
    {
      "inputs": [],
      "name": "decimals",
      "outputs": [
        {
          "internalType": "uint8",
          "name": "",
          "type": "uint8"
        }
      ],
      "stateMutability": "view",
      "type": "function"
    },
    {
      "inputs": [
        {
          "internalType": "address",
          "name": "delegatee",
          "type": "address"
        }
      ],
      "name": "delegate",
      "outputs": [],
      "stateMutability": "nonpayable",
      "type": "function"
    },
    {
      "inputs": [
        {
          "internalType": "address",
          "name": "delegatee",
          "type": "address"
        },
        {
          "internalType": "uint256",
          "name": "nonce",
          "type": "uint256"
        },
        {
          "internalType": "uint256",
          "name": "expiry",
          "type": "uint256"
        },
        {
          "internalType": "uint8",
          "name": "v",
          "type": "uint8"
        },
        {
          "internalType": "bytes32",
          "name": "r",
          "type": "bytes32"
        },
        {
          "internalType": "bytes32",
          "name": "s",
          "type": "bytes32"
        }
      ],
      "name": "delegateBySig",
      "outputs": [],
      "stateMutability": "nonpayable",
      "type": "function"
    },
    {
      "inputs": [
        {
          "internalType": "address",
          "name": "account",
          "type": "address"
        }
      ],
      "name": "delegates",
      "outputs": [
        {
          "internalType": "address",
          "name": "",
          "type": "address"
        }
      ],
      "stateMutability": "view",
      "type": "function"
    },
    {
      "inputs": [],
      "name": "eip712Domain",
      "outputs": [
        {
          "internalType": "bytes1",
          "name": "fields",
          "type": "bytes1"
        },
        {
          "internalType": "string",
          "name": "name",
          "type": "string"
        },
        {
          "internalType": "string",
          "name": "version",
          "type": "string"
        },
        {
          "internalType": "uint256",
          "name": "chainId",
          "type": "uint256"
        },
        {
          "internalType": "address",
          "name": "verifyingContract",
          "type": "address"
        },
        {
          "internalType": "bytes32",
          "name": "salt",
          "type": "bytes32"
        },
        {
          "internalType": "uint256[]",
          "name": "extensions",
          "type": "uint256[]"
        }
      ],
      "stateMutability": "view",
      "type": "function"
    },
    {
      "inputs": [
        {
          "internalType": "uint256",
          "name": "timepoint",
          "type": "uint256"
        }
      ],
      "name": "getPastTotalSupply",
      "outputs": [
        {
          "internalType": "uint256",
          "name": "",
          "type": "uint256"
        }
      ],
      "stateMutability": "view",
      "type": "function"
    },
    {
      "inputs": [
        {
          "internalType": "address",
          "name": "account",
          "type": "address"
        },
        {
          "internalType": "uint256",
          "name": "timepoint",
          "type": "uint256"
        }
      ],
      "name": "getPastVotes",
      "outputs": [
        {
          "internalType": "uint256",
          "name": "",
          "type": "uint256"
        }
      ],
      "stateMutability": "view",
      "type": "function"
    },
    {
      "inputs": [
        {
          "internalType": "address",
          "name": "account",
          "type": "address"
        }
      ],
      "name": "getVotes",
      "outputs": [
        {
          "internalType": "uint256",
          "name": "",
          "type": "uint256"
        }
      ],
      "stateMutability": "view",
      "type": "function"
    },
    {
      "inputs": [
        {
          "internalType": "string",
          "name": "_name",
          "type": "string"
        },
        {
          "internalType": "string",
          "name": "_symbol",
          "type": "string"
        },
        {
          "internalType": "address",
          "name": "_owner",
          "type": "address"
        }
      ],
      "name": "initialize",
      "outputs": [],
      "stateMutability": "nonpayable",
      "type": "function"
    },
    {
      "inputs": [
        {
          "internalType": "address",
          "name": "to",
          "type": "address"
        },
        {
          "internalType": "uint256",
          "name": "amount",
          "type": "uint256"
        }
      ],
      "name": "mint",
      "outputs": [],
      "stateMutability": "nonpayable",
      "type": "function"
    },
    {
      "inputs": [
        {
          "internalType": "address[]",
          "name": "to",
          "type": "address[]"
        },
        {
          "internalType": "uint256[]",
          "name": "amounts",
          "type": "uint256[]"
        }
      ],
      "name": "mintBatch",
      "outputs": [],
      "stateMutability": "nonpayable",
      "type": "function"
    },
    {
      "inputs": [],
      "name": "name",
      "outputs": [
        {
          "internalType": "string",
          "name": "",
          "type": "string"
        }
      ],
      "stateMutability": "view",
      "type": "function"
    },
    {
      "inputs": [
        {
          "internalType": "address",
          "name": "owner",
          "type": "address"
        }
      ],
      "name": "nonces",
      "outputs": [
        {
          "internalType": "uint256",
          "name": "",
          "type": "uint256"
        }
      ],
      "stateMutability": "view",
      "type": "function"
    },
    {
      "inputs": [
        {
          "internalType": "address",
          "name": "account",
          "type": "address"
        }
      ],
      "name": "numCheckpoints",
      "outputs": [
        {
          "internalType": "uint32",
          "name": "",
          "type": "uint32"
        }
      ],
      "stateMutability": "view",
      "type": "function"
    },
    {
      "inputs": [],
      "name": "owner",
      "outputs": [
        {
          "internalType": "address",
          "name": "",
          "type": "address"
        }
      ],
      "stateMutability": "view",
      "type": "function"
    },
    {
      "inputs": [
        {
          "internalType": "address",
          "name": "owner",
          "type": "address"
        },
        {
          "internalType": "address",
          "name": "spender",
          "type": "address"
        },
        {
          "internalType": "uint256",
          "name": "value",
          "type": "uint256"
        },
        {
          "internalType": "uint256",
          "name": "deadline",
          "type": "uint256"
        },
        {
          "internalType": "uint8",
          "name": "v",
          "type": "uint8"
        },
        {
          "internalType": "bytes32",
          "name": "r",
          "type": "bytes32"
        },
        {
          "internalType": "bytes32",
          "name": "s",
          "type": "bytes32"
        }
      ],
      "name": "permit",
      "outputs": [],
      "stateMutability": "nonpayable",
      "type": "function"
    },
    {
      "inputs": [],
      "name": "renounceOwnership",
      "outputs": [],
      "stateMutability": "nonpayable",
      "type": "function"
    },
    {
      "inputs": [],
      "name": "symbol",
      "outputs": [
        {
          "internalType": "string",
          "name": "",
          "type": "string"
        }
      ],
      "stateMutability": "view",
      "type": "function"
    },
    {
      "inputs": [],
      "name": "totalSupply",
      "outputs": [
        {
          "internalType": "uint256",
          "name": "",
          "type": "uint256"
        }
      ],
      "stateMutability": "view",
      "type": "function"
    },
    {
      "inputs": [
        {
          "internalType": "address",
          "name": "to",
          "type": "address"
        },
        {
          "internalType": "uint256",
          "name": "value",
          "type": "uint256"
        }
      ],
      "name": "transfer",
      "outputs": [
        {
          "internalType": "bool",
          "name": "",
          "type": "bool"
        }
      ],
      "stateMutability": "nonpayable",
      "type": "function"
    },
    {
      "inputs": [
        {
          "internalType": "address",
          "name": "from",
          "type": "address"
        },
        {
          "internalType": "address",
          "name": "to",
          "type": "address"
        },
        {
          "internalType": "uint256",
          "name": "value",
          "type": "uint256"
        }
      ],
      "name": "transferFrom",
      "outputs": [
        {
          "internalType": "bool",
          "name": "",
          "type": "bool"
        }
      ],
      "stateMutability": "nonpayable",
      "type": "function"
    },
    {
      "inputs": [
        {
          "internalType": "address",
          "name": "newOwner",
          "type": "address"
        }
      ],
      "name": "transferOwnership",
      "outputs": [],
      "stateMutability": "nonpayable",
      "type": "function"
    },
    {
      "stateMutability": "payable",
      "type": "receive"
    }
  ],
  "numDeployments": 3,
  "solcInputHash": "761dc76fdd794f6cee696ad013e82121",
  "bytecode": "0x6080604052348015600f57600080fd5b506016601a565b60ca565b7ff0c57e16840df040f15088dc2f81fe391c3923bec73e23a9662efc9c229c6a00805468010000000000000000900460ff161560695760405163f92ee8a960e01b815260040160405180910390fd5b80546001600160401b039081161460c75780546001600160401b0319166001600160401b0390811782556040519081527fc7f505b2f371ae2175ee4913f4499e1f2633a7b5936321eed1cdaeb6115181d29060200160405180910390a15b50565b6129a4806100d96000396000f3fe6080604052600436106101c65760003560e01c8063715018a6116100f757806395d89b4111610095578063d505accf11610064578063d505accf14610574578063dd62ed3e14610594578063f1127ed8146105b4578063f2fde38b1461060057600080fd5b806395d89b41146104ff5780639ab24eb014610514578063a9059cbb14610534578063c3cda5201461055457600080fd5b806384b0196e116100d157806384b0196e146104575780638da5cb5b1461047f5780638e539e8c146104bc57806391ddadf4146104dc57600080fd5b8063715018a6146104025780637c88e3d9146104175780637ecebe001461043757600080fd5b80633a46b1a811610164578063587cde1e1161013e578063587cde1e146103555780635c19a95c1461038d5780636fcfff45146103ad57806370a08231146103e257600080fd5b80633a46b1a8146102de57806340c10f19146102fe5780634bf5d7e91461031e57600080fd5b806318160ddd116101a057806318160ddd1461024f57806323b872dd1461028d578063313ce567146102ad5780633644e515146102c957600080fd5b806306fdde03146101d2578063077f224a146101fd578063095ea7b31461021f57600080fd5b366101cd57005b600080fd5b3480156101de57600080fd5b506101e7610620565b6040516101f49190612148565b60405180910390f35b34801561020957600080fd5b5061021d61021836600461222e565b6106c9565b005b34801561022b57600080fd5b5061023f61023a3660046122a7565b6107e2565b60405190151581526020016101f4565b34801561025b57600080fd5b507f52c63247e1f47db19d5ce0460030c497f067ca4cebf71ba98eeadabe20bace02545b6040519081526020016101f4565b34801561029957600080fd5b5061023f6102a83660046122d1565b6107fc565b3480156102b957600080fd5b50604051601281526020016101f4565b3480156102d557600080fd5b5061027f610820565b3480156102ea57600080fd5b5061027f6102f93660046122a7565b61082f565b34801561030a57600080fd5b5061021d6103193660046122a7565b61087d565b34801561032a57600080fd5b5060408051808201909152600e81526d06d6f64653d74696d657374616d760941b60208201526101e7565b34801561036157600080fd5b5061037561037036600461230e565b610893565b6040516001600160a01b0390911681526020016101f4565b34801561039957600080fd5b5061021d6103a836600461230e565b6108be565b3480156103b957600080fd5b506103cd6103c836600461230e565b6108c9565b60405163ffffffff90911681526020016101f4565b3480156103ee57600080fd5b5061027f6103fd36600461230e565b6108d4565b34801561040e57600080fd5b5061021d610907565b34801561042357600080fd5b5061021d6104323660046123ba565b61091b565b34801561044357600080fd5b5061027f61045236600461230e565b6109d3565b34801561046357600080fd5b5061046c6109de565b6040516101f497969594939291906124bf565b34801561048b57600080fd5b507f9016d09d72d40fdae2fd8ceac6b6234c7706214fd39c1cd1e609a0528c199300546001600160a01b0316610375565b3480156104c857600080fd5b5061027f6104d736600461252f565b610a8f565b3480156104e857600080fd5b5060405165ffffffffffff421681526020016101f4565b34801561050b57600080fd5b506101e7610ac6565b34801561052057600080fd5b5061027f61052f36600461230e565b610b05565b34801561054057600080fd5b5061023f61054f3660046122a7565b610b55565b34801561056057600080fd5b5061021d61056f366004612559565b610b63565b34801561058057600080fd5b5061021d61058f3660046125b1565b610c20565b3480156105a057600080fd5b5061027f6105af36600461261c565b610d3c565b3480156105c057600080fd5b506105d46105cf36600461264f565b610d86565b60408051825165ffffffffffff1681526020928301516001600160d01b031692810192909252016101f4565b34801561060c57600080fd5b5061021d61061b36600461230e565b610dab565b6060600060008051602061292f8339815191525b90508060030180546106459061268f565b80601f01602080910402602001604051908101604052809291908181526020018280546106719061268f565b80156106be5780601f10610693576101008083540402835291602001916106be565b820191906000526020600020905b8154815290600101906020018083116106a157829003601f168201915b505050505091505090565b60006106d3610de9565b805490915060ff600160401b820416159067ffffffffffffffff166000811580156106fb5750825b905060008267ffffffffffffffff1660011480156107185750303b155b905081158015610726575080155b156107445760405163f92ee8a960e01b815260040160405180910390fd5b845467ffffffffffffffff19166001178555831561076e57845460ff60401b1916600160401b1785555b6107788888610e12565b61078186610e24565b61078a88610e35565b610792610e60565b83156107d857845460ff60401b19168555604051600181527fc7f505b2f371ae2175ee4913f4499e1f2633a7b5936321eed1cdaeb6115181d29060200160405180910390a15b5050505050505050565b6000336107f0818585610e68565b60019150505b92915050565b60003361080a858285610e7a565b610815858585610ee1565b506001949350505050565b600061082a610f40565b905090565b600060008051602061290f83398151915261086c61084c84610f4a565b6001600160a01b0386166000908152600184016020526040902090610f8f565b6001600160d01b0316949350505050565b610885611045565b61088f82826110a0565b5050565b6001600160a01b03908116600090815260008051602061290f83398151915260205260409020541690565b3361088f81836110d6565b60006107f682611160565b60008060008051602061292f8339815191525b6001600160a01b0390931660009081526020939093525050604090205490565b61090f611045565b61091960006111b1565b565b610923611045565b80518251146109455760405163636e39bb60e01b815260040160405180910390fd5b60005b82518110156109955761098d838281518110610966576109666126c9565b6020026020010151838381518110610980576109806126c9565b60200260200101516110a0565b600101610948565b507f46c094f2f2404297a48a7c4d47697ed07cd7dcb542f35259c65ace5c1f68e1db82826040516109c79291906126df565b60405180910390a15050565b60006107f682611222565b6000606080828080838160008051602061294f8339815191528054909150158015610a0b57506001810154155b610a545760405162461bcd60e51b81526020600482015260156024820152741152540dcc4c8e88155b9a5b9a5d1a585b1a5e9959605a1b60448201526064015b60405180910390fd5b610a5c61122d565b610a6461126c565b60408051600080825260208201909252600f60f81b9c939b5091995046985030975095509350915050565b600060008051602061290f833981519152610ab6610aac84610f4a565b6002830190610f8f565b6001600160d01b03169392505050565b7f52c63247e1f47db19d5ce0460030c497f067ca4cebf71ba98eeadabe20bace04805460609160008051602061292f833981519152916106459061268f565b6001600160a01b03811660009081527fe8b26c30fad74198956032a3533d903385d56dd795af560196f9c78d4af40d016020526040812060008051602061290f83398151915290610ab690611284565b6000336107f0818585610ee1565b83421115610b8757604051632341d78760e11b815260048101859052602401610a4b565b604080517fe48329057bfd03d55e49b547132e39cffd9c1820ad7b9d4c5307691425d15adf60208201526001600160a01b038816918101919091526060810186905260808101859052600090610c0190610bf99060a001604051602081830303815290604052805190602001206112bd565b8585856112ea565b9050610c0d8187611318565b610c1781886110d6565b50505050505050565b83421115610c445760405163313c898160e11b815260048101859052602401610a4b565b60007f6e71edae12b1b97f4d1f60370fef10105fa2faae0126114a169c64845d6126c9888888610c738c611357565b6040805160208101969096526001600160a01b0394851690860152929091166060840152608083015260a082015260c0810186905260e0016040516020818303038152906040528051906020012090506000610cce826112bd565b90506000610cde828787876112ea565b9050896001600160a01b0316816001600160a01b031614610d25576040516325c0072360e11b81526001600160a01b0380831660048301528b166024820152604401610a4b565b610d308a8a8a610e68565b50505050505050505050565b6001600160a01b0391821660009081527f52c63247e1f47db19d5ce0460030c497f067ca4cebf71ba98eeadabe20bace016020908152604080832093909416825291909152205490565b6040805180820190915260008082526020820152610da48383611399565b9392505050565b610db3611045565b6001600160a01b038116610ddd57604051631e4fbdf760e01b815260006004820152602401610a4b565b610de6816111b1565b50565b6000807ff0c57e16840df040f15088dc2f81fe391c3923bec73e23a9662efc9c229c6a006107f6565b610e1a611404565b61088f8282611429565b610e2c611404565b610de68161147a565b610e3d611404565b610de681604051806040016040528060018152602001603160f81b815250611482565b610919611404565b610e7583838360016114e3565b505050565b6000610e868484610d3c565b9050600019811015610edb5781811015610ecc57604051637dc7a0d960e11b81526001600160a01b03841660048201526024810182905260448101839052606401610a4b565b610edb848484840360006114e3565b50505050565b6001600160a01b038316610f0b57604051634b637e8f60e11b815260006004820152602401610a4b565b6001600160a01b038216610f355760405163ec442f0560e01b815260006004820152602401610a4b565b610e758383836115cb565b600061082a6115d6565b60004265ffffffffffff81168310610f8657604051637669fc0f60e11b81526004810184905265ffffffffffff82166024820152604401610a4b565b610da48361164a565b815460009081816005811115610fee576000610faa84611681565b610fb49085612756565b60008881526020902090915081015465ffffffffffff9081169087161015610fde57809150610fec565b610fe9816001612769565b92505b505b6000610ffc878785856117d5565b905080156110375761102187611013600184612756565b600091825260209091200190565b54600160301b90046001600160d01b031661103a565b60005b979650505050505050565b336110777f9016d09d72d40fdae2fd8ceac6b6234c7706214fd39c1cd1e609a0528c199300546001600160a01b031690565b6001600160a01b0316146109195760405163118cdaa760e01b8152336004820152602401610a4b565b6001600160a01b0382166110ca5760405163ec442f0560e01b815260006004820152602401610a4b565b61088f600083836115cb565b60008051602061290f83398151915260006110f084610893565b6001600160a01b0385811660008181526020869052604080822080546001600160a01b031916898616908117909155905194955093928516927f3134e8a2e6d97e929a7e54011ea5485d7d196dd5f0ba4d4ef95803e8e3fc257f9190a4610edb818461115b87611837565b611842565b6001600160a01b03811660009081527fe8b26c30fad74198956032a3533d903385d56dd795af560196f9c78d4af40d01602052604081205460008051602061290f83398151915290610da4906119bc565b7f9016d09d72d40fdae2fd8ceac6b6234c7706214fd39c1cd1e609a0528c19930080546001600160a01b031981166001600160a01b03848116918217845560405192169182907f8be0079c531659141344cd1fd0a4f28419497f9722a3daafe3b4186f6b6457e090600090a3505050565b60006107f6826119ed565b7fa16a46d94261c7517cc8ff89f61c0ce93598e3c849801011dee649a6a557d102805460609160008051602061294f833981519152916106459061268f565b6060600060008051602061294f833981519152610634565b805460009080156112b45761129e83611013600184612756565b54600160301b90046001600160d01b0316610da4565b60009392505050565b60006107f66112ca610f40565b8360405161190160f01b8152600281019290925260228201526042902090565b6000806000806112fc88888888611a16565b92509250925061130c8282611ae5565b50909695505050505050565b600061132383611357565b9050808214610e75576040516301d4b62360e61b81526001600160a01b038416600482015260248101829052604401610a4b565b6001600160a01b031660009081527f5ab42ced628888259c08ac98db1eb0cf702fc1501344311d8b100cd1bfe4bb006020526040902080546001810190915590565b604080518082018252600080825260208083018290526001600160a01b03861682527fe8b26c30fad74198956032a3533d903385d56dd795af560196f9c78d4af40d0190529190912060008051602061290f833981519152906113fc9084611b9e565b949350505050565b61140c611c0e565b61091957604051631afcd79f60e31b815260040160405180910390fd5b611431611404565b60008051602061292f8339815191527f52c63247e1f47db19d5ce0460030c497f067ca4cebf71ba98eeadabe20bace0361146b84826127c3565b5060048101610edb83826127c3565b610db3611404565b61148a611404565b60008051602061294f8339815191527fa16a46d94261c7517cc8ff89f61c0ce93598e3c849801011dee649a6a557d1026114c484826127c3565b50600381016114d383826127c3565b5060008082556001909101555050565b60008051602061292f8339815191526001600160a01b03851661151c5760405163e602df0560e01b815260006004820152602401610a4b565b6001600160a01b03841661154657604051634a1406b160e11b815260006004820152602401610a4b565b6001600160a01b038086166000908152600183016020908152604080832093881683529290522083905581156115c457836001600160a01b0316856001600160a01b03167f8c5be1e5ebec7d5bd14f71427d1e84f3dd0314c0f7b2291e5b200ac8c7c3b925856040516115bb91815260200190565b60405180910390a35b5050505050565b610e75838383611c28565b60007f8b73c3c69bb8fe3d512ecc4cf759cc79239f7b179b0ffacaa9a75d522b39400f611601611cae565b611609611d18565b60408051602081019490945283019190915260608201524660808201523060a082015260c00160405160208183030381529060405280519060200120905090565b600065ffffffffffff82111561167d576040516306dfcc6560e41b81526030600482015260248101839052604401610a4b565b5090565b60006001821161168f575090565b816001600160801b82106116a85760809190911c9060401b5b600160401b82106116be5760409190911c9060201b5b64010000000082106116d55760209190911c9060101b5b6201000082106116ea5760109190911c9060081b5b61010082106116fe5760089190911c9060041b5b601082106117115760049190911c9060021b5b6004821061171d5760011b5b600302600190811c9081858161173557611735612882565b048201901c9050600181858161174d5761174d612882565b048201901c9050600181858161176557611765612882565b048201901c9050600181858161177d5761177d612882565b048201901c9050600181858161179557611795612882565b048201901c905060018185816117ad576117ad612882565b048201901c90506117cc8185816117c6576117c6612882565b04821190565b90039392505050565b60005b8183101561182f5760006117ec8484611d5c565b60008781526020902090915065ffffffffffff86169082015465ffffffffffff16111561181b57809250611829565b611826816001612769565b93505b506117d8565b509392505050565b60006107f6826108d4565b60008051602061290f8339815191526001600160a01b038481169084161480159061186d5750600082115b15610edb576001600160a01b03841615611917576001600160a01b0384166000908152600182016020526040812081906118b290611d776118ad87611d83565b611db7565b6001600160d01b031691506001600160d01b03169150856001600160a01b03167fdec2bacdd2f05b59de34da9b523dff8be42e5e38e818c82fdb0bae774387a724838360405161190c929190918252602082015260400190565b60405180910390a250505b6001600160a01b03831615610edb576001600160a01b03831660009081526001820160205260408120819061195290611de96118ad87611d83565b6001600160d01b031691506001600160d01b03169150846001600160a01b03167fdec2bacdd2f05b59de34da9b523dff8be42e5e38e818c82fdb0bae774387a72483836040516119ac929190918252602082015260400190565b60405180910390a2505050505050565b600063ffffffff82111561167d576040516306dfcc6560e41b81526020600482015260248101839052604401610a4b565b6000807f5ab42ced628888259c08ac98db1eb0cf702fc1501344311d8b100cd1bfe4bb006108e7565b600080807f7fffffffffffffffffffffffffffffff5d576e7357a4501ddfe92f46681b20a0841115611a515750600091506003905082611adb565b604080516000808252602082018084528a905260ff891692820192909252606081018790526080810186905260019060a0016020604051602081039080840390855afa158015611aa5573d6000803e3d6000fd5b5050604051601f1901519150506001600160a01b038116611ad157506000925060019150829050611adb565b9250600091508190505b9450945094915050565b6000826003811115611af957611af9612898565b03611b02575050565b6001826003811115611b1657611b16612898565b03611b345760405163f645eedf60e01b815260040160405180910390fd5b6002826003811115611b4857611b48612898565b03611b695760405163fce698f760e01b815260048101829052602401610a4b565b6003826003811115611b7d57611b7d612898565b0361088f576040516335e2f38360e21b815260048101829052602401610a4b565b6040805180820190915260008082526020820152826000018263ffffffff1681548110611bcd57611bcd6126c9565b60009182526020918290206040805180820190915291015465ffffffffffff81168252600160301b90046001600160d01b0316918101919091529392505050565b6000611c18610de9565b54600160401b900460ff16919050565b611c33838383611df5565b6001600160a01b038316611ca3576000611c6b7f52c63247e1f47db19d5ce0460030c497f067ca4cebf71ba98eeadabe20bace025490565b90506001600160d01b0380821115611ca057604051630e58ae9360e11b81526004810183905260248101829052604401610a4b565b50505b610e75838383611f33565b600060008051602061294f83398151915281611cc861122d565b805190915015611ce057805160209091012092915050565b81548015611cef579392505050565b7fc5d2460186f7233c927e7db2dcc703c0e500b653ca82273b7bfad8045d85a470935050505090565b600060008051602061294f83398151915281611d3261126c565b805190915015611d4a57805160209091012092915050565b60018201548015611cef579392505050565b6000611d6b60028484186128ae565b610da490848416612769565b6000610da482846128d0565b60006001600160d01b0382111561167d576040516306dfcc6560e41b815260d0600482015260248101839052604401610a4b565b600080611ddc42611dd4611dca88611284565b868863ffffffff16565b879190611fa5565b915091505b935093915050565b6000610da482846128ef565b60008051602061292f8339815191526001600160a01b038416611e315781816002016000828254611e269190612769565b90915550611ea39050565b6001600160a01b03841660009081526020829052604090205482811015611e845760405163391434e360e21b81526001600160a01b03861660048201526024810182905260448101849052606401610a4b565b6001600160a01b03851660009081526020839052604090209083900390555b6001600160a01b038316611ec1576002810180548390039055611ee0565b6001600160a01b03831660009081526020829052604090208054830190555b826001600160a01b0316846001600160a01b03167fddf252ad1be2c89b69c2b068fc378daa952ba7f163c4a11628f55a4df523b3ef84604051611f2591815260200190565b60405180910390a350505050565b60008051602061290f8339815191526001600160a01b038416611f6657611f6381600201611de96118ad85611d83565b50505b6001600160a01b038316611f8a57611f8781600201611d776118ad85611d83565b50505b610edb611f9685610893565b611f9f85610893565b84611842565b600080611ddc8585858254600090819080156120a7576000611fcc87611013600185612756565b805490915065ffffffffffff80821691600160301b90046001600160d01b031690881682111561200f57604051632520601d60e01b815260040160405180910390fd5b8765ffffffffffff168265ffffffffffff160361204857825465ffffffffffff16600160301b6001600160d01b03891602178355612099565b6040805180820190915265ffffffffffff808a1682526001600160d01b03808a1660208085019182528d54600181018f5560008f81529190912094519151909216600160301b029216919091179101555b9450859350611de192505050565b50506040805180820190915265ffffffffffff80851682526001600160d01b0380851660208085019182528854600181018a5560008a815291822095519251909316600160301b029190931617920191909155905081611de1565b6000815180845260005b818110156121285760208185018101518683018201520161210c565b506000602082860101526020601f19601f83011685010191505092915050565b602081526000610da46020830184612102565b634e487b7160e01b600052604160045260246000fd5b604051601f8201601f1916810167ffffffffffffffff8111828210171561219a5761219a61215b565b604052919050565b600082601f8301126121b357600080fd5b813567ffffffffffffffff8111156121cd576121cd61215b565b6121e0601f8201601f1916602001612171565b8181528460208386010111156121f557600080fd5b816020850160208301376000918101602001919091529392505050565b80356001600160a01b038116811461222957600080fd5b919050565b60008060006060848603121561224357600080fd5b833567ffffffffffffffff81111561225a57600080fd5b612266868287016121a2565b935050602084013567ffffffffffffffff81111561228357600080fd5b61228f868287016121a2565b92505061229e60408501612212565b90509250925092565b600080604083850312156122ba57600080fd5b6122c383612212565b946020939093013593505050565b6000806000606084860312156122e657600080fd5b6122ef84612212565b92506122fd60208501612212565b929592945050506040919091013590565b60006020828403121561232057600080fd5b610da482612212565b600067ffffffffffffffff8211156123435761234361215b565b5060051b60200190565b600082601f83011261235e57600080fd5b813561237161236c82612329565b612171565b8082825260208201915060208360051b86010192508583111561239357600080fd5b602085015b838110156123b0578035835260209283019201612398565b5095945050505050565b600080604083850312156123cd57600080fd5b823567ffffffffffffffff8111156123e457600080fd5b8301601f810185136123f557600080fd5b803561240361236c82612329565b8082825260208201915060208360051b85010192508783111561242557600080fd5b6020840193505b8284101561244e5761243d84612212565b82526020938401939091019061242c565b9450505050602083013567ffffffffffffffff81111561246d57600080fd5b6124798582860161234d565b9150509250929050565b600081518084526020840193506020830160005b828110156124b5578151865260209586019590910190600101612497565b5093949350505050565b60ff60f81b8816815260e0602082015260006124de60e0830189612102565b82810360408401526124f08189612102565b606084018890526001600160a01b038716608085015260a0840186905283810360c085015290506125218185612483565b9a9950505050505050505050565b60006020828403121561254157600080fd5b5035919050565b803560ff8116811461222957600080fd5b60008060008060008060c0878903121561257257600080fd5b61257b87612212565b9550602087013594506040870135935061259760608801612548565b9598949750929560808101359460a0909101359350915050565b600080600080600080600060e0888a0312156125cc57600080fd5b6125d588612212565b96506125e360208901612212565b955060408801359450606088013593506125ff60808901612548565b9699959850939692959460a0840135945060c09093013592915050565b6000806040838503121561262f57600080fd5b61263883612212565b915061264660208401612212565b90509250929050565b6000806040838503121561266257600080fd5b61266b83612212565b9150602083013563ffffffff8116811461268457600080fd5b809150509250929050565b600181811c908216806126a357607f821691505b6020821081036126c357634e487b7160e01b600052602260045260246000fd5b50919050565b634e487b7160e01b600052603260045260246000fd5b6040808252835190820181905260009060208501906060840190835b818110156127225783516001600160a01b03168352602093840193909201916001016126fb565b505083810360208501526127368186612483565b9695505050505050565b634e487b7160e01b600052601160045260246000fd5b818103818111156107f6576107f6612740565b808201808211156107f6576107f6612740565b601f821115610e7557806000526020600020601f840160051c810160208510156127a35750805b601f840160051c820191505b818110156115c457600081556001016127af565b815167ffffffffffffffff8111156127dd576127dd61215b565b6127f1816127eb845461268f565b8461277c565b6020601f821160018114612825576000831561280d5750848201515b600019600385901b1c1916600184901b1784556115c4565b600084815260208120601f198516915b828110156128555787850151825560209485019460019092019101612835565b50848210156128735786840151600019600387901b60f8161c191681555b50505050600190811b01905550565b634e487b7160e01b600052601260045260246000fd5b634e487b7160e01b600052602160045260246000fd5b6000826128cb57634e487b7160e01b600052601260045260246000fd5b500490565b6001600160d01b0382811682821603908111156107f6576107f6612740565b6001600160d01b0381811683821601908111156107f6576107f661274056fee8b26c30fad74198956032a3533d903385d56dd795af560196f9c78d4af40d0052c63247e1f47db19d5ce0460030c497f067ca4cebf71ba98eeadabe20bace00a16a46d94261c7517cc8ff89f61c0ce93598e3c849801011dee649a6a557d100a26469706673582212208f0f47fe480b548eb84cbe2182b15b9380169155ffb02229a8d99b44ddb40c9f64736f6c634300081c0033",
  "devdoc": {
    "errors": {
      "CheckpointUnorderedInsertion()": [
        {
          "details": "A value was attempted to be inserted on a past checkpoint."
        }
      ],
      "ECDSAInvalidSignature()": [
        {
          "details": "The signature derives the `address(0)`."
        }
      ],
      "ECDSAInvalidSignatureLength(uint256)": [
        {
          "details": "The signature has an invalid length."
        }
      ],
      "ECDSAInvalidSignatureS(bytes32)": [
        {
          "details": "The signature has an S value that is in the upper half order."
        }
      ],
      "ERC20ExceededSafeSupply(uint256,uint256)": [
        {
          "details": "Total supply cap has been exceeded, introducing a risk of votes overflowing."
        }
      ],
      "ERC20InsufficientAllowance(address,uint256,uint256)": [
        {
          "details": "Indicates a failure with the `spender`s `allowance`. Used in transfers.",
          "params": {
            "allowance": "Amount of tokens a `spender` is allowed to operate with.",
            "needed": "Minimum amount required to perform a transfer.",
            "spender": "Address that may be allowed to operate on tokens without being their owner."
          }
        }
      ],
      "ERC20InsufficientBalance(address,uint256,uint256)": [
        {
          "details": "Indicates an error related to the current `balance` of a `sender`. Used in transfers.",
          "params": {
            "balance": "Current balance for the interacting account.",
            "needed": "Minimum amount required to perform a transfer.",
            "sender": "Address whose tokens are being transferred."
          }
        }
      ],
      "ERC20InvalidApprover(address)": [
        {
          "details": "Indicates a failure with the `approver` of a token to be approved. Used in approvals.",
          "params": {
            "approver": "Address initiating an approval operation."
          }
        }
      ],
      "ERC20InvalidReceiver(address)": [
        {
          "details": "Indicates a failure with the token `receiver`. Used in transfers.",
          "params": {
            "receiver": "Address to which tokens are being transferred."
          }
        }
      ],
      "ERC20InvalidSender(address)": [
        {
          "details": "Indicates a failure with the token `sender`. Used in transfers.",
          "params": {
            "sender": "Address whose tokens are being transferred."
          }
        }
      ],
      "ERC20InvalidSpender(address)": [
        {
          "details": "Indicates a failure with the `spender` to be approved. Used in approvals.",
          "params": {
            "spender": "Address that may be allowed to operate on tokens without being their owner."
          }
        }
      ],
      "ERC2612ExpiredSignature(uint256)": [
        {
          "details": "Permit deadline has expired."
        }
      ],
      "ERC2612InvalidSigner(address,address)": [
        {
          "details": "Mismatched signature."
        }
      ],
      "ERC5805FutureLookup(uint256,uint48)": [
        {
          "details": "Lookup to future votes is not available."
        }
      ],
      "ERC6372InconsistentClock()": [
        {
          "details": "The clock was incorrectly modified."
        }
      ],
      "InvalidAccountNonce(address,uint256)": [
        {
          "details": "The nonce used for an `account` is not the expected current nonce."
        }
      ],
      "InvalidInitialization()": [
        {
          "details": "The contract is already initialized."
        }
      ],
      "NotInitializing()": [
        {
          "details": "The contract is not initializing."
        }
      ],
      "OwnableInvalidOwner(address)": [
        {
          "details": "The owner is not a valid owner account. (eg. `address(0)`)"
        }
      ],
      "OwnableUnauthorizedAccount(address)": [
        {
          "details": "The caller account is not authorized to perform an operation."
        }
      ],
      "SafeCastOverflowedUintDowncast(uint8,uint256)": [
        {
          "details": "Value doesn't fit in an uint of `bits` size."
        }
      ],
      "VotesExpiredSignature(uint256)": [
        {
          "details": "The signature used has expired."
        }
      ]
    },
    "events": {
      "Approval(address,address,uint256)": {
        "details": "Emitted when the allowance of a `spender` for an `owner` is set by a call to {approve}. `value` is the new allowance."
      },
      "DelegateChanged(address,address,address)": {
        "details": "Emitted when an account changes their delegate."
      },
      "DelegateVotesChanged(address,uint256,uint256)": {
        "details": "Emitted when a token transfer or delegate change results in changes to a delegate's number of voting units."
      },
      "EIP712DomainChanged()": {
        "details": "MAY be emitted to signal that the domain could have changed."
      },
      "Initialized(uint64)": {
        "details": "Triggered when the contract has been initialized or reinitialized."
      },
      "Transfer(address,address,uint256)": {
        "details": "Emitted when `value` tokens are moved from one account (`from`) to another (`to`). Note that `value` may be zero."
      }
    },
    "kind": "dev",
    "methods": {
      "CLOCK_MODE()": {
        "details": "Machine-readable description of the clock as specified in ERC-6372."
      },
      "DOMAIN_SEPARATOR()": {
        "details": "Returns the domain separator used in the encoding of the signature for {permit}, as defined by {EIP712}."
      },
      "allowance(address,address)": {
        "details": "See {IERC20-allowance}."
      },
      "approve(address,uint256)": {
        "details": "See {IERC20-approve}. NOTE: If `value` is the maximum `uint256`, the allowance is not updated on `transferFrom`. This is semantically equivalent to an infinite approval. Requirements: - `spender` cannot be the zero address."
      },
      "balanceOf(address)": {
        "details": "See {IERC20-balanceOf}."
      },
      "checkpoints(address,uint32)": {
        "details": "Get the `pos`-th checkpoint for `account`."
      },
      "decimals()": {
        "details": "Returns the number of decimals used to get its user representation. For example, if `decimals` equals `2`, a balance of `505` tokens should be displayed to a user as `5.05` (`505 / 10 ** 2`). Tokens usually opt for a value of 18, imitating the relationship between Ether and Wei. This is the default value returned by this function, unless it's overridden. NOTE: This information is only used for _display_ purposes: it in no way affects any of the arithmetic of the contract, including {IERC20-balanceOf} and {IERC20-transfer}."
      },
      "delegate(address)": {
        "details": "Delegates votes from the sender to `delegatee`."
      },
      "delegateBySig(address,uint256,uint256,uint8,bytes32,bytes32)": {
        "details": "Delegates votes from signer to `delegatee`."
      },
      "delegates(address)": {
        "details": "Returns the delegate that `account` has chosen."
      },
      "eip712Domain()": {
        "details": "returns the fields and values that describe the domain separator used by this contract for EIP-712 signature."
      },
      "getPastTotalSupply(uint256)": {
        "details": "Returns the total supply of votes available at a specific moment in the past. If the `clock()` is configured to use block numbers, this will return the value at the end of the corresponding block. NOTE: This value is the sum of all available votes, which is not necessarily the sum of all delegated votes. Votes that have not been delegated are still part of total supply, even though they would not participate in a vote. Requirements: - `timepoint` must be in the past. If operating using block numbers, the block must be already mined."
      },
      "getPastVotes(address,uint256)": {
        "details": "Returns the amount of votes that `account` had at a specific moment in the past. If the `clock()` is configured to use block numbers, this will return the value at the end of the corresponding block. Requirements: - `timepoint` must be in the past. If operating using block numbers, the block must be already mined."
      },
      "getVotes(address)": {
        "details": "Returns the current amount of votes that `account` has."
      },
      "name()": {
        "details": "Returns the name of the token."
      },
      "numCheckpoints(address)": {
        "details": "Get number of checkpoints for `account`."
      },
      "owner()": {
        "details": "Returns the address of the current owner."
      },
      "permit(address,address,uint256,uint256,uint8,bytes32,bytes32)": {
        "details": "Sets `value` as the allowance of `spender` over ``owner``'s tokens, given ``owner``'s signed approval. IMPORTANT: The same issues {IERC20-approve} has related to transaction ordering also apply here. Emits an {Approval} event. Requirements: - `spender` cannot be the zero address. - `deadline` must be a timestamp in the future. - `v`, `r` and `s` must be a valid `secp256k1` signature from `owner` over the EIP712-formatted function arguments. - the signature must use ``owner``'s current nonce (see {nonces}). For more information on the signature format, see the https://eips.ethereum.org/EIPS/eip-2612#specification[relevant EIP section]. CAUTION: See Security Considerations above."
      },
      "renounceOwnership()": {
        "details": "Leaves the contract without owner. It will not be possible to call `onlyOwner` functions. Can only be called by the current owner. NOTE: Renouncing ownership will leave the contract without an owner, thereby disabling any functionality that is only available to the owner."
      },
      "symbol()": {
        "details": "Returns the symbol of the token, usually a shorter version of the name."
      },
      "totalSupply()": {
        "details": "See {IERC20-totalSupply}."
      },
      "transfer(address,uint256)": {
        "details": "See {IERC20-transfer}. Requirements: - `to` cannot be the zero address. - the caller must have a balance of at least `value`."
      },
      "transferFrom(address,address,uint256)": {
        "details": "See {IERC20-transferFrom}. Skips emitting an {Approval} event indicating an allowance update. This is not required by the ERC. See {xref-ERC20-_approve-address-address-uint256-bool-}[_approve]. NOTE: Does not update the allowance if the current allowance is the maximum `uint256`. Requirements: - `from` and `to` cannot be the zero address. - `from` must have a balance of at least `value`. - the caller must have allowance for ``from``'s tokens of at least `value`."
      },
      "transferOwnership(address)": {
        "details": "Transfers ownership of the contract to a new account (`newOwner`). Can only be called by the current owner."
      }
    },
    "version": 1
  },
  "userdoc": {
    "errors": {
      "DAO_NOT_FOUND(uint256)": [
        {
          "notice": "====================== ======= ZK DAO ======= ======================"
        }
      ],
      "INSUFFICIENT_ALLOWANCE()": [
        {
          "notice": "====================== ====== Generic ======= ======================"
        }
      ],
      "INVALID_VOTE_TYPE()": [
        {
          "notice": "====================== ====== Governor ====== ======================"
        }
      ]
    },
    "events": {
      "BatchMinted(address[],uint256[])": {
        "notice": "====================== ======= Events ======= ======================"
      }
    },
    "kind": "user",
    "methods": {
      "clock()": {
        "notice": "========================== ===== View Functions ===== =========================="
      },
      "constructor": {
        "notice": "========================= ====== Constructor ====== ========================="
      },
      "initialize(string,string,address)": {
        "notice": "========================= ====== Initializer ====== ========================="
      },
      "mint(address,uint256)": {
        "notice": "================================= == External / Public Functions == ================================="
      }
    },
    "version": 1
  },
  "storageLayout": {
    "storage": [],
    "types": null
  }
}