{
  "address": "0x6e0FB477f7A7564EDbef76bCD58a102e003208E3",
  "abi": [
    {
      "inputs": [],
      "stateMutability": "nonpayable",
      "type": "constructor"
    },
    {
      "inputs": [],
      "name": "CheckpointUnorderedInsertion",
      "type": "error"
    },
    {
      "inputs": [
        {
          "internalType": "uint256",
          "name": "daoId",
          "type": "uint256"
        }
      ],
      "name": "DAONotFound",
      "type": "error"
    },
    {
      "inputs": [
        {
          "internalType": "uint256",
          "name": "daoId",
          "type": "uint256"
        }
      ],
      "name": "DAO_NOT_FOUND",
      "type": "error"
    },
    {
      "inputs": [],
      "name": "DOUBLE_VOTE",
      "type": "error"
    },
    {
      "inputs": [],
      "name": "FailedCall",
      "type": "error"
    },
    {
      "inputs": [
        {
          "internalType": "address",
          "name": "voter",
          "type": "address"
        }
      ],
      "name": "GovernorAlreadyCastVote",
      "type": "error"
    },
    {
      "inputs": [
        {
          "internalType": "uint256",
          "name": "proposalId",
          "type": "uint256"
        }
      ],
      "name": "GovernorAlreadyQueuedProposal",
      "type": "error"
    },
    {
      "inputs": [],
      "name": "GovernorDisabledDeposit",
      "type": "error"
    },
    {
      "inputs": [
        {
          "internalType": "address",
          "name": "proposer",
          "type": "address"
        },
        {
          "internalType": "uint256",
          "name": "votes",
          "type": "uint256"
        },
        {
          "internalType": "uint256",
          "name": "threshold",
          "type": "uint256"
        }
      ],
      "name": "GovernorInsufficientProposerVotes",
      "type": "error"
    },
    {
      "inputs": [
        {
          "internalType": "uint256",
          "name": "targets",
          "type": "uint256"
        },
        {
          "internalType": "uint256",
          "name": "calldatas",
          "type": "uint256"
        },
        {
          "internalType": "uint256",
          "name": "values",
          "type": "uint256"
        }
      ],
      "name": "GovernorInvalidProposalLength",
      "type": "error"
    },
    {
      "inputs": [
        {
          "internalType": "uint256",
          "name": "quorumNumerator",
          "type": "uint256"
        },
        {
          "internalType": "uint256",
          "name": "quorumDenominator",
          "type": "uint256"
        }
      ],
      "name": "GovernorInvalidQuorumFraction",
      "type": "error"
    },
    {
      "inputs": [
        {
          "internalType": "address",
          "name": "voter",
          "type": "address"
        }
      ],
      "name": "GovernorInvalidSignature",
      "type": "error"
    },
    {
      "inputs": [],
      "name": "GovernorInvalidVoteParams",
      "type": "error"
    },
    {
      "inputs": [],
      "name": "GovernorInvalidVoteType",
      "type": "error"
    },
    {
      "inputs": [
        {
          "internalType": "uint256",
          "name": "votingPeriod",
          "type": "uint256"
        }
      ],
      "name": "GovernorInvalidVotingPeriod",
      "type": "error"
    },
    {
      "inputs": [
        {
          "internalType": "uint256",
          "name": "proposalId",
          "type": "uint256"
        }
      ],
      "name": "GovernorNonexistentProposal",
      "type": "error"
    },
    {
      "inputs": [
        {
          "internalType": "uint256",
          "name": "proposalId",
          "type": "uint256"
        }
      ],
      "name": "GovernorNotQueuedProposal",
      "type": "error"
    },
    {
      "inputs": [
        {
          "internalType": "address",
          "name": "account",
          "type": "address"
        }
      ],
      "name": "GovernorOnlyExecutor",
      "type": "error"
    },
    {
      "inputs": [],
      "name": "GovernorQueueNotImplemented",
      "type": "error"
    },
    {
      "inputs": [
        {
          "internalType": "address",
          "name": "proposer",
          "type": "address"
        }
      ],
      "name": "GovernorRestrictedProposer",
      "type": "error"
    },
    {
      "inputs": [
        {
          "internalType": "uint256",
          "name": "proposalId",
          "type": "uint256"
        },
        {
          "internalType": "address",
          "name": "account",
          "type": "address"
        }
      ],
      "name": "GovernorUnableToCancel",
      "type": "error"
    },
    {
      "inputs": [
        {
          "internalType": "uint256",
          "name": "proposalId",
          "type": "uint256"
        },
        {
          "internalType": "enum IGovernor.ProposalState",
          "name": "current",
          "type": "uint8"
        },
        {
          "internalType": "bytes32",
          "name": "expectedStates",
          "type": "bytes32"
        }
      ],
      "name": "GovernorUnexpectedProposalState",
      "type": "error"
    },
    {
      "inputs": [],
      "name": "INSUFFICIENT_ALLOWANCE",
      "type": "error"
    },
    {
      "inputs": [],
      "name": "INSUFFICIENT_FUNDS",
      "type": "error"
    },
    {
      "inputs": [],
      "name": "INVALID_NULLIFIER",
      "type": "error"
    },
    {
      "inputs": [],
      "name": "INVALID_PROPOSAL_ID",
      "type": "error"
    },
    {
      "inputs": [],
      "name": "INVALID_VOTE_TYPE",
      "type": "error"
    },
    {
      "inputs": [
        {
          "internalType": "address",
          "name": "account",
          "type": "address"
        },
        {
          "internalType": "uint256",
          "name": "currentNonce",
          "type": "uint256"
        }
      ],
      "name": "InvalidAccountNonce",
      "type": "error"
    },
    {
      "inputs": [],
      "name": "InvalidArrayLength",
      "type": "error"
    },
    {
      "inputs": [],
      "name": "InvalidInitialization",
      "type": "error"
    },
    {
      "inputs": [],
      "name": "InvalidParameters",
      "type": "error"
    },
    {
      "inputs": [],
      "name": "MISMATCH",
      "type": "error"
    },
    {
      "inputs": [],
      "name": "NotInitializing",
      "type": "error"
    },
    {
      "inputs": [
        {
          "internalType": "uint8",
          "name": "bits",
          "type": "uint8"
        },
        {
          "internalType": "uint256",
          "name": "value",
          "type": "uint256"
        }
      ],
      "name": "SafeCastOverflowedUintDowncast",
      "type": "error"
    },
    {
      "inputs": [],
      "name": "UNAUTHORIZED",
      "type": "error"
    },
    {
      "inputs": [
        {
          "internalType": "bytes32",
          "name": "requestId",
          "type": "bytes32"
        }
      ],
      "name": "UNEXPECTED_REQUEST_ID",
      "type": "error"
    },
    {
      "inputs": [],
      "name": "UnauthorizedCaller",
      "type": "error"
    },
    {
      "inputs": [],
      "name": "VOTING_CLOSED",
      "type": "error"
    },
    {
      "inputs": [],
      "name": "ZK_PROOF_FAILED",
      "type": "error"
    },
    {
      "anonymous": false,
      "inputs": [],
      "name": "EIP712DomainChanged",
      "type": "event"
    },
    {
      "anonymous": false,
      "inputs": [
        {
          "indexed": false,
          "internalType": "uint64",
          "name": "version",
          "type": "uint64"
        }
      ],
      "name": "Initialized",
      "type": "event"
    },
    {
      "anonymous": false,
      "inputs": [
        {
          "indexed": false,
          "internalType": "uint256",
          "name": "proposalId",
          "type": "uint256"
        }
      ],
      "name": "ProposalCanceled",
      "type": "event"
    },
    {
      "anonymous": false,
      "inputs": [
        {
          "indexed": false,
          "internalType": "uint256",
          "name": "proposalId",
          "type": "uint256"
        },
        {
          "indexed": false,
          "internalType": "address",
          "name": "proposer",
          "type": "address"
        },
        {
          "indexed": false,
          "internalType": "address[]",
          "name": "targets",
          "type": "address[]"
        },
        {
          "indexed": false,
          "internalType": "uint256[]",
          "name": "values",
          "type": "uint256[]"
        },
        {
          "indexed": false,
          "internalType": "string[]",
          "name": "signatures",
          "type": "string[]"
        },
        {
          "indexed": false,
          "internalType": "bytes[]",
          "name": "calldatas",
          "type": "bytes[]"
        },
        {
          "indexed": false,
          "internalType": "uint256",
          "name": "voteStart",
          "type": "uint256"
        },
        {
          "indexed": false,
          "internalType": "uint256",
          "name": "voteEnd",
          "type": "uint256"
        },
        {
          "indexed": false,
          "internalType": "string",
          "name": "description",
          "type": "string"
        }
      ],
      "name": "ProposalCreated",
      "type": "event"
    },
    {
      "anonymous": false,
      "inputs": [
        {
          "indexed": false,
          "internalType": "uint256",
          "name": "proposalId",
          "type": "uint256"
        }
      ],
      "name": "ProposalExecuted",
      "type": "event"
    },
    {
      "anonymous": false,
      "inputs": [
        {
          "indexed": false,
          "internalType": "uint256",
          "name": "proposalId",
          "type": "uint256"
        },
        {
          "indexed": false,
          "internalType": "uint256",
          "name": "etaSeconds",
          "type": "uint256"
        }
      ],
      "name": "ProposalQueued",
      "type": "event"
    },
    {
      "anonymous": false,
      "inputs": [
        {
          "indexed": false,
          "internalType": "uint256",
          "name": "oldProposalThreshold",
          "type": "uint256"
        },
        {
          "indexed": false,
          "internalType": "uint256",
          "name": "newProposalThreshold",
          "type": "uint256"
        }
      ],
      "name": "ProposalThresholdSet",
      "type": "event"
    },
    {
      "anonymous": false,
      "inputs": [
        {
          "indexed": false,
          "internalType": "uint256",
          "name": "oldQuorumNumerator",
          "type": "uint256"
        },
        {
          "indexed": false,
          "internalType": "uint256",
          "name": "newQuorumNumerator",
          "type": "uint256"
        }
      ],
      "name": "QuorumNumeratorUpdated",
      "type": "event"
    },
    {
      "anonymous": false,
      "inputs": [
        {
          "indexed": false,
          "internalType": "address",
          "name": "oldTimelock",
          "type": "address"
        },
        {
          "indexed": false,
          "internalType": "address",
          "name": "newTimelock",
          "type": "address"
        }
      ],
      "name": "TimelockChange",
      "type": "event"
    },
    {
      "anonymous": false,
      "inputs": [
        {
          "indexed": true,
          "internalType": "address",
          "name": "voter",
          "type": "address"
        },
        {
          "indexed": false,
          "internalType": "uint256",
          "name": "proposalId",
          "type": "uint256"
        },
        {
          "indexed": false,
          "internalType": "uint8",
          "name": "support",
          "type": "uint8"
        },
        {
          "indexed": false,
          "internalType": "uint256",
          "name": "weight",
          "type": "uint256"
        },
        {
          "indexed": false,
          "internalType": "string",
          "name": "reason",
          "type": "string"
        }
      ],
      "name": "VoteCast",
      "type": "event"
    },
    {
      "anonymous": false,
      "inputs": [
        {
          "indexed": true,
          "internalType": "address",
          "name": "voter",
          "type": "address"
        },
        {
          "indexed": false,
          "internalType": "uint256",
          "name": "proposalId",
          "type": "uint256"
        },
        {
          "indexed": false,
          "internalType": "uint8",
          "name": "support",
          "type": "uint8"
        },
        {
          "indexed": false,
          "internalType": "uint256",
          "name": "weight",
          "type": "uint256"
        },
        {
          "indexed": false,
          "internalType": "string",
          "name": "reason",
          "type": "string"
        },
        {
          "indexed": false,
          "internalType": "bytes",
          "name": "params",
          "type": "bytes"
        }
      ],
      "name": "VoteCastWithParams",
      "type": "event"
    },
    {
      "anonymous": false,
      "inputs": [
        {
          "indexed": false,
          "internalType": "uint256",
          "name": "oldVotingDelay",
          "type": "uint256"
        },
        {
          "indexed": false,
          "internalType": "uint256",
          "name": "newVotingDelay",
          "type": "uint256"
        }
      ],
      "name": "VotingDelaySet",
      "type": "event"
    },
    {
      "anonymous": false,
      "inputs": [
        {
          "indexed": false,
          "internalType": "uint256",
          "name": "oldVotingPeriod",
          "type": "uint256"
        },
        {
          "indexed": false,
          "internalType": "uint256",
          "name": "newVotingPeriod",
          "type": "uint256"
        }
      ],
      "name": "VotingPeriodSet",
      "type": "event"
    },
    {
      "anonymous": false,
      "inputs": [
        {
          "indexed": true,
          "internalType": "uint256",
          "name": "proposalId",
          "type": "uint256"
        },
        {
          "indexed": false,
          "internalType": "uint8",
          "name": "choice",
          "type": "uint8"
        },
        {
          "indexed": false,
          "internalType": "uint256",
          "name": "weight",
          "type": "uint256"
        },
        {
          "indexed": false,
          "internalType": "bytes32",
          "name": "nullifier",
          "type": "bytes32"
        }
      ],
      "name": "ZKVoteCast",
      "type": "event"
    },
    {
      "inputs": [],
      "name": "BALLOT_TYPEHASH",
      "outputs": [
        {
          "internalType": "bytes32",
          "name": "",
          "type": "bytes32"
        }
      ],
      "stateMutability": "view",
      "type": "function"
    },
    {
      "inputs": [],
      "name": "CLOCK_MODE",
      "outputs": [
        {
          "internalType": "string",
          "name": "",
          "type": "string"
        }
      ],
      "stateMutability": "view",
      "type": "function"
    },
    {
      "inputs": [],
      "name": "COUNTING_MODE",
      "outputs": [
        {
          "internalType": "string",
          "name": "",
          "type": "string"
        }
      ],
      "stateMutability": "pure",
      "type": "function"
    },
    {
      "inputs": [],
      "name": "EXTENDED_BALLOT_TYPEHASH",
      "outputs": [
        {
          "internalType": "bytes32",
          "name": "",
          "type": "bytes32"
        }
      ],
      "stateMutability": "view",
      "type": "function"
    },
    {
      "inputs": [
        {
          "internalType": "address[]",
          "name": "targets",
          "type": "address[]"
        },
        {
          "internalType": "uint256[]",
          "name": "values",
          "type": "uint256[]"
        },
        {
          "internalType": "bytes[]",
          "name": "calldatas",
          "type": "bytes[]"
        },
        {
          "internalType": "bytes32",
          "name": "descriptionHash",
          "type": "bytes32"
        }
      ],
      "name": "cancel",
      "outputs": [
        {
          "internalType": "uint256",
          "name": "",
          "type": "uint256"
        }
      ],
      "stateMutability": "nonpayable",
      "type": "function"
    },
    {
      "inputs": [
        {
          "internalType": "uint256",
          "name": "proposalId",
          "type": "uint256"
        },
        {
          "internalType": "uint8",
          "name": "support",
          "type": "uint8"
        }
      ],
      "name": "castVote",
      "outputs": [
        {
          "internalType": "uint256",
          "name": "",
          "type": "uint256"
        }
      ],
      "stateMutability": "nonpayable",
      "type": "function"
    },
    {
      "inputs": [
        {
          "internalType": "uint256",
          "name": "proposalId",
          "type": "uint256"
        },
        {
          "internalType": "uint8",
          "name": "support",
          "type": "uint8"
        },
        {
          "internalType": "address",
          "name": "voter",
          "type": "address"
        },
        {
          "internalType": "bytes",
          "name": "signature",
          "type": "bytes"
        }
      ],
      "name": "castVoteBySig",
      "outputs": [
        {
          "internalType": "uint256",
          "name": "",
          "type": "uint256"
        }
      ],
      "stateMutability": "nonpayable",
      "type": "function"
    },
    {
      "inputs": [
        {
          "internalType": "uint256",
          "name": "proposalId",
          "type": "uint256"
        },
        {
          "internalType": "uint8",
          "name": "support",
          "type": "uint8"
        },
        {
          "internalType": "string",
          "name": "reason",
          "type": "string"
        }
      ],
      "name": "castVoteWithReason",
      "outputs": [
        {
          "internalType": "uint256",
          "name": "",
          "type": "uint256"
        }
      ],
      "stateMutability": "nonpayable",
      "type": "function"
    },
    {
      "inputs": [
        {
          "internalType": "uint256",
          "name": "proposalId",
          "type": "uint256"
        },
        {
          "internalType": "uint8",
          "name": "support",
          "type": "uint8"
        },
        {
          "internalType": "string",
          "name": "reason",
          "type": "string"
        },
        {
          "internalType": "bytes",
          "name": "params",
          "type": "bytes"
        }
      ],
      "name": "castVoteWithReasonAndParams",
      "outputs": [
        {
          "internalType": "uint256",
          "name": "",
          "type": "uint256"
        }
      ],
      "stateMutability": "nonpayable",
      "type": "function"
    },
    {
      "inputs": [
        {
          "internalType": "uint256",
          "name": "proposalId",
          "type": "uint256"
        },
        {
          "internalType": "uint8",
          "name": "support",
          "type": "uint8"
        },
        {
          "internalType": "address",
          "name": "voter",
          "type": "address"
        },
        {
          "internalType": "string",
          "name": "reason",
          "type": "string"
        },
        {
          "internalType": "bytes",
          "name": "params",
          "type": "bytes"
        },
        {
          "internalType": "bytes",
          "name": "signature",
          "type": "bytes"
        }
      ],
      "name": "castVoteWithReasonAndParamsBySig",
      "outputs": [
        {
          "internalType": "uint256",
          "name": "",
          "type": "uint256"
        }
      ],
      "stateMutability": "nonpayable",
      "type": "function"
    },
    {
      "inputs": [
        {
          "internalType": "uint256",
          "name": "_proposalId",
          "type": "uint256"
        },
        {
          "internalType": "bytes",
          "name": "_proof",
          "type": "bytes"
        },
        {
          "internalType": "bytes32[]",
          "name": "_inputs",
          "type": "bytes32[]"
        }
      ],
      "name": "castZKVote",
      "outputs": [],
      "stateMutability": "nonpayable",
      "type": "function"
    },
    {
      "inputs": [],
      "name": "clock",
      "outputs": [
        {
          "internalType": "uint48",
          "name": "",
          "type": "uint48"
        }
      ],
      "stateMutability": "view",
      "type": "function"
    },
    {
      "inputs": [],
      "name": "eip712Domain",
      "outputs": [
        {
          "internalType": "bytes1",
          "name": "fields",
          "type": "bytes1"
        },
        {
          "internalType": "string",
          "name": "name",
          "type": "string"
        },
        {
          "internalType": "string",
          "name": "version",
          "type": "string"
        },
        {
          "internalType": "uint256",
          "name": "chainId",
          "type": "uint256"
        },
        {
          "internalType": "address",
          "name": "verifyingContract",
          "type": "address"
        },
        {
          "internalType": "bytes32",
          "name": "salt",
          "type": "bytes32"
        },
        {
          "internalType": "uint256[]",
          "name": "extensions",
          "type": "uint256[]"
        }
      ],
      "stateMutability": "view",
      "type": "function"
    },
    {
      "inputs": [
        {
          "internalType": "address[]",
          "name": "targets",
          "type": "address[]"
        },
        {
          "internalType": "uint256[]",
          "name": "values",
          "type": "uint256[]"
        },
        {
          "internalType": "bytes[]",
          "name": "calldatas",
          "type": "bytes[]"
        },
        {
          "internalType": "bytes32",
          "name": "descriptionHash",
          "type": "bytes32"
        }
      ],
      "name": "execute",
      "outputs": [
        {
          "internalType": "uint256",
          "name": "",
          "type": "uint256"
        }
      ],
      "stateMutability": "payable",
      "type": "function"
    },
    {
      "inputs": [
        {
          "internalType": "uint256",
          "name": "_id",
          "type": "uint256"
        }
      ],
      "name": "getCid",
      "outputs": [
        {
          "internalType": "string",
          "name": "",
          "type": "string"
        }
      ],
      "stateMutability": "view",
      "type": "function"
    },
    {
      "inputs": [],
      "name": "getDescription",
      "outputs": [
        {
          "internalType": "string",
          "name": "",
          "type": "string"
        }
      ],
      "stateMutability": "view",
      "type": "function"
    },
    {
      "inputs": [],
      "name": "getId",
      "outputs": [
        {
          "internalType": "uint256",
          "name": "",
          "type": "uint256"
        }
      ],
      "stateMutability": "view",
      "type": "function"
    },
    {
      "inputs": [],
      "name": "getLogo",
      "outputs": [
        {
          "internalType": "string",
          "name": "",
          "type": "string"
        }
      ],
      "stateMutability": "view",
      "type": "function"
    },
    {
      "inputs": [
        {
          "internalType": "uint256",
          "name": "_id",
          "type": "uint256"
        },
        {
          "internalType": "uint256",
          "name": "nullifier",
          "type": "uint256"
        }
      ],
      "name": "getNullifierUsed",
      "outputs": [
        {
          "internalType": "bool",
          "name": "",
          "type": "bool"
        }
      ],
      "stateMutability": "view",
      "type": "function"
    },
    {
      "inputs": [
        {
          "internalType": "uint256",
          "name": "_id",
          "type": "uint256"
        }
      ],
      "name": "getProposal",
      "outputs": [
        {
          "components": [
            {
              "internalType": "uint256",
              "name": "id",
              "type": "uint256"
            },
            {
              "internalType": "uint256",
              "name": "proposalNumber",
              "type": "uint256"
            },
            {
              "internalType": "uint256",
              "name": "createdAt",
              "type": "uint256"
            },
            {
              "internalType": "address",
              "name": "proposer",
              "type": "address"
            },
            {
              "internalType": "string",
              "name": "description",
              "type": "string"
            }
          ],
          "internalType": "struct IGovernor.ProposalStorage",
          "name": "",
          "type": "tuple"
        }
      ],
      "stateMutability": "view",
      "type": "function"
    },
    {
      "inputs": [],
      "name": "getProposalCounter",
      "outputs": [
        {
          "internalType": "uint256",
          "name": "",
          "type": "uint256"
        }
      ],
      "stateMutability": "view",
      "type": "function"
    },
    {
      "inputs": [
        {
          "internalType": "address[]",
          "name": "targets",
          "type": "address[]"
        },
        {
          "internalType": "uint256[]",
          "name": "values",
          "type": "uint256[]"
        },
        {
          "internalType": "bytes[]",
          "name": "calldatas",
          "type": "bytes[]"
        },
        {
          "internalType": "bytes32",
          "name": "descriptionHash",
          "type": "bytes32"
        }
      ],
      "name": "getProposalId",
      "outputs": [
        {
          "internalType": "uint256",
          "name": "",
          "type": "uint256"
        }
      ],
      "stateMutability": "view",
      "type": "function"
    },
    {
      "inputs": [],
      "name": "getVerifier",
      "outputs": [
        {
          "internalType": "contract IVerifier",
          "name": "",
          "type": "address"
        }
      ],
      "stateMutability": "view",
      "type": "function"
    },
    {
      "inputs": [
        {
          "internalType": "address",
          "name": "account",
          "type": "address"
        },
        {
          "internalType": "uint256",
          "name": "timepoint",
          "type": "uint256"
        }
      ],
      "name": "getVotes",
      "outputs": [
        {
          "internalType": "uint256",
          "name": "",
          "type": "uint256"
        }
      ],
      "stateMutability": "view",
      "type": "function"
    },
    {
      "inputs": [
        {
          "internalType": "address",
          "name": "account",
          "type": "address"
        },
        {
          "internalType": "uint256",
          "name": "timepoint",
          "type": "uint256"
        },
        {
          "internalType": "bytes",
          "name": "params",
          "type": "bytes"
        }
      ],
      "name": "getVotesWithParams",
      "outputs": [
        {
          "internalType": "uint256",
          "name": "",
          "type": "uint256"
        }
      ],
      "stateMutability": "view",
      "type": "function"
    },
    {
      "inputs": [],
      "name": "getZKDAO",
      "outputs": [
        {
          "internalType": "contract IZKDAO",
          "name": "",
          "type": "address"
        }
      ],
      "stateMutability": "view",
      "type": "function"
    },
    {
      "inputs": [
        {
          "internalType": "uint256",
          "name": "_id",
          "type": "uint256"
        }
      ],
      "name": "getZKVote",
      "outputs": [
        {
          "internalType": "uint256",
          "name": "againstVotes",
          "type": "uint256"
        },
        {
          "internalType": "uint256",
          "name": "forVotes",
          "type": "uint256"
        },
        {
          "internalType": "uint256",
          "name": "abstainVotes",
          "type": "uint256"
        }
      ],
      "stateMutability": "view",
      "type": "function"
    },
    {
      "inputs": [
        {
          "internalType": "uint256",
          "name": "proposalId",
          "type": "uint256"
        },
        {
          "internalType": "address",
          "name": "account",
          "type": "address"
        }
      ],
      "name": "hasVoted",
      "outputs": [
        {
          "internalType": "bool",
          "name": "",
          "type": "bool"
        }
      ],
      "stateMutability": "view",
      "type": "function"
    },
    {
      "inputs": [
        {
          "internalType": "address[]",
          "name": "targets",
          "type": "address[]"
        },
        {
          "internalType": "uint256[]",
          "name": "values",
          "type": "uint256[]"
        },
        {
          "internalType": "bytes[]",
          "name": "calldatas",
          "type": "bytes[]"
        },
        {
          "internalType": "bytes32",
          "name": "descriptionHash",
          "type": "bytes32"
        }
      ],
      "name": "hashProposal",
      "outputs": [
        {
          "internalType": "uint256",
          "name": "",
          "type": "uint256"
        }
      ],
      "stateMutability": "pure",
      "type": "function"
    },
    {
      "inputs": [
        {
          "components": [
            {
              "internalType": "string",
              "name": "name",
              "type": "string"
            },
            {
              "internalType": "contract IVotes",
              "name": "token",
              "type": "address"
            },
            {
              "internalType": "contract TimelockControllerUpgradeable",
              "name": "timelock",
              "type": "address"
            },
            {
              "internalType": "uint48",
              "name": "votingDelay",
              "type": "uint48"
            },
            {
              "internalType": "uint32",
              "name": "votingPeriod",
              "type": "uint32"
            },
            {
              "internalType": "uint256",
              "name": "proposalThreshold",
              "type": "uint256"
            },
            {
              "internalType": "uint256",
              "name": "votesQuorumFraction",
              "type": "uint256"
            },
            {
              "internalType": "uint256",
              "name": "id",
              "type": "uint256"
            },
            {
              "internalType": "string",
              "name": "description",
              "type": "string"
            },
            {
              "internalType": "string",
              "name": "logo",
              "type": "string"
            }
          ],
          "internalType": "struct IGovernor.GovernorInitParams",
          "name": "params",
          "type": "tuple"
        },
        {
          "internalType": "contract IVerifier",
          "name": "_verifier",
          "type": "address"
        }
      ],
      "name": "initialize",
      "outputs": [],
      "stateMutability": "nonpayable",
      "type": "function"
    },
    {
      "inputs": [
        {
          "internalType": "uint256",
          "name": "_id",
          "type": "uint256"
        }
      ],
      "name": "isWaitingMerkle",
      "outputs": [
        {
          "internalType": "bool",
          "name": "",
          "type": "bool"
        }
      ],
      "stateMutability": "view",
      "type": "function"
    },
    {
      "inputs": [],
      "name": "name",
      "outputs": [
        {
          "internalType": "string",
          "name": "",
          "type": "string"
        }
      ],
      "stateMutability": "view",
      "type": "function"
    },
    {
      "inputs": [
        {
          "internalType": "address",
          "name": "owner",
          "type": "address"
        }
      ],
      "name": "nonces",
      "outputs": [
        {
          "internalType": "uint256",
          "name": "",
          "type": "uint256"
        }
      ],
      "stateMutability": "view",
      "type": "function"
    },
    {
      "inputs": [
        {
          "internalType": "address",
          "name": "",
          "type": "address"
        },
        {
          "internalType": "address",
          "name": "",
          "type": "address"
        },
        {
          "internalType": "uint256[]",
          "name": "",
          "type": "uint256[]"
        },
        {
          "internalType": "uint256[]",
          "name": "",
          "type": "uint256[]"
        },
        {
          "internalType": "bytes",
          "name": "",
          "type": "bytes"
        }
      ],
      "name": "onERC1155BatchReceived",
      "outputs": [
        {
          "internalType": "bytes4",
          "name": "",
          "type": "bytes4"
        }
      ],
      "stateMutability": "nonpayable",
      "type": "function"
    },
    {
      "inputs": [
        {
          "internalType": "address",
          "name": "",
          "type": "address"
        },
        {
          "internalType": "address",
          "name": "",
          "type": "address"
        },
        {
          "internalType": "uint256",
          "name": "",
          "type": "uint256"
        },
        {
          "internalType": "uint256",
          "name": "",
          "type": "uint256"
        },
        {
          "internalType": "bytes",
          "name": "",
          "type": "bytes"
        }
      ],
      "name": "onERC1155Received",
      "outputs": [
        {
          "internalType": "bytes4",
          "name": "",
          "type": "bytes4"
        }
      ],
      "stateMutability": "nonpayable",
      "type": "function"
    },
    {
      "inputs": [
        {
          "internalType": "address",
          "name": "",
          "type": "address"
        },
        {
          "internalType": "address",
          "name": "",
          "type": "address"
        },
        {
          "internalType": "uint256",
          "name": "",
          "type": "uint256"
        },
        {
          "internalType": "bytes",
          "name": "",
          "type": "bytes"
        }
      ],
      "name": "onERC721Received",
      "outputs": [
        {
          "internalType": "bytes4",
          "name": "",
          "type": "bytes4"
        }
      ],
      "stateMutability": "nonpayable",
      "type": "function"
    },
    {
      "inputs": [
        {
          "internalType": "uint256",
          "name": "proposalId",
          "type": "uint256"
        }
      ],
      "name": "proposalDeadline",
      "outputs": [
        {
          "internalType": "uint256",
          "name": "",
          "type": "uint256"
        }
      ],
      "stateMutability": "view",
      "type": "function"
    },
    {
      "inputs": [
        {
          "internalType": "uint256",
          "name": "proposalId",
          "type": "uint256"
        }
      ],
      "name": "proposalEta",
      "outputs": [
        {
          "internalType": "uint256",
          "name": "",
          "type": "uint256"
        }
      ],
      "stateMutability": "view",
      "type": "function"
    },
    {
      "inputs": [
        {
          "internalType": "uint256",
          "name": "proposalId",
          "type": "uint256"
        }
      ],
      "name": "proposalNeedsQueuing",
      "outputs": [
        {
          "internalType": "bool",
          "name": "",
          "type": "bool"
        }
      ],
      "stateMutability": "view",
      "type": "function"
    },
    {
      "inputs": [
        {
          "internalType": "uint256",
          "name": "proposalId",
          "type": "uint256"
        }
      ],
      "name": "proposalProposer",
      "outputs": [
        {
          "internalType": "address",
          "name": "",
          "type": "address"
        }
      ],
      "stateMutability": "view",
      "type": "function"
    },
    {
      "inputs": [
        {
          "internalType": "uint256",
          "name": "proposalId",
          "type": "uint256"
        }
      ],
      "name": "proposalSnapshot",
      "outputs": [
        {
          "internalType": "uint256",
          "name": "",
          "type": "uint256"
        }
      ],
      "stateMutability": "view",
      "type": "function"
    },
    {
      "inputs": [],
      "name": "proposalThreshold",
      "outputs": [
        {
          "internalType": "uint256",
          "name": "",
          "type": "uint256"
        }
      ],
      "stateMutability": "view",
      "type": "function"
    },
    {
      "inputs": [
        {
          "internalType": "uint256",
          "name": "proposalId",
          "type": "uint256"
        }
      ],
      "name": "proposalVotes",
      "outputs": [
        {
          "internalType": "uint256",
          "name": "againstVotes",
          "type": "uint256"
        },
        {
          "internalType": "uint256",
          "name": "forVotes",
          "type": "uint256"
        },
        {
          "internalType": "uint256",
          "name": "abstainVotes",
          "type": "uint256"
        }
      ],
      "stateMutability": "view",
      "type": "function"
    },
    {
      "inputs": [
        {
          "internalType": "address[]",
          "name": "targets",
          "type": "address[]"
        },
        {
          "internalType": "uint256[]",
          "name": "values",
          "type": "uint256[]"
        },
        {
          "internalType": "bytes[]",
          "name": "calldatas",
          "type": "bytes[]"
        },
        {
          "internalType": "string",
          "name": "_description",
          "type": "string"
        }
      ],
      "name": "propose",
      "outputs": [
        {
          "internalType": "uint256",
          "name": "",
          "type": "uint256"
        }
      ],
      "stateMutability": "nonpayable",
      "type": "function"
    },
    {
      "inputs": [
        {
          "internalType": "address[]",
          "name": "targets",
          "type": "address[]"
        },
        {
          "internalType": "uint256[]",
          "name": "values",
          "type": "uint256[]"
        },
        {
          "internalType": "bytes[]",
          "name": "calldatas",
          "type": "bytes[]"
        },
        {
          "internalType": "bytes32",
          "name": "descriptionHash",
          "type": "bytes32"
        }
      ],
      "name": "queue",
      "outputs": [
        {
          "internalType": "uint256",
          "name": "",
          "type": "uint256"
        }
      ],
      "stateMutability": "nonpayable",
      "type": "function"
    },
    {
      "inputs": [
        {
          "internalType": "uint256",
          "name": "timepoint",
          "type": "uint256"
        }
      ],
      "name": "quorum",
      "outputs": [
        {
          "internalType": "uint256",
          "name": "",
          "type": "uint256"
        }
      ],
      "stateMutability": "view",
      "type": "function"
    },
    {
      "inputs": [],
      "name": "quorumDenominator",
      "outputs": [
        {
          "internalType": "uint256",
          "name": "",
          "type": "uint256"
        }
      ],
      "stateMutability": "view",
      "type": "function"
    },
    {
      "inputs": [
        {
          "internalType": "uint256",
          "name": "timepoint",
          "type": "uint256"
        }
      ],
      "name": "quorumNumerator",
      "outputs": [
        {
          "internalType": "uint256",
          "name": "",
          "type": "uint256"
        }
      ],
      "stateMutability": "view",
      "type": "function"
    },
    {
      "inputs": [],
      "name": "quorumNumerator",
      "outputs": [
        {
          "internalType": "uint256",
          "name": "",
          "type": "uint256"
        }
      ],
      "stateMutability": "view",
      "type": "function"
    },
    {
      "inputs": [
        {
          "internalType": "address",
          "name": "target",
          "type": "address"
        },
        {
          "internalType": "uint256",
          "name": "value",
          "type": "uint256"
        },
        {
          "internalType": "bytes",
          "name": "data",
          "type": "bytes"
        }
      ],
      "name": "relay",
      "outputs": [],
      "stateMutability": "payable",
      "type": "function"
    },
    {
      "inputs": [
        {
          "internalType": "uint256",
          "name": "newProposalThreshold",
          "type": "uint256"
        }
      ],
      "name": "setProposalThreshold",
      "outputs": [],
      "stateMutability": "nonpayable",
      "type": "function"
    },
    {
      "inputs": [
        {
          "internalType": "uint256",
          "name": "_proposalId",
          "type": "uint256"
        },
        {
          "internalType": "string",
          "name": "_cid",
          "type": "string"
        }
      ],
      "name": "setRoot",
      "outputs": [],
      "stateMutability": "nonpayable",
      "type": "function"
    },
    {
      "inputs": [
        {
          "internalType": "uint48",
          "name": "newVotingDelay",
          "type": "uint48"
        }
      ],
      "name": "setVotingDelay",
      "outputs": [],
      "stateMutability": "nonpayable",
      "type": "function"
    },
    {
      "inputs": [
        {
          "internalType": "uint32",
          "name": "newVotingPeriod",
          "type": "uint32"
        }
      ],
      "name": "setVotingPeriod",
      "outputs": [],
      "stateMutability": "nonpayable",
      "type": "function"
    },
    {
      "inputs": [
        {
          "internalType": "uint256",
          "name": "proposalId",
          "type": "uint256"
        }
      ],
      "name": "state",
      "outputs": [
        {
          "internalType": "enum IGovernor.ProposalState",
          "name": "",
          "type": "uint8"
        }
      ],
      "stateMutability": "view",
      "type": "function"
    },
    {
      "inputs": [
        {
          "internalType": "bytes4",
          "name": "interfaceId",
          "type": "bytes4"
        }
      ],
      "name": "supportsInterface",
      "outputs": [
        {
          "internalType": "bool",
          "name": "",
          "type": "bool"
        }
      ],
      "stateMutability": "view",
      "type": "function"
    },
    {
      "inputs": [
        {
          "internalType": "uint256",
          "name": "_id",
          "type": "uint256"
        }
      ],
      "name": "timeLeft",
      "outputs": [
        {
          "internalType": "uint256",
          "name": "",
          "type": "uint256"
        }
      ],
      "stateMutability": "view",
      "type": "function"
    },
    {
      "inputs": [],
      "name": "timelock",
      "outputs": [
        {
          "internalType": "address",
          "name": "",
          "type": "address"
        }
      ],
      "stateMutability": "view",
      "type": "function"
    },
    {
      "inputs": [],
      "name": "token",
      "outputs": [
        {
          "internalType": "contract IERC5805",
          "name": "",
          "type": "address"
        }
      ],
      "stateMutability": "view",
      "type": "function"
    },
    {
      "inputs": [
        {
          "internalType": "uint256",
          "name": "newQuorumNumerator",
          "type": "uint256"
        }
      ],
      "name": "updateQuorumNumerator",
      "outputs": [],
      "stateMutability": "nonpayable",
      "type": "function"
    },
    {
      "inputs": [
        {
          "internalType": "contract TimelockControllerUpgradeable",
          "name": "newTimelock",
          "type": "address"
        }
      ],
      "name": "updateTimelock",
      "outputs": [],
      "stateMutability": "nonpayable",
      "type": "function"
    },
    {
      "inputs": [],
      "name": "version",
      "outputs": [
        {
          "internalType": "string",
          "name": "",
          "type": "string"
        }
      ],
      "stateMutability": "view",
      "type": "function"
    },
    {
      "inputs": [],
      "name": "votingDelay",
      "outputs": [
        {
          "internalType": "uint256",
          "name": "",
          "type": "uint256"
        }
      ],
      "stateMutability": "view",
      "type": "function"
    },
    {
      "inputs": [],
      "name": "votingPeriod",
      "outputs": [
        {
          "internalType": "uint256",
          "name": "",
          "type": "uint256"
        }
      ],
      "stateMutability": "view",
      "type": "function"
    },
    {
      "stateMutability": "payable",
      "type": "receive"
    }
  ],
  "numDeployments": 2,
  "solcInputHash": "c32965fbba773564902d3f36c543b57f",
  "bytecode": "0x6080604052348015600f57600080fd5b506016601a565b60ca565b7ff0c57e16840df040f15088dc2f81fe391c3923bec73e23a9662efc9c229c6a00805468010000000000000000900460ff161560695760405163f92ee8a960e01b815260040160405180910390fd5b80546001600160401b039081161460c75780546001600160401b0319166001600160401b0390811782556040519081527fc7f505b2f371ae2175ee4913f4499e1f2633a7b5936321eed1cdaeb6115181d29060200160405180910390a15b50565b615c6e806100d96000396000f3fe6080604052600436106103c75760003560e01c80637d5e81e2116101f2578063bc197c811161010d578063e540d01d116100a0578063f23a6e611161006f578063f23a6e6114610ca2578063f8ce560a14610cc2578063fc0c546a14610ce2578063febdecb714610cf757600080fd5b8063e540d01d14610c22578063e6bf100314610c42578063eb9019d414610c62578063ece40cc114610c8257600080fd5b8063c7f758a8116100dc578063c7f758a814610b66578063d33219b414610b93578063dd4e2ba514610ba8578063deaaa7cc14610bee57600080fd5b8063bc197c8114610af3578063c01f9e3714610b13578063c28bc2fa14610b33578063c59057e414610b4657600080fd5b8063a7713a7011610185578063ab58fb8e11610154578063ab58fb8e14610a3f578063b08d743414610a84578063b483060d14610aa4578063b58131b014610ade57600080fd5b8063a7713a70146109ca578063a890c910146109df578063a8f8a668146109ff578063a9a9529414610a1f57600080fd5b80638ff262e3116101c15780638ff262e31461094a57806391ddadf41461096a57806397c3d334146109965780639a802a6d146109aa57600080fd5b80637d5e81e2146108985780637ecebe00146108b857806384b0196e1461090d5780638d5b40671461093557600080fd5b806343859632116102e25780635b8d0e0d11610275578063665a3c1811610244578063665a3c181461081a578063684f83ef1461083a57806379051887146108585780637b3c71d31461087857600080fd5b80635b8d0e0d146107a55780635d1ca631146107c55780635f398a14146107da57806360c4247f146107fa57600080fd5b80634bf5d7e9116102b15780634bf5d7e91461070b578063544ffc9c1461072057806354fd4d501461075b578063567813881461078557600080fd5b80634385963214610656578063452115d6146106ad57806346657fe9146106cd57806347cb7a68146106eb57600080fd5b80631a0925411161035a5780633216e1f6116103295780633216e1f6146105bf5780633932abb1146105df5780633beaa6ab146106095780633e4f49e61461062957600080fd5b80631a092541146105435780632656227d146105585780632d63f6931461056b5780632fe3e2611461058b57600080fd5b80630b6700d6116103965780630b6700d61461049d578063143489d0146104b2578063150b7a02146104ea578063160cbed71461052357600080fd5b806301ffc9a71461040357806302a251a31461043857806306f3f9e61461045b57806306fdde031461047b57600080fd5b366103fe57306103d5610d32565b6001600160a01b0316146103fc57604051637485328f60e11b815260040160405180910390fd5b005b600080fd5b34801561040f57600080fd5b5061042361041e366004614678565b610d41565b60405190151581526020015b60405180910390f35b34801561044457600080fd5b5061044d610dae565b60405190815260200161042f565b34801561046757600080fd5b506103fc6104763660046146a2565b610dce565b34801561048757600080fd5b50610490610de2565b60405161042f919061470b565b3480156104a957600080fd5b50610490610e86565b3480156104be57600080fd5b506104d26104cd3660046146a2565b610f18565b6040516001600160a01b03909116815260200161042f565b3480156104f657600080fd5b5061050a6105053660046147f9565b610f40565b6040516001600160e01b0319909116815260200161042f565b34801561052f57600080fd5b5061044d61053e3660046149d8565b610f83565b34801561054f57600080fd5b50610490611065565b61044d6105663660046149d8565b611074565b34801561057757600080fd5b5061044d6105863660046146a2565b6111f8565b34801561059757600080fd5b5061044d7f3e83946653575f9a39005e1545185629e92736b7528ab20ca3816f315424a81181565b3480156105cb57600080fd5b506103fc6105da366004614a71565b611226565b3480156105eb57600080fd5b50600080516020615b798339815191525465ffffffffffff1661044d565b34801561061557600080fd5b506104906106243660046146a2565b61126e565b34801561063557600080fd5b506106496106443660046146a2565b611310565b60405161042f9190614aef565b34801561066257600080fd5b50610423610671366004614afd565b6000918252600080516020615bd9833981519152602090815260408084206001600160a01b039390931684526003909201905290205460ff1690565b3480156106b957600080fd5b5061044d6106c83660046149d8565b61131b565b3480156106d957600080fd5b506002546001600160a01b03166104d2565b3480156106f757600080fd5b5061044d6107063660046146a2565b611382565b34801561071757600080fd5b506104906113d3565b34801561072c57600080fd5b5061074061073b3660046146a2565b61147c565b6040805193845260208401929092529082015260600161042f565b34801561076757600080fd5b506040805180820190915260018152603160f81b6020820152610490565b34801561079157600080fd5b5061044d6107a0366004614b3e565b6114af565b3480156107b157600080fd5b5061044d6107c0366004614bb2565b6114d8565b3480156107d157600080fd5b5060015461044d565b3480156107e657600080fd5b5061044d6107f5366004614c76565b611619565b34801561080657600080fd5b5061044d6108153660046146a2565b611670565b34801561082657600080fd5b506103fc610835366004614cfd565b61169d565b34801561084657600080fd5b506003546001600160a01b03166104d2565b34801561086457600080fd5b506103fc610873366004614dbe565b6118ba565b34801561088457600080fd5b5061044d610893366004614ddb565b6118cb565b3480156108a457600080fd5b5061044d6108b3366004614e34565b61191d565b3480156108c457600080fd5b5061044d6108d3366004614ed8565b6001600160a01b031660009081527f5ab42ced628888259c08ac98db1eb0cf702fc1501344311d8b100cd1bfe4bb00602052604090205490565b34801561091957600080fd5b50610922611b26565b60405161042f9796959493929190614f31565b34801561094157600080fd5b5060005461044d565b34801561095657600080fd5b5061044d610965366004614fa1565b611bd2565b34801561097657600080fd5b5061097f611c86565b60405165ffffffffffff909116815260200161042f565b3480156109a257600080fd5b50606461044d565b3480156109b657600080fd5b5061044d6109c5366004614ff2565b611cf5565b3480156109d657600080fd5b5061044d611d02565b3480156109eb57600080fd5b506103fc6109fa366004614ed8565b611d3d565b348015610a0b57600080fd5b5061044d610a1a3660046149d8565b611d4e565b348015610a2b57600080fd5b50610423610a3a3660046146a2565b611d5c565b348015610a4b57600080fd5b5061044d610a5a3660046146a2565b6000908152600080516020615b59833981519152602052604090206001015465ffffffffffff1690565b348015610a9057600080fd5b506103fc610a9f36600461504a565b611d65565b348015610ab057600080fd5b50610740610abf3660046146a2565b6000908152600760205260409020805460018201546002909201549092565b348015610aea57600080fd5b5061044d611f7b565b348015610aff57600080fd5b5061050a610b0e366004615096565b611f93565b348015610b1f57600080fd5b5061044d610b2e3660046146a2565b611fd7565b6103fc610b41366004615134565b612038565b348015610b5257600080fd5b5061044d610b613660046149d8565b6120af565b348015610b7257600080fd5b50610b86610b813660046146a2565b6120e9565b60405161042f9190615177565b348015610b9f57600080fd5b506104d261220e565b348015610bb457600080fd5b506040805180820190915260208082527f737570706f72743d627261766f2671756f72756d3d666f722c6162737461696e90820152610490565b348015610bfa57600080fd5b5061044d7ff2aad550cf55f045cb27e9c559f9889fdfb6e6cdaa032301d6ea397784ae51d781565b348015610c2e57600080fd5b506103fc610c3d3660046151c2565b612231565b348015610c4e57600080fd5b50610423610c5d3660046146a2565b612242565b348015610c6e57600080fd5b5061044d610c7d3660046151e8565b612288565b348015610c8e57600080fd5b506103fc610c9d3660046146a2565b6122a9565b348015610cae57600080fd5b5061050a610cbd366004615214565b6122ba565b348015610cce57600080fd5b5061044d610cdd3660046146a2565b6122fe565b348015610cee57600080fd5b506104d2612389565b348015610d0357600080fd5b50610423610d12366004615270565b600091825260096020908152604080842092845291905290205460ff1690565b6000610d3c61220e565b905090565b60006001600160e01b031982166366defe7760e11b1480610d7257506001600160e01b031982166332a2ad4360e11b145b80610d8d57506001600160e01b03198216630271189760e51b145b80610da857506301ffc9a760e01b6001600160e01b03198316145b92915050565b600080516020615b7983398151915254600160301b900463ffffffff1690565b610dd66123b2565b610ddf8161243e565b50565b600080516020615c198339815191528054606091908190610e0290615292565b80601f0160208091040260200160405190810160405280929190818152602001828054610e2e90615292565b8015610e7b5780601f10610e5057610100808354040283529160200191610e7b565b820191906000526020600020905b815481529060010190602001808311610e5e57829003601f168201915b505050505091505090565b606060058054610e9590615292565b80601f0160208091040260200160405190810160405280929190818152602001828054610ec190615292565b8015610f0e5780601f10610ee357610100808354040283529160200191610f0e565b820191906000526020600020905b815481529060010190602001808311610ef157829003601f168201915b5050505050905090565b6000908152600080516020615b5983398151915260205260409020546001600160a01b031690565b600030610f4b610d32565b6001600160a01b031614610f7257604051637485328f60e11b815260040160405180910390fd5b50630a85bd0160e11b949350505050565b6000600080516020615c1983398151915281610fa187878787611d4e565b9050610fb681610fb160046124f5565b612518565b506000610fc682898989896125c7565b905065ffffffffffff81161561104157600082815260018481016020908152604092839020909101805465ffffffffffff191665ffffffffffff85169081179091558251858152918201527f9a2e42fd6722813d69113e7d0079d3d940171428df7373df9c7f7617cfda2892910160405180910390a161105a565b604051634844252360e11b815260040160405180910390fd5b509695505050505050565b606060048054610e9590615292565b6000600080516020615c198339815191528161109287878787611d4e565b90506110b2816110a260056124f5565b6110ac60046124f5565b17612518565b5060008181526001830160205260409020805460ff60f01b1916600160f01b179055306110dd610d32565b6001600160a01b0316146111695760005b875181101561116757306001600160a01b0316888281518110611113576111136152cc565b60200260200101516001600160a01b03160361115f5761115f86828151811061113e5761113e6152cc565b602002602001015180519060200120846002016125d690919063ffffffff16565b6001016110ee565b505b6111768188888888612638565b3061117f610d32565b6001600160a01b0316141580156111ad575060028201546001600160801b03808216600160801b9092041614155b156111ba57600060028301555b6040518181527f712ae1383f79ac853f8d882153778e0260ef8f03b504e2866e0593e04d2b291f906020015b60405180910390a19695505050505050565b6000908152600080516020615b598339815191526020526040902054600160a01b900465ffffffffffff1690565b6003546001600160a01b031633146112515760405163075fd2b160e01b815260040160405180910390fd5b60008281526008602052604090206112698282615329565b505050565b600081815260086020526040902080546060919061128b90615292565b80601f01602080910402602001604051908101604052809291908181526020018280546112b790615292565b80156113045780601f106112d957610100808354040283529160200191611304565b820191906000526020600020905b8154815290600101906020018083116112e757829003601f168201915b50505050509050919050565b6000610da88261264c565b60008061132a86868686611d4e565b905033611337828261279e565b61136b57604051638fe5d8a960e01b8152600481018390526001600160a01b03821660248201526044015b60405180910390fd5b611377878787876127e8565b979650505050505050565b600080600161139084611310565b60078111156113a1576113a1614ab7565b03610da857426113af610dae565b6113b8856111f8565b6113c291906153fd565b6113cc9190615410565b9392505050565b60606113dd612389565b6001600160a01b0316634bf5d7e96040518163ffffffff1660e01b8152600401600060405180830381865afa92505050801561143b57506040513d6000823e601f3d908101601f191682016040526114389190810190615423565b60015b611477575060408051808201909152601d81527f6d6f64653d626c6f636b6e756d6265722666726f6d3d64656661756c74000000602082015290565b919050565b6000818152600080516020615bd983398151915260205260409020805460018201546002909201549091905b9193909250565b6000803390506114d0848285604051806020016040528060008152506127f6565b949350505050565b60008061159d876115977f3e83946653575f9a39005e1545185629e92736b7528ab20ca3816f315424a8118c8c8c61150f8e612819565b8d8d60405161151f929190615490565b60405180910390208c8051906020012060405160200161157c9796959493929190968752602087019590955260ff9390931660408601526001600160a01b03919091166060850152608084015260a083015260c082015260e00190565b6040516020818303038152906040528051906020012061285b565b85612888565b9050806115c8576040516394ab6c0760e01b81526001600160a01b0388166004820152602401611362565b61160c89888a89898080601f0160208091040260200160405190810160405280939291908181526020018383808284376000920191909152508b92506128fc915050565b9998505050505050505050565b60008033905061166387828888888080601f0160208091040260200160405190810160405280939291908181526020018383808284376000920191909152508a92506128fc915050565b9150505b95945050505050565b60007fe770710421fd2cad75ad828c61aa98f2d77d423a440b67872d0f65554148e0006113cc81846129de565b60016116a886611310565b60078111156116b9576116b9614ab7565b146116d75760405163815bbb2960e01b815260040160405180910390fd5b600254604051633a94343960e21b81526001600160a01b039091169063ea50d0e49061170d9087908790879087906004016154a0565b602060405180830381865afa15801561172a573d6000803e3d6000fd5b505050506040513d601f19601f8201168201806040525081019061174e9190615504565b61176b576040516325b006f960e21b815260040160405180910390fd5b600082826000818110611780576117806152cc565b9050602002013560001c90506000838360018181106117a1576117a16152cc565b9050602002013560001c90506000848460028181106117c2576117c26152cc565b60008b81526009602090815260408083208984528252909120549102929092013592505060ff161561180757604051631b1796cb60e01b815260040160405180910390fd5b60008881526009602090815260408083208684528252808320805460ff1916600117905580519182019052818152611844918a9184908690612a2d565b50877f18c4c3b353f05da04c02f7d2097af38c1a07f786422406df1ad2bdf7f0c5401382848888600081811061187c5761187c6152cc565b905060200201356040516118a89392919060ff9390931683526020830191909152604082015260600190565b60405180910390a25050505050505050565b6118c26123b2565b610ddf81612b2e565b60008033905061191386828787878080601f0160208091040260200160405190810160405280939291908181526020018383808284376000920191909152506127f692505050565b9695505050505050565b60003361192a8184612bb2565b6119525760405163d9b3955760e01b81526001600160a01b0382166004820152602401611362565b600061195c611f7b565b905080156119c957600061198b836001611974611c86565b61197e9190615526565b65ffffffffffff16612288565b9050818110156119c757604051636121770b60e11b81526001600160a01b03841660048201526024810182905260448101839052606401611362565b505b60006119d88888888887612c38565b60008054919250806119e983615544565b90915550506040805160a081018252828152600080546020808401828152428587019081526001600160a01b038a811660608801908152608088018e8152958752600690945296909420855181559051600182015592516002840155516003830180546001600160a01b031916919095161790935591519091906004820190611a729082615329565b509050506000611a81826111f8565b6003546001549192506001600160a01b03169063da51c3ac90848443611aa5612389565b6040516001600160e01b031960e088901b16815260048101959095526024850193909352604484019190915260648301526001600160a01b0316608482015260a401600060405180830381600087803b158015611b0157600080fd5b505af1158015611b15573d6000803e3d6000fd5b50939b9a5050505050505050505050565b60006060808280808381600080516020615b998339815191528054909150158015611b5357506001810154155b611b975760405162461bcd60e51b81526020600482015260156024820152741152540dcc4c8e88155b9a5b9a5d1a585b1a5e9959605a1b6044820152606401611362565b611b9f612e76565b611ba7612eb5565b60408051600080825260208201909252600f60f81b9c939b5091995046985030975095509350915050565b600080611c40846115977ff2aad550cf55f045cb27e9c559f9889fdfb6e6cdaa032301d6ea397784ae51d7898989611c098b612819565b60408051602081019690965285019390935260ff90911660608401526001600160a01b0316608083015260a082015260c00161157c565b905080611c6b576040516394ab6c0760e01b81526001600160a01b0385166004820152602401611362565b611913868587604051806020016040528060008152506127f6565b6000611c90612389565b6001600160a01b03166391ddadf46040518163ffffffff1660e01b8152600401602060405180830381865afa925050508015611ce9575060408051601f3d908101601f19168201909252611ce69181019061555d565b60015b61147757610d3c612ef4565b60006114d0848484612eff565b60007fe770710421fd2cad75ad828c61aa98f2d77d423a440b67872d0f65554148e000611d2e81612f7c565b6001600160d01b031691505090565b611d456123b2565b610ddf81612fc3565b6000611667858585856120af565b60006001610da8565b6000611d6f613039565b805490915060ff600160401b82041615906001600160401b0316600081158015611d965750825b90506000826001600160401b03166001148015611db25750303b155b905081158015611dc0575080155b15611dde5760405163f92ee8a960e01b815260040160405180910390fd5b845467ffffffffffffffff191660011785558315611e0857845460ff60401b1916600160401b1785555b611e4f611e15888061557a565b8080601f01602080910402602001604051908101604052809392919081815260200183838082843760009201919091525061306292505050565b611e7c611e626080890160608a01614dbe565b611e7260a08a0160808b016151c2565b8960a0013561309a565b611e846130ad565b611e9c611e976040890160208a01614ed8565b6130b7565b611ea98760c001356130c8565b611ec1611ebc6060890160408a01614ed8565b6130d9565b60e0870135600155600280546001600160a01b0388166001600160a01b0319918216179091556003805490911633179055611f0061010088018861557a565b600491611f0e9190836155c0565b50611f1d61012088018861557a565b600591611f2b9190836155c0565b508315611f7257845460ff60401b19168555604051600181527fc7f505b2f371ae2175ee4913f4499e1f2633a7b5936321eed1cdaeb6115181d29060200160405180910390a15b50505050505050565b6000610d3c600080516020615bb98339815191525490565b600030611f9e610d32565b6001600160a01b031614611fc557604051637485328f60e11b815260040160405180910390fd5b5063bc197c8160e01b95945050505050565b6000818152600080516020615b598339815191526020526040812054600080516020615c198339815191529061202990600160d01b810463ffffffff1690600160a01b900465ffffffffffff1661567f565b65ffffffffffff169392505050565b6120406123b2565b600080856001600160a01b031685858560405161205e929190615490565b60006040518083038185875af1925050503d806000811461209b576040519150601f19603f3d011682016040523d82523d6000602084013e6120a0565b606091505b5091509150611f7282826130ea565b6000848484846040516020016120c89493929190615734565b60408051601f19818403018152919052805160209091012095945050505050565b6121246040518060a0016040528060008152602001600081526020016000815260200160006001600160a01b03168152602001606081525090565b600082815260066020908152604091829020825160a0810184528154815260018201549281019290925260028101549282019290925260038201546001600160a01b0316606082015260048201805491929160808401919061218590615292565b80601f01602080910402602001604051908101604052809291908181526020018280546121b190615292565b80156121fe5780601f106121d3576101008083540402835291602001916121fe565b820191906000526020600020905b8154815290600101906020018083116121e157829003601f168201915b5050505050815250509050919050565b600080600080516020615bf98339815191525b546001600160a01b031692915050565b6122396123b2565b610ddf81613106565b60008061224e8361264c565b600781111561225f5761225f614ab7565b148015610da857506000828152600860205260409020805461228090615292565b159392505050565b60006113cc83836122a460408051602081019091526000815290565b612eff565b6122b16123b2565b610ddf816131b6565b6000306122c5610d32565b6001600160a01b0316146122ec57604051637485328f60e11b815260040160405180910390fd5b5063f23a6e6160e01b95945050505050565b6000610da861230b612389565b6001600160a01b0316638e539e8c846040518263ffffffff1660e01b815260040161233891815260200190565b602060405180830381865afa158015612355573d6000803e3d6000fd5b505050506040513d601f19601f82011682018060405250810190612379919061577f565b61238284611670565b6064613204565b6000807f3ba4977254e415696610a40ebf2258dbfa0ec6a2ff64e84bfe715ff16977cc00612221565b600080516020615c19833981519152336123ca610d32565b6001600160a01b0316146123f3576040516347096e4760e01b8152336004820152602401611362565b306123fc610d32565b6001600160a01b031614610ddf576000803660405161241c929190615490565b604051809103902090505b80612434836002016132b9565b03612427575b5050565b7fe770710421fd2cad75ad828c61aa98f2d77d423a440b67872d0f65554148e00060648083111561248c5760405163243e544560e01b81526004810184905260248101829052604401611362565b6000612496611d02565b90506124b46124a3611c86565b6124ac86613328565b859190613360565b505060408051828152602081018690527f0553476bf02ef2726e8ce5ced78d63e26e602e4a2257b1f559418e24b4633997910160405180910390a150505050565b600081600781111561250957612509614ab7565b600160ff919091161b92915050565b60008061252484611310565b90506125686040518060400160405280600c81526020016b63757272656e74537461746560a01b81525082600781111561256057612560614ab7565b60ff1661337b565b60408051808201909152600d81526c616c6c6f77656453746174657360981b6020820152612596908461337b565b6000836125a2836124f5565b16036113cc578381846040516331b75e4d60e01b815260040161136293929190615798565b600061191386868686866133c0565b81546001600160801b03600160801b820481169181166001830190911603612602576126026041613567565b6001600160801b03808216600090815260018086016020526040909120939093558354919092018216600160801b029116179055565b6126458585858585613579565b5050505050565b6000600080516020615bf98339815191528161266784613621565b9050600581600781111561267d5761267d614ab7565b14612689579392505050565b6000848152600183016020526040908190205483549151632c258a9f60e11b81526004810182905290916001600160a01b03169063584b153e90602401602060405180830381865afa1580156126e3573d6000803e3d6000fd5b505050506040513d601f19601f820116820180604052508101906127079190615504565b1561271757506005949350505050565b8254604051632ab0f52960e01b8152600481018390526001600160a01b0390911690632ab0f52990602401602060405180830381865afa15801561275f573d6000803e3d6000fd5b505050506040513d601f19601f820116820180604052508101906127839190615504565b1561279357506007949350505050565b506002949350505050565b6000806127aa84611310565b60078111156127bb576127bb614ab7565b1480156113cc57506127cc83610f18565b6001600160a01b0316826001600160a01b031614905092915050565b60006116678585858561377f565b60006116678585858561281460408051602081019091526000815290565b6128fc565b6001600160a01b031660009081527f5ab42ced628888259c08ac98db1eb0cf702fc1501344311d8b100cd1bfe4bb006020526040902080546001810190915590565b6000610da8612868613831565b8360405161190160f01b8152600281019290925260228201526042902090565b6000836001600160a01b03163b6000036128ea576000806128a9858561383b565b50909250905060008160038111156128c3576128c3614ab7565b1480156128e15750856001600160a01b0316826001600160a01b0316145b925050506113cc565b6128f5848484613888565b90506113cc565b600061290c86610fb160016124f5565b5060006129228661291c896111f8565b85612eff565b905060006129338888888588612a2d565b9050835160000361298a57866001600160a01b03167fb8e138887d0aa13bab447e82de9d5c1777041ecd21ca36ba824ff1e6c07ddda48988848960405161297d94939291906157ba565b60405180910390a2611663565b866001600160a01b03167fe2babfbac5889a709b63bb7f598b324e08bc5a4fb9ec647fb3cbc9ec07eb871289888489896040516129cb9594939291906157e2565b60405180910390a2979650505050505050565b60008060006129ec85613963565b9250925050838265ffffffffffff161115612a1957612a14612a0d856139bf565b86906139f2565b612a1b565b805b6001600160d01b031695945050505050565b60006001600160a01b038516612b2157600086815260076020526040902060ff8516612a725783816000016000828254612a6791906153fd565b90915550612b189050565b60001960ff861601612a925783816001016000828254612a6791906153fd565b60011960ff861601612ab25783816002016000828254612a6791906153fd565b60405162461bcd60e51b815260206004820152603560248201527f476f7665726e6f72566f74696e6753696d706c653a20696e76616c69642076616044820152746c756520666f7220656e756d20566f74655479706560581b6064820152608401611362565b83915050611667565b6119138686868686613a99565b600080516020615b79833981519152546040805165ffffffffffff928316815291831660208301528051600080516020615bb9833981519152927fc565b045403dc03c2eea82b81a0465edad9e2e7fc4d97e11421c209da93d7a9392908290030190a1600101805465ffffffffffff191665ffffffffffff92909216919091179055565b80516000906034811015612bca576001915050610da8565b60131981840101516001600160b01b03198116692370726f706f7365723d60b01b14612bfb57600192505050610da8565b600080612c0c86602a860386613baa565b915091508115806113775750866001600160a01b0316816001600160a01b031614979650505050505050565b600080600080516020615c198339815191529050612c5f8787878780519060200120611d4e565b915085518751141580612c7457508451875114155b80612c7e57508651155b15612cb357865185518751604051630447b05d60e41b8152600481019390935260248301919091526044820152606401611362565b6000828152600182016020526040902054600160a01b900465ffffffffffff1615612d005781612ce283611310565b6040516331b75e4d60e01b8152611362929190600090600401615798565b6000612d20600080516020615b798339815191525465ffffffffffff1690565b612d28611c86565b65ffffffffffff16612d3a91906153fd565b90506000612d46610dae565b6000858152600185016020526040902080546001600160a01b0319166001600160a01b038816178155909150612d7b836139bf565b815465ffffffffffff91909116600160a01b0265ffffffffffff60a01b19909116178155612da882613c59565b815463ffffffff91909116600160d01b0263ffffffff60d01b1990911617815589517f7d84a6263ae0d98d3329bd7b46bb4e8d6f98cd35a7adb45c274c8b7fd5ebd5e090869088908d908d906001600160401b03811115612e0b57612e0b614733565b604051908082528060200260200182016040528015612e3e57816020015b6060815260200190600190039081612e295790505b508d89612e4b8a826153fd565b8f604051612e6199989796959493929190615828565b60405180910390a15050505095945050505050565b7fa16a46d94261c7517cc8ff89f61c0ce93598e3c849801011dee649a6a557d1028054606091600080516020615b9983398151915291610e0290615292565b7fa16a46d94261c7517cc8ff89f61c0ce93598e3c849801011dee649a6a557d1038054606091600080516020615b9983398151915291610e0290615292565b6000610d3c436139bf565b6000612f09612389565b604051630748d63560e31b81526001600160a01b038681166004830152602482018690529190911690633a46b1a890604401602060405180830381865afa158015612f58573d6000803e3d6000fd5b505050506040513d601f19601f820116820180604052508101906114d0919061577f565b80546000908015612fba57612fa483612f96600184615410565b600091825260209091200190565b54600160301b90046001600160d01b03166113cc565b60009392505050565b600080516020615bf98339815191528054604080516001600160a01b039283168152918416602083015280517f08f74ea46ef7894f65eabfb5e6e695de773a000b47c529ab559178069b2264019281900390910190a180546001600160a01b0319166001600160a01b0392909216919091179055565b6000807ff0c57e16840df040f15088dc2f81fe391c3923bec73e23a9662efc9c229c6a00610da8565b61306a613c8a565b6130918161308c6040805180820190915260018152603160f81b602082015290565b613caf565b610ddf81613d10565b6130a2613c8a565b611269838383613d32565b6130b5613c8a565b565b6130bf613c8a565b610ddf81613d55565b6130d0613c8a565b610ddf81613d9e565b6130e1613c8a565b610ddf81613da6565b6060826130ff576130fa82613dae565b610da8565b5080610da8565b600080516020615bb983398151915263ffffffff821660000361313f5760405163f1cfbf0560e01b815260006004820152602401611362565b60018101546040805163ffffffff600160301b9093048316815291841660208301527f7e3f7f0708a84de9203036abaa450dccc85ad5ff52f78c170f3edb55cf5e8828910160405180910390a1600101805463ffffffff909216600160301b0269ffffffff00000000000019909216919091179055565b600080516020615bb98339815191528054604080519182526020820184905280517fccb45da8d5717e6c4544694297c4ba5cf151d455c9bb0ed4fc7a38411bc054619281900390910190a155565b60008060006132138686613dd7565b91509150816000036132385783818161322e5761322e615905565b04925050506113cc565b81841161324f5761324f6003851502601118613567565b6000848688096000868103871696879004966002600389028118808a02820302808a02820302808a02820302808a02820302808a02820302808a02909103029181900381900460010185841190960395909502919093039390930492909217029150509392505050565b80546000906001600160801b0380821691600160801b90041681036132e2576132e26031613567565b6001600160801b038181166000908152600185810160205260408220805492905585546fffffffffffffffffffffffffffffffff19169301909116919091179092555090565b60006001600160d01b0382111561335c576040516306dfcc6560e41b815260d0600482015260248101839052604401611362565b5090565b60008061336e858585613df5565b915091505b935093915050565b61243a828260405160240161339192919061591b565b60408051601f198184030181529190526020810180516001600160e01b0316632d839cb360e21b179052613f49565b600080516020615bf983398151915280546040805163793d064960e11b815290516000939284926001600160a01b039091169163f27a0c92916004808201926020929091908290030181865afa15801561341e573d6000803e3d6000fd5b505050506040513d601f19601f82011682018060405250810190613442919061577f565b905060003060601b6bffffffffffffffffffffffff19168518835460405163b1c5f42760e01b81529192506001600160a01b03169063b1c5f42790613494908b908b908b90600090889060040161593d565b602060405180830381865afa1580156134b1573d6000803e3d6000fd5b505050506040513d601f19601f820116820180604052508101906134d5919061577f565b60008a815260018501602052604080822092909255845491516308f2a0bb60e41b81526001600160a01b0390921691638f2a0bb091613521918c918c918c919088908a9060040161598b565b600060405180830381600087803b15801561353b57600080fd5b505af115801561354f573d6000803e3d6000fd5b5050505061160c824261356291906153fd565b6139bf565b634e487b71600052806020526024601cfd5b600080516020615bf9833981519152805460405163e38335e560e01b81526001600160a01b039091169063e38335e59034906135d6908990899089906000906bffffffffffffffffffffffff193060601b168b189060040161593d565b6000604051808303818588803b1580156135ef57600080fd5b505af1158015613603573d6000803e3d6000fd5b50505060009788525050600101602052505060408320929092555050565b6000818152600080516020615b59833981519152602052604081208054600080516020615c19833981519152919060ff600160f01b8204811691600160f81b90041681156136755750600795945050505050565b80156136875750600295945050505050565b6000613692876111f8565b9050806000036136b857604051636ad0607560e01b815260048101889052602401611362565b60006136c2611c86565b65ffffffffffff1690508082106136e157506000979650505050505050565b60006136ec89611fd7565b90508181106137045750600198975050505050505050565b61370d89613f52565b158061371f575061371d89613fe8565b155b156137335750600398975050505050505050565b6000898152600080516020615b59833981519152602052604090206001015465ffffffffffff166000036137705750600498975050505050505050565b50600598975050505050505050565b6000600080516020615bf98339815191528161379d87878787614033565b6000818152600184016020526040902054909150801561105a57825460405163c4d252f560e01b8152600481018390526001600160a01b039091169063c4d252f590602401600060405180830381600087803b1580156137fc57600080fd5b505af1158015613810573d6000803e3d6000fd5b50505060008381526001850160205260408120555050915050949350505050565b6000610d3c6140f5565b600080600083516041036138755760208401516040850151606086015160001a61386788828585614169565b955095509550505050613881565b50508151600091506002905b9250925092565b6000806000856001600160a01b031685856040516024016138aa9291906159e3565b60408051601f198184030181529181526020820180516001600160e01b0316630b135d3f60e11b179052516138df91906159fc565b600060405180830381855afa9150503d806000811461391a576040519150601f19603f3d011682016040523d82523d6000602084013e61391f565b606091505b509150915081801561393357506020815110155b801561191357508051630b135d3f60e11b90613958908301602090810190840161577f565b149695505050505050565b805460009081908190808203613984576000806000935093509350506114a8565b600061399586612f96600185615410565b546001955065ffffffffffff81169450600160301b90046001600160d01b031692506114a8915050565b600065ffffffffffff82111561335c576040516306dfcc6560e41b81526030600482015260248101839052604401611362565b815460009081816005811115613a51576000613a0d84614238565b613a179085615410565b60008881526020902090915081015465ffffffffffff9081169087161015613a4157809150613a4f565b613a4c8160016153fd565b92505b505b6000613a5f8787858561438c565b90508015613a8c57613a7687612f96600184615410565b54600160301b90046001600160d01b0316611377565b5060009695505050505050565b6000858152600080516020615bd9833981519152602081815260408084206001600160a01b03891685526003810190925283205460ff1615613af9576040516371c6af4960e01b81526001600160a01b0388166004820152602401611362565b6001600160a01b03871660009081526003820160205260409020805460ff1916600117905560ff8616613b455784816000016000828254613b3a91906153fd565b90915550613b9e9050565b60001960ff871601613b655784816001016000828254613b3a91906153fd565b60011960ff871601613b855784816002016000828254613b3a91906153fd565b6040516303599be160e11b815260040160405180910390fd5b50929695505050505050565b6000808451831180613bbb57508284115b15613bcb57506000905080613373565b6000613bd88560016153fd565b84118015613c00575061060f60f31b613bf48787016020015190565b6001600160f01b031916145b90506000613c118215156002615a18565b613c1c9060286153fd565b905080613c298787615410565b03613c4b57600080613c3c8989896143ee565b90965094506133739350505050565b600080935093505050613373565b600063ffffffff82111561335c576040516306dfcc6560e41b81526020600482015260248101839052604401611362565b613c926144b4565b6130b557604051631afcd79f60e31b815260040160405180910390fd5b613cb7613c8a565b600080516020615b998339815191527fa16a46d94261c7517cc8ff89f61c0ce93598e3c849801011dee649a6a557d102613cf18482615329565b5060038101613d008382615329565b5060008082556001909101555050565b613d18613c8a565b600080516020615c19833981519152806112698382615329565b613d3a613c8a565b613d4383612b2e565b613d4c82613106565b611269816131b6565b613d5d613c8a565b7f3ba4977254e415696610a40ebf2258dbfa0ec6a2ff64e84bfe715ff16977cc0080546001600160a01b0319166001600160a01b0392909216919091179055565b610dd6613c8a565b611d45613c8a565b805115613dbe5780518082602001fd5b60405163d6bda27560e01b815260040160405180910390fd5b60008060001983850993909202808410938190039390930393915050565b825460009081908015613eee576000613e1387612f96600185615410565b805490915065ffffffffffff80821691600160301b90046001600160d01b0316908816821115613e5657604051632520601d60e01b815260040160405180910390fd5b8765ffffffffffff168265ffffffffffff1603613e8f57825465ffffffffffff16600160301b6001600160d01b03891602178355613ee0565b6040805180820190915265ffffffffffff808a1682526001600160d01b03808a1660208085019182528d54600181018f5560008f81529190912094519151909216600160301b029216919091179101555b945085935061337392505050565b50506040805180820190915265ffffffffffff80851682526001600160d01b0380851660208085019182528854600181018a5560008a815291822095519251909316600160301b029190931617920191909155905081613373565b610ddf816144ce565b600080613f5e836144ef565b60008481526007602052604081206001810154600282015493945090929091613f8782846153fd565b905080600003613f9c57509295945050505050565b6000613faa610cdd896111f8565b90506000806000613fba8b61147c565b919450925090508385613fcd83856153fd565b613fd791906153fd565b10159b9a5050505050505050505050565b6000806000613ff68461147c565b506000868152600760205260409020805460018201549395509193509161401d82866153fd565b61402782866153fd565b11979650505050505050565b6000600080516020615c198339815191528161405187878787611d4e565b905061409f8161406160076124f5565b61406b60066124f5565b61407560026124f5565b6001614082600782615a2f565b61408d906002615b27565b6140979190615410565b181818612518565b5060008181526001830160205260409081902080546001600160f81b0316600160f81b179055517f789cf55be980739dad1d0699b93b58e806b51c9d96619bfa8fe0a28abaa7b30c906111e69083815260200190565b60007f8b73c3c69bb8fe3d512ecc4cf759cc79239f7b179b0ffacaa9a75d522b39400f614120614536565b6141286145a0565b60408051602081019490945283019190915260608201524660808201523060a082015260c00160405160208183030381529060405280519060200120905090565b600080807f7fffffffffffffffffffffffffffffff5d576e7357a4501ddfe92f46681b20a08411156141a4575060009150600390508261422e565b604080516000808252602082018084528a905260ff891692820192909252606081018790526080810186905260019060a0016020604051602081039080840390855afa1580156141f8573d6000803e3d6000fd5b5050604051601f1901519150506001600160a01b0381166142245750600092506001915082905061422e565b9250600091508190505b9450945094915050565b600060018211614246575090565b816001600160801b821061425f5760809190911c9060401b5b600160401b82106142755760409190911c9060201b5b640100000000821061428c5760209190911c9060101b5b6201000082106142a15760109190911c9060081b5b61010082106142b55760089190911c9060041b5b601082106142c85760049190911c9060021b5b600482106142d45760011b5b600302600190811c908185816142ec576142ec615905565b048201901c9050600181858161430457614304615905565b048201901c9050600181858161431c5761431c615905565b048201901c9050600181858161433457614334615905565b048201901c9050600181858161434c5761434c615905565b048201901c9050600181858161436457614364615905565b048201901c905061438381858161437d5761437d615905565b04821190565b90039392505050565b60005b818310156143e65760006143a384846145e4565b60008781526020902090915065ffffffffffff86169082015465ffffffffffff1611156143d2578092506143e0565b6143dd8160016153fd565b93505b5061438f565b509392505050565b60008084816143fe8660016153fd565b85118015614426575061060f60f31b61441a8388016020015190565b6001600160f01b031916145b905060006144378215156002615a18565b9050600080614446838a6153fd565b90505b878110156144a35760006144686144638784016020015190565b6145ff565b9050600f8160ff1611156144885760008097509750505050505050613373565b614493601084615a18565b60ff909116019150600101614449565b506001999098509650505050505050565b60006144be613039565b54600160401b900460ff16919050565b60006a636f6e736f6c652e6c6f679050600080835160208501845afa505050565b6000818152600080516020615bd98339815191526020819052604082206002810154600182015461452091906153fd565b61452c610cdd866111f8565b1115949350505050565b6000600080516020615b9983398151915281614550612e76565b80519091501561456857805160209091012092915050565b81548015614577579392505050565b7fc5d2460186f7233c927e7db2dcc703c0e500b653ca82273b7bfad8045d85a470935050505090565b6000600080516020615b99833981519152816145ba612eb5565b8051909150156145d257805160209091012092915050565b60018201548015614577579392505050565b60006145f36002848418615b36565b6113cc908484166153fd565b600060f882901c602f811180156146195750603a8160ff16105b1561462757602f1901610da8565b60608160ff1611801561463d575060678160ff16105b1561464b5760561901610da8565b60408160ff16118015614661575060478160ff16105b1561466f5760361901610da8565b5060ff92915050565b60006020828403121561468a57600080fd5b81356001600160e01b0319811681146113cc57600080fd5b6000602082840312156146b457600080fd5b5035919050565b60005b838110156146d65781810151838201526020016146be565b50506000910152565b600081518084526146f78160208601602086016146bb565b601f01601f19169290920160200192915050565b6020815260006113cc60208301846146df565b6001600160a01b0381168114610ddf57600080fd5b634e487b7160e01b600052604160045260246000fd5b604051601f8201601f191681016001600160401b038111828210171561477157614771614733565b604052919050565b60006001600160401b0382111561479257614792614733565b50601f01601f191660200190565b600082601f8301126147b157600080fd5b81356020830160006147ca6147c584614779565b614749565b90508281528583830111156147de57600080fd5b82826020830137600092810160200192909252509392505050565b6000806000806080858703121561480f57600080fd5b843561481a8161471e565b9350602085013561482a8161471e565b92506040850135915060608501356001600160401b0381111561484c57600080fd5b614858878288016147a0565b91505092959194509250565b60006001600160401b0382111561487d5761487d614733565b5060051b60200190565b600082601f83011261489857600080fd5b81356148a66147c582614864565b8082825260208201915060208360051b8601019250858311156148c857600080fd5b602085015b838110156148ee5780356148e08161471e565b8352602092830192016148cd565b5095945050505050565b600082601f83011261490957600080fd5b81356149176147c582614864565b8082825260208201915060208360051b86010192508583111561493957600080fd5b602085015b838110156148ee57803583526020928301920161493e565b600082601f83011261496757600080fd5b81356149756147c582614864565b8082825260208201915060208360051b86010192508583111561499757600080fd5b602085015b838110156148ee5780356001600160401b038111156149ba57600080fd5b6149c9886020838a01016147a0565b8452506020928301920161499c565b600080600080608085870312156149ee57600080fd5b84356001600160401b03811115614a0457600080fd5b614a1087828801614887565b94505060208501356001600160401b03811115614a2c57600080fd5b614a38878288016148f8565b93505060408501356001600160401b03811115614a5457600080fd5b614a6087828801614956565b949793965093946060013593505050565b60008060408385031215614a8457600080fd5b8235915060208301356001600160401b03811115614aa157600080fd5b614aad858286016147a0565b9150509250929050565b634e487b7160e01b600052602160045260246000fd5b60088110614aeb57634e487b7160e01b600052602160045260246000fd5b9052565b60208101610da88284614acd565b60008060408385031215614b1057600080fd5b823591506020830135614b228161471e565b809150509250929050565b803560ff8116811461147757600080fd5b60008060408385031215614b5157600080fd5b82359150614b6160208401614b2d565b90509250929050565b60008083601f840112614b7c57600080fd5b5081356001600160401b03811115614b9357600080fd5b602083019150836020828501011115614bab57600080fd5b9250929050565b600080600080600080600060c0888a031215614bcd57600080fd5b87359650614bdd60208901614b2d565b95506040880135614bed8161471e565b945060608801356001600160401b03811115614c0857600080fd5b614c148a828b01614b6a565b90955093505060808801356001600160401b03811115614c3357600080fd5b614c3f8a828b016147a0565b92505060a08801356001600160401b03811115614c5b57600080fd5b614c678a828b016147a0565b91505092959891949750929550565b600080600080600060808688031215614c8e57600080fd5b85359450614c9e60208701614b2d565b935060408601356001600160401b03811115614cb957600080fd5b614cc588828901614b6a565b90945092505060608601356001600160401b03811115614ce457600080fd5b614cf0888289016147a0565b9150509295509295909350565b600080600080600060608688031215614d1557600080fd5b8535945060208601356001600160401b03811115614d3257600080fd5b614d3e88828901614b6a565b90955093505060408601356001600160401b03811115614d5d57600080fd5b8601601f81018813614d6e57600080fd5b80356001600160401b03811115614d8457600080fd5b8860208260051b8401011115614d9957600080fd5b959894975092955050506020019190565b65ffffffffffff81168114610ddf57600080fd5b600060208284031215614dd057600080fd5b81356113cc81614daa565b60008060008060608587031215614df157600080fd5b84359350614e0160208601614b2d565b925060408501356001600160401b03811115614e1c57600080fd5b614e2887828801614b6a565b95989497509550505050565b60008060008060808587031215614e4a57600080fd5b84356001600160401b03811115614e6057600080fd5b614e6c87828801614887565b94505060208501356001600160401b03811115614e8857600080fd5b614e94878288016148f8565b93505060408501356001600160401b03811115614eb057600080fd5b614ebc87828801614956565b92505060608501356001600160401b0381111561484c57600080fd5b600060208284031215614eea57600080fd5b81356113cc8161471e565b600081518084526020840193506020830160005b82811015614f27578151865260209586019590910190600101614f09565b5093949350505050565b60ff60f81b8816815260e060208201526000614f5060e08301896146df565b8281036040840152614f6281896146df565b606084018890526001600160a01b038716608085015260a0840186905283810360c08501529050614f938185614ef5565b9a9950505050505050505050565b60008060008060808587031215614fb757600080fd5b84359350614fc760208601614b2d565b92506040850135614fd78161471e565b915060608501356001600160401b0381111561484c57600080fd5b60008060006060848603121561500757600080fd5b83356150128161471e565b92506020840135915060408401356001600160401b0381111561503457600080fd5b615040868287016147a0565b9150509250925092565b6000806040838503121561505d57600080fd5b82356001600160401b0381111561507357600080fd5b8301610140818603121561508657600080fd5b91506020830135614b228161471e565b600080600080600060a086880312156150ae57600080fd5b85356150b98161471e565b945060208601356150c98161471e565b935060408601356001600160401b038111156150e457600080fd5b6150f0888289016148f8565b93505060608601356001600160401b0381111561510c57600080fd5b615118888289016148f8565b92505060808601356001600160401b03811115614ce457600080fd5b6000806000806060858703121561514a57600080fd5b84356151558161471e565b93506020850135925060408501356001600160401b03811115614e1c57600080fd5b6020815281516020820152602082015160408201526040820151606082015260018060a01b0360608301511660808201526000608083015160a0808401526114d060c08401826146df565b6000602082840312156151d457600080fd5b813563ffffffff811681146113cc57600080fd5b600080604083850312156151fb57600080fd5b82356152068161471e565b946020939093013593505050565b600080600080600060a0868803121561522c57600080fd5b85356152378161471e565b945060208601356152478161471e565b9350604086013592506060860135915060808601356001600160401b03811115614ce457600080fd5b6000806040838503121561528357600080fd5b50508035926020909101359150565b600181811c908216806152a657607f821691505b6020821081036152c657634e487b7160e01b600052602260045260246000fd5b50919050565b634e487b7160e01b600052603260045260246000fd5b601f82111561126957806000526020600020601f840160051c810160208510156153095750805b601f840160051c820191505b818110156126455760008155600101615315565b81516001600160401b0381111561534257615342614733565b615356816153508454615292565b846152e2565b6020601f82116001811461538a57600083156153725750848201515b600019600385901b1c1916600184901b178455612645565b600084815260208120601f198516915b828110156153ba578785015182556020948501946001909201910161539a565b50848210156153d85786840151600019600387901b60f8161c191681555b50505050600190811b01905550565b634e487b7160e01b600052601160045260246000fd5b80820180821115610da857610da86153e7565b81810381811115610da857610da86153e7565b60006020828403121561543557600080fd5b81516001600160401b0381111561544b57600080fd5b8201601f8101841361545c57600080fd5b805161546a6147c582614779565b81815285602083850101111561547f57600080fd5b6116678260208301602086016146bb565b8183823760009101908152919050565b6040815283604082015283856060830137600060608583018101829052601f19601f8701168301838103820160208501529081018490526001600160fb1b038411156154eb57600080fd5b8360051b80866080840137016080019695505050505050565b60006020828403121561551657600080fd5b815180151581146113cc57600080fd5b65ffffffffffff8281168282160390811115610da857610da86153e7565b600060018201615556576155566153e7565b5060010190565b60006020828403121561556f57600080fd5b81516113cc81614daa565b6000808335601e1984360301811261559157600080fd5b8301803591506001600160401b038211156155ab57600080fd5b602001915036819003821315614bab57600080fd5b6001600160401b038311156155d7576155d7614733565b6155eb836155e58354615292565b836152e2565b6000601f84116001811461561f57600085156156075750838201355b600019600387901b1c1916600186901b178355612645565b600083815260209020601f19861690835b828110156156505786850135825560209485019460019092019101615630565b508682101561566d5760001960f88860031b161c19848701351681555b505060018560011b0183555050505050565b65ffffffffffff8181168382160190811115610da857610da86153e7565b600081518084526020840193506020830160005b82811015614f275781516001600160a01b03168652602095860195909101906001016156b1565b600082825180855260208501945060208160051b8301016020850160005b8381101561572857601f198584030188526157128383516146df565b60209889019890935091909101906001016156f6565b50909695505050505050565b608081526000615747608083018761569d565b82810360208401526157598187614ef5565b9050828103604084015261576d81866156d8565b91505082606083015295945050505050565b60006020828403121561579157600080fd5b5051919050565b838152606081016157ac6020830185614acd565b826040830152949350505050565b84815260ff8416602082015282604082015260806060820152600061191360808301846146df565b85815260ff8516602082015283604082015260a06060820152600061580a60a08301856146df565b828103608084015261581c81856146df565b98975050505050505050565b8981526001600160a01b0389166020820152610120604082018190526000906158539083018a61569d565b8281036060840152615865818a614ef5565b9050828103608084015280885180835260208301915060208160051b84010160208b0160005b838110156158bd57601f198684030185526158a78383516146df565b602095860195909350919091019060010161588b565b505085810360a08701526158d1818b6156d8565b93505050508560c08401528460e08401528281036101008401526158f581856146df565b9c9b505050505050505050505050565b634e487b7160e01b600052601260045260246000fd5b60408152600061592e60408301856146df565b90508260208301529392505050565b60a08152600061595060a083018861569d565b82810360208401526159628188614ef5565b9050828103604084015261597681876156d8565b60608401959095525050608001529392505050565b60c08152600061599e60c083018961569d565b82810360208401526159b08189614ef5565b905082810360408401526159c481886156d8565b60608401969096525050608081019290925260a0909101529392505050565b8281526040602082015260006114d060408301846146df565b60008251615a0e8184602087016146bb565b9190910192915050565b8082028115828204841417610da857610da86153e7565b60ff8181168382160190811115610da857610da86153e7565b6001815b600184111561337357808504811115615a6757615a676153e7565b6001841615615a7557908102905b60019390931c928002615a4c565b600082615a9257506001610da8565b81615a9f57506000610da8565b8160018114615ab55760028114615abf57615adb565b6001915050610da8565b60ff841115615ad057615ad06153e7565b50506001821b610da8565b5060208310610133831016604e8410600b8410161715615afe575081810a610da8565b615b0b6000198484615a48565b8060001904821115615b1f57615b1f6153e7565b029392505050565b60006113cc60ff841683615a83565b600082615b5357634e487b7160e01b600052601260045260246000fd5b50049056fe7c712897014dbe49c045ef1299aa2d5f9e67e48eea4403efa21f1e0f3ac0cb0100d7616c8fe29c6c2fbe1d0c5bc8f2faa4c35b43746e70b24b4d532752affd01a16a46d94261c7517cc8ff89f61c0ce93598e3c849801011dee649a6a557d10000d7616c8fe29c6c2fbe1d0c5bc8f2faa4c35b43746e70b24b4d532752affd00a1cefa0f43667ef127a258e673c94202a79b656e62899531c4376d87a7f398000d5829787b8befdbc6044ef7457d8a95c2a04bc99235349f1a212c063e59d4007c712897014dbe49c045ef1299aa2d5f9e67e48eea4403efa21f1e0f3ac0cb00a2646970667358221220e2f9ae5e0b2ff85e68ef109957ca466d8359ae41d8c8369fd4bcd701f7f6b65164736f6c634300081c0033",
  "devdoc": {
    "errors": {
      "CheckpointUnorderedInsertion()": [
        {
          "details": "A value was attempted to be inserted on a past checkpoint."
        }
      ],
      "FailedCall()": [
        {
          "details": "A call to an address target failed. The target may have reverted."
        }
      ],
      "GovernorAlreadyCastVote(address)": [
        {
          "details": "The vote was already cast."
        }
      ],
      "GovernorAlreadyQueuedProposal(uint256)": [
        {
          "details": "The proposal has already been queued."
        }
      ],
      "GovernorDisabledDeposit()": [
        {
          "details": "Token deposits are disabled in this contract."
        }
      ],
      "GovernorInsufficientProposerVotes(address,uint256,uint256)": [
        {
          "details": "The `proposer` does not have the required votes to create a proposal."
        }
      ],
      "GovernorInvalidProposalLength(uint256,uint256,uint256)": [
        {
          "details": "Empty proposal or a mismatch between the parameters length for a proposal call."
        }
      ],
      "GovernorInvalidQuorumFraction(uint256,uint256)": [
        {
          "details": "The quorum set is not a valid fraction."
        }
      ],
      "GovernorInvalidSignature(address)": [
        {
          "details": "The provided signature is not valid for the expected `voter`. If the `voter` is a contract, the signature is not valid using {IERC1271-isValidSignature}."
        }
      ],
      "GovernorInvalidVoteParams()": [
        {
          "details": "The provided params buffer is not supported by the counting module."
        }
      ],
      "GovernorInvalidVoteType()": [
        {
          "details": "The vote type used is not valid for the corresponding counting module."
        }
      ],
      "GovernorInvalidVotingPeriod(uint256)": [
        {
          "details": "The voting period set is not a valid period."
        }
      ],
      "GovernorNonexistentProposal(uint256)": [
        {
          "details": "The `proposalId` doesn't exist."
        }
      ],
      "GovernorNotQueuedProposal(uint256)": [
        {
          "details": "The proposal hasn't been queued yet."
        }
      ],
      "GovernorOnlyExecutor(address)": [
        {
          "details": "The `account` is not the governance executor."
        }
      ],
      "GovernorQueueNotImplemented()": [
        {
          "details": "Queue operation is not implemented for this governor. Execute should be called directly."
        }
      ],
      "GovernorRestrictedProposer(address)": [
        {
          "details": "The `proposer` is not allowed to create a proposal."
        }
      ],
      "GovernorUnableToCancel(uint256,address)": [
        {
          "details": "The given `account` is unable to cancel the proposal with given `proposalId`."
        }
      ],
      "GovernorUnexpectedProposalState(uint256,uint8,bytes32)": [
        {
          "details": "The current state of a proposal is not the required for performing an operation. The `expectedStates` is a bitmap with the bits enabled for each ProposalState enum position counting from right to left. NOTE: If `expectedState` is `bytes32(0)`, the proposal is expected to not be in any state (i.e. not exist). This is the case when a proposal that is expected to be unset is already initiated (the proposal is duplicated). See {Governor-_encodeStateBitmap}."
        }
      ],
      "InvalidAccountNonce(address,uint256)": [
        {
          "details": "The nonce used for an `account` is not the expected current nonce."
        }
      ],
      "InvalidInitialization()": [
        {
          "details": "The contract is already initialized."
        }
      ],
      "NotInitializing()": [
        {
          "details": "The contract is not initializing."
        }
      ],
      "SafeCastOverflowedUintDowncast(uint8,uint256)": [
        {
          "details": "Value doesn't fit in an uint of `bits` size."
        }
      ]
    },
    "events": {
      "EIP712DomainChanged()": {
        "details": "MAY be emitted to signal that the domain could have changed."
      },
      "Initialized(uint64)": {
        "details": "Triggered when the contract has been initialized or reinitialized."
      },
      "ProposalCanceled(uint256)": {
        "details": "Emitted when a proposal is canceled."
      },
      "ProposalCreated(uint256,address,address[],uint256[],string[],bytes[],uint256,uint256,string)": {
        "details": "Emitted when a proposal is created."
      },
      "ProposalExecuted(uint256)": {
        "details": "Emitted when a proposal is executed."
      },
      "ProposalQueued(uint256,uint256)": {
        "details": "Emitted when a proposal is queued."
      },
      "TimelockChange(address,address)": {
        "details": "Emitted when the timelock controller used for proposal execution is modified."
      },
      "VoteCast(address,uint256,uint8,uint256,string)": {
        "details": "Emitted when a vote is cast without params. Note: `support` values should be seen as buckets. Their interpretation depends on the voting module used."
      },
      "VoteCastWithParams(address,uint256,uint8,uint256,string,bytes)": {
        "details": "Emitted when a vote is cast with params. Note: `support` values should be seen as buckets. Their interpretation depends on the voting module used. `params` are additional encoded parameters. Their interpretation  also depends on the voting module used."
      }
    },
    "kind": "dev",
    "methods": {
      "CLOCK_MODE()": {
        "details": "Machine-readable description of the clock as specified in ERC-6372."
      },
      "COUNTING_MODE()": {
        "details": "See {IGovernor-COUNTING_MODE}."
      },
      "cancel(address[],uint256[],bytes[],bytes32)": {
        "details": "See {IGovernor-cancel}."
      },
      "castVote(uint256,uint8)": {
        "details": "See {IGovernor-castVote}."
      },
      "castVoteBySig(uint256,uint8,address,bytes)": {
        "details": "See {IGovernor-castVoteBySig}."
      },
      "castVoteWithReason(uint256,uint8,string)": {
        "details": "See {IGovernor-castVoteWithReason}."
      },
      "castVoteWithReasonAndParams(uint256,uint8,string,bytes)": {
        "details": "See {IGovernor-castVoteWithReasonAndParams}."
      },
      "castVoteWithReasonAndParamsBySig(uint256,uint8,address,string,bytes,bytes)": {
        "details": "See {IGovernor-castVoteWithReasonAndParamsBySig}."
      },
      "clock()": {
        "details": "Clock (as specified in ERC-6372) is set to match the token's clock. Fallback to block numbers if the token does not implement ERC-6372."
      },
      "eip712Domain()": {
        "details": "returns the fields and values that describe the domain separator used by this contract for EIP-712 signature."
      },
      "execute(address[],uint256[],bytes[],bytes32)": {
        "details": "See {IGovernor-execute}."
      },
      "getProposalId(address[],uint256[],bytes[],bytes32)": {
        "details": "See {IGovernor-getProposalId}."
      },
      "getVotes(address,uint256)": {
        "details": "See {IGovernor-getVotes}."
      },
      "getVotesWithParams(address,uint256,bytes)": {
        "details": "See {IGovernor-getVotesWithParams}."
      },
      "hasVoted(uint256,address)": {
        "details": "See {IGovernor-hasVoted}."
      },
      "hashProposal(address[],uint256[],bytes[],bytes32)": {
        "details": "See {IGovernor-hashProposal}. The proposal id is produced by hashing the ABI encoded `targets` array, the `values` array, the `calldatas` array and the descriptionHash (bytes32 which itself is the keccak256 hash of the description string). This proposal id can be produced from the proposal data which is part of the {ProposalCreated} event. It can even be computed in advance, before the proposal is submitted. Note that the chainId and the governor address are not part of the proposal id computation. Consequently, the same proposal (with same operation and same description) will have the same id if submitted on multiple governors across multiple networks. This also means that in order to execute the same operation twice (on the same governor) the proposer will have to change the description in order to avoid proposal id conflicts."
      },
      "name()": {
        "details": "See {IGovernor-name}."
      },
      "nonces(address)": {
        "details": "Returns the next unused nonce for an address."
      },
      "onERC1155BatchReceived(address,address,uint256[],uint256[],bytes)": {
        "details": "See {IERC1155Receiver-onERC1155BatchReceived}. Receiving tokens is disabled if the governance executor is other than the governor itself (eg. when using with a timelock)."
      },
      "onERC1155Received(address,address,uint256,uint256,bytes)": {
        "details": "See {IERC1155Receiver-onERC1155Received}. Receiving tokens is disabled if the governance executor is other than the governor itself (eg. when using with a timelock)."
      },
      "onERC721Received(address,address,uint256,bytes)": {
        "details": "See {IERC721Receiver-onERC721Received}. Receiving tokens is disabled if the governance executor is other than the governor itself (eg. when using with a timelock)."
      },
      "proposalDeadline(uint256)": {
        "details": "See {IGovernor-proposalDeadline}."
      },
      "proposalEta(uint256)": {
        "details": "See {IGovernor-proposalEta}."
      },
      "proposalProposer(uint256)": {
        "details": "See {IGovernor-proposalProposer}."
      },
      "proposalSnapshot(uint256)": {
        "details": "See {IGovernor-proposalSnapshot}."
      },
      "proposalVotes(uint256)": {
        "details": "Accessor to the internal vote counts."
      },
      "queue(address[],uint256[],bytes[],bytes32)": {
        "details": "See {IGovernor-queue}."
      },
      "quorum(uint256)": {
        "details": "Returns the quorum for a timepoint, in terms of number of votes: `supply * numerator / denominator`."
      },
      "quorumDenominator()": {
        "details": "Returns the quorum denominator. Defaults to 100, but may be overridden."
      },
      "quorumNumerator()": {
        "details": "Returns the current quorum numerator. See {quorumDenominator}."
      },
      "quorumNumerator(uint256)": {
        "details": "Returns the quorum numerator at a specific timepoint. See {quorumDenominator}."
      },
      "relay(address,uint256,bytes)": {
        "details": "Relays a transaction or function call to an arbitrary target. In cases where the governance executor is some contract other than the governor itself, like when using a timelock, this function can be invoked in a governance proposal to recover tokens or Ether that was sent to the governor contract by mistake. Note that if the executor is simply the governor itself, use of `relay` is redundant."
      },
      "setProposalThreshold(uint256)": {
        "details": "Update the proposal threshold. This operation can only be performed through a governance proposal. Emits a {ProposalThresholdSet} event."
      },
      "setRoot(uint256,string)": {
        "params": {
          "_cid": "The merkle root",
          "_proposalId": "The proposal ID"
        }
      },
      "setVotingDelay(uint48)": {
        "details": "Update the voting delay. This operation can only be performed through a governance proposal. Emits a {VotingDelaySet} event."
      },
      "setVotingPeriod(uint32)": {
        "details": "Update the voting period. This operation can only be performed through a governance proposal. Emits a {VotingPeriodSet} event."
      },
      "supportsInterface(bytes4)": {
        "details": "See {IERC165-supportsInterface}."
      },
      "timelock()": {
        "details": "Public accessor to check the address of the timelock"
      },
      "token()": {
        "details": "The token that voting power is sourced from."
      },
      "updateQuorumNumerator(uint256)": {
        "details": "Changes the quorum numerator. Emits a {QuorumNumeratorUpdated} event. Requirements: - Must be called through a governance proposal. - New numerator must be smaller or equal to the denominator."
      },
      "updateTimelock(address)": {
        "details": "Public endpoint to update the underlying timelock instance. Restricted to the timelock itself, so updates must be proposed, scheduled, and executed through governance proposals. CAUTION: It is not recommended to change the timelock while there are other queued governance proposals."
      },
      "version()": {
        "details": "See {IGovernor-version}."
      },
      "votingDelay()": {
        "details": "See {IGovernor-votingDelay}."
      },
      "votingPeriod()": {
        "details": "See {IGovernor-votingPeriod}."
      }
    },
    "version": 1
  },
  "userdoc": {
    "errors": {
      "DAO_NOT_FOUND(uint256)": [
        {
          "notice": "====================== ======= ZK DAO ======= ======================"
        }
      ],
      "INSUFFICIENT_ALLOWANCE()": [
        {
          "notice": "====================== ====== Generic ======= ======================"
        }
      ],
      "INVALID_VOTE_TYPE()": [
        {
          "notice": "====================== ====== Governor ====== ======================"
        }
      ]
    },
    "events": {
      "ZKVoteCast(uint256,uint8,uint256,bytes32)": {
        "notice": "====================== ======= Events ======= ======================"
      }
    },
    "kind": "user",
    "methods": {
      "castZKVote(uint256,bytes,bytes32[])": {
        "notice": "================================= == External / Public Functions == ================================="
      },
      "constructor": {
        "notice": "========================= ====== Constructor ====== ========================="
      },
      "getProposalCounter()": {
        "notice": "========================== ===== View Functions ===== =========================="
      },
      "initialize((string,address,address,uint48,uint32,uint256,uint256,uint256,string,string),address)": {
        "notice": "========================= ====== Initializer ====== ========================="
      },
      "setRoot(uint256,string)": {
        "notice": "Set the merkle root for a proposal (only callable by ZKDAO)"
      }
    },
    "version": 1
  },
  "storageLayout": {
    "storage": [
      {
        "astId": 32068,
        "contract": "contracts/governance/Governor.sol:Governor",
        "label": "proposalCounter",
        "offset": 0,
        "slot": "0",
        "type": "t_uint256"
      },
      {
        "astId": 32070,
        "contract": "contracts/governance/Governor.sol:Governor",
        "label": "id",
        "offset": 0,
        "slot": "1",
        "type": "t_uint256"
      },
      {
        "astId": 32073,
        "contract": "contracts/governance/Governor.sol:Governor",
        "label": "verifier",
        "offset": 0,
        "slot": "2",
        "type": "t_contract(IVerifier)25993"
      },
      {
        "astId": 32076,
        "contract": "contracts/governance/Governor.sol:Governor",
        "label": "zkDao",
        "offset": 0,
        "slot": "3",
        "type": "t_contract(IZKDAO)28822"
      },
      {
        "astId": 32078,
        "contract": "contracts/governance/Governor.sol:Governor",
        "label": "description",
        "offset": 0,
        "slot": "4",
        "type": "t_string_storage"
      },
      {
        "astId": 32080,
        "contract": "contracts/governance/Governor.sol:Governor",
        "label": "logo",
        "offset": 0,
        "slot": "5",
        "type": "t_string_storage"
      },
      {
        "astId": 32085,
        "contract": "contracts/governance/Governor.sol:Governor",
        "label": "proposals",
        "offset": 0,
        "slot": "6",
        "type": "t_mapping(t_uint256,t_struct(ProposalStorage)28489_storage)"
      },
      {
        "astId": 32090,
        "contract": "contracts/governance/Governor.sol:Governor",
        "label": "zkVotes",
        "offset": 0,
        "slot": "7",
        "type": "t_mapping(t_uint256,t_struct(ZKProposalVote)28478_storage)"
      },
      {
        "astId": 32094,
        "contract": "contracts/governance/Governor.sol:Governor",
        "label": "cids",
        "offset": 0,
        "slot": "8",
        "type": "t_mapping(t_uint256,t_string_storage)"
      },
      {
        "astId": 32100,
        "contract": "contracts/governance/Governor.sol:Governor",
        "label": "nullifierUsed",
        "offset": 0,
        "slot": "9",
        "type": "t_mapping(t_uint256,t_mapping(t_uint256,t_bool))"
      }
    ],
    "types": {
      "t_address": {
        "encoding": "inplace",
        "label": "address",
        "numberOfBytes": "20"
      },
      "t_bool": {
        "encoding": "inplace",
        "label": "bool",
        "numberOfBytes": "1"
      },
      "t_contract(IVerifier)25993": {
        "encoding": "inplace",
        "label": "contract IVerifier",
        "numberOfBytes": "20"
      },
      "t_contract(IZKDAO)28822": {
        "encoding": "inplace",
        "label": "contract IZKDAO",
        "numberOfBytes": "20"
      },
      "t_mapping(t_uint256,t_bool)": {
        "encoding": "mapping",
        "key": "t_uint256",
        "label": "mapping(uint256 => bool)",
        "numberOfBytes": "32",
        "value": "t_bool"
      },
      "t_mapping(t_uint256,t_mapping(t_uint256,t_bool))": {
        "encoding": "mapping",
        "key": "t_uint256",
        "label": "mapping(uint256 => mapping(uint256 => bool))",
        "numberOfBytes": "32",
        "value": "t_mapping(t_uint256,t_bool)"
      },
      "t_mapping(t_uint256,t_string_storage)": {
        "encoding": "mapping",
        "key": "t_uint256",
        "label": "mapping(uint256 => string)",
        "numberOfBytes": "32",
        "value": "t_string_storage"
      },
      "t_mapping(t_uint256,t_struct(ProposalStorage)28489_storage)": {
        "encoding": "mapping",
        "key": "t_uint256",
        "label": "mapping(uint256 => struct IGovernor.ProposalStorage)",
        "numberOfBytes": "32",
        "value": "t_struct(ProposalStorage)28489_storage"
      },
      "t_mapping(t_uint256,t_struct(ZKProposalVote)28478_storage)": {
        "encoding": "mapping",
        "key": "t_uint256",
        "label": "mapping(uint256 => struct IGovernor.ZKProposalVote)",
        "numberOfBytes": "32",
        "value": "t_struct(ZKProposalVote)28478_storage"
      },
      "t_string_storage": {
        "encoding": "bytes",
        "label": "string",
        "numberOfBytes": "32"
      },
      "t_struct(ProposalStorage)28489_storage": {
        "encoding": "inplace",
        "label": "struct IGovernor.ProposalStorage",
        "members": [
          {
            "astId": 28480,
            "contract": "contracts/governance/Governor.sol:Governor",
            "label": "id",
            "offset": 0,
            "slot": "0",
            "type": "t_uint256"
          },
          {
            "astId": 28482,
            "contract": "contracts/governance/Governor.sol:Governor",
            "label": "proposalNumber",
            "offset": 0,
            "slot": "1",
            "type": "t_uint256"
          },
          {
            "astId": 28484,
            "contract": "contracts/governance/Governor.sol:Governor",
            "label": "createdAt",
            "offset": 0,
            "slot": "2",
            "type": "t_uint256"
          },
          {
            "astId": 28486,
            "contract": "contracts/governance/Governor.sol:Governor",
            "label": "proposer",
            "offset": 0,
            "slot": "3",
            "type": "t_address"
          },
          {
            "astId": 28488,
            "contract": "contracts/governance/Governor.sol:Governor",
            "label": "description",
            "offset": 0,
            "slot": "4",
            "type": "t_string_storage"
          }
        ],
        "numberOfBytes": "160"
      },
      "t_struct(ZKProposalVote)28478_storage": {
        "encoding": "inplace",
        "label": "struct IGovernor.ZKProposalVote",
        "members": [
          {
            "astId": 28473,
            "contract": "contracts/governance/Governor.sol:Governor",
            "label": "againstVotes",
            "offset": 0,
            "slot": "0",
            "type": "t_uint256"
          },
          {
            "astId": 28475,
            "contract": "contracts/governance/Governor.sol:Governor",
            "label": "forVotes",
            "offset": 0,
            "slot": "1",
            "type": "t_uint256"
          },
          {
            "astId": 28477,
            "contract": "contracts/governance/Governor.sol:Governor",
            "label": "abstainVotes",
            "offset": 0,
            "slot": "2",
            "type": "t_uint256"
          }
        ],
        "numberOfBytes": "96"
      },
      "t_uint256": {
        "encoding": "inplace",
        "label": "uint256",
        "numberOfBytes": "32"
      }
    }
  }
}